{
  "_format": "hh-sol-artifact-1",
  "contractName": "LicensingContract",
  "sourceName": "contracts/LicensingContract.sol",
  "abi": [
    {
      "inputs": [
        {
          "internalType": "address",
          "name": "_multimediaNFT",
          "type": "address"
        },
        {
          "internalType": "address",
          "name": "_platformWallet",
          "type": "address"
        }
      ],
      "stateMutability": "nonpayable",
      "type": "constructor"
    },
    {
      "inputs": [
        {
          "internalType": "address",
          "name": "owner",
          "type": "address"
        }
      ],
      "name": "OwnableInvalidOwner",
      "type": "error"
    },
    {
      "inputs": [
        {
          "internalType": "address",
          "name": "account",
          "type": "address"
        }
      ],
      "name": "OwnableUnauthorizedAccount",
      "type": "error"
    },
    {
      "inputs": [],
      "name": "ReentrancyGuardReentrantCall",
      "type": "error"
    },
    {
      "anonymous": false,
      "inputs": [
        {
          "indexed": true,
          "internalType": "uint256",
          "name": "tokenId",
          "type": "uint256"
        },
        {
          "indexed": true,
          "internalType": "address",
          "name": "licensee",
          "type": "address"
        },
        {
          "indexed": true,
          "internalType": "address",
          "name": "licensor",
          "type": "address"
        },
        {
          "indexed": false,
          "internalType": "uint256",
          "name": "price",
          "type": "uint256"
        },
        {
          "indexed": false,
          "internalType": "string",
          "name": "licenseType",
          "type": "string"
        }
      ],
      "name": "LicenseCreated",
      "type": "event"
    },
    {
      "anonymous": false,
      "inputs": [
        {
          "indexed": true,
          "internalType": "uint256",
          "name": "tokenId",
          "type": "uint256"
        },
        {
          "indexed": true,
          "internalType": "address",
          "name": "licensee",
          "type": "address"
        },
        {
          "indexed": true,
          "internalType": "address",
          "name": "licensor",
          "type": "address"
        }
      ],
      "name": "LicenseRevoked",
      "type": "event"
    },
    {
      "anonymous": false,
      "inputs": [
        {
          "indexed": true,
          "internalType": "address",
          "name": "previousOwner",
          "type": "address"
        },
        {
          "indexed": true,
          "internalType": "address",
          "name": "newOwner",
          "type": "address"
        }
      ],
      "name": "OwnershipTransferred",
      "type": "event"
    },
    {
      "anonymous": false,
      "inputs": [
        {
          "indexed": true,
          "internalType": "uint256",
          "name": "tokenId",
          "type": "uint256"
        },
        {
          "indexed": true,
          "internalType": "address",
          "name": "recipient",
          "type": "address"
        },
        {
          "indexed": false,
          "internalType": "uint256",
          "name": "percentage",
          "type": "uint256"
        }
      ],
      "name": "RoyaltySet",
      "type": "event"
    },
    {
      "inputs": [
        {
          "internalType": "uint256",
          "name": "tokenId",
          "type": "uint256"
        },
        {
          "internalType": "address",
          "name": "licensee",
          "type": "address"
        },
        {
          "internalType": "uint256",
          "name": "price",
          "type": "uint256"
        },
        {
          "internalType": "uint256",
          "name": "duration",
          "type": "uint256"
        },
        {
          "internalType": "string",
          "name": "licenseType",
          "type": "string"
        },
        {
          "internalType": "string",
          "name": "terms",
          "type": "string"
        }
      ],
      "name": "createLicense",
      "outputs": [],
      "stateMutability": "nonpayable",
      "type": "function"
    },
    {
      "inputs": [
        {
          "internalType": "uint256",
          "name": "tokenId",
          "type": "uint256"
        },
        {
          "internalType": "address",
          "name": "licensee",
          "type": "address"
        }
      ],
      "name": "getActiveLicense",
      "outputs": [
        {
          "components": [
            {
              "internalType": "uint256",
              "name": "tokenId",
              "type": "uint256"
            },
            {
              "internalType": "address",
              "name": "licensee",
              "type": "address"
            },
            {
              "internalType": "address",
              "name": "licensor",
              "type": "address"
            },
            {
              "internalType": "uint256",
              "name": "price",
              "type": "uint256"
            },
            {
              "internalType": "uint256",
              "name": "startDate",
              "type": "uint256"
            },
            {
              "internalType": "uint256",
              "name": "endDate",
              "type": "uint256"
            },
            {
              "internalType": "string",
              "name": "licenseType",
              "type": "string"
            },
            {
              "internalType": "bool",
              "name": "isActive",
              "type": "bool"
            },
            {
              "internalType": "string",
              "name": "terms",
              "type": "string"
            }
          ],
          "internalType": "struct LicensingContract.License",
          "name": "",
          "type": "tuple"
        }
      ],
      "stateMutability": "view",
      "type": "function"
    },
    {
      "inputs": [
        {
          "internalType": "uint256",
          "name": "tokenId",
          "type": "uint256"
        }
      ],
      "name": "getTokenLicenses",
      "outputs": [
        {
          "components": [
            {
              "internalType": "uint256",
              "name": "tokenId",
              "type": "uint256"
            },
            {
              "internalType": "address",
              "name": "licensee",
              "type": "address"
            },
            {
              "internalType": "address",
              "name": "licensor",
              "type": "address"
            },
            {
              "internalType": "uint256",
              "name": "price",
              "type": "uint256"
            },
            {
              "internalType": "uint256",
              "name": "startDate",
              "type": "uint256"
            },
            {
              "internalType": "uint256",
              "name": "endDate",
              "type": "uint256"
            },
            {
              "internalType": "string",
              "name": "licenseType",
              "type": "string"
            },
            {
              "internalType": "bool",
              "name": "isActive",
              "type": "bool"
            },
            {
              "internalType": "string",
              "name": "terms",
              "type": "string"
            }
          ],
          "internalType": "struct LicensingContract.License[]",
          "name": "",
          "type": "tuple[]"
        }
      ],
      "stateMutability": "view",
      "type": "function"
    },
    {
      "inputs": [
        {
          "internalType": "address",
          "name": "user",
          "type": "address"
        }
      ],
      "name": "getUserLicenses",
      "outputs": [
        {
          "internalType": "uint256[]",
          "name": "",
          "type": "uint256[]"
        }
      ],
      "stateMutability": "view",
      "type": "function"
    },
    {
      "inputs": [],
      "name": "multimediaNFT",
      "outputs": [
        {
          "internalType": "contract IERC721",
          "name": "",
          "type": "address"
        }
      ],
      "stateMutability": "view",
      "type": "function"
    },
    {
      "inputs": [],
      "name": "owner",
      "outputs": [
        {
          "internalType": "address",
          "name": "",
          "type": "address"
        }
      ],
      "stateMutability": "view",
      "type": "function"
    },
    {
      "inputs": [],
      "name": "platformFee",
      "outputs": [
        {
          "internalType": "uint256",
          "name": "",
          "type": "uint256"
        }
      ],
      "stateMutability": "view",
      "type": "function"
    },
    {
      "inputs": [],
      "name": "platformWallet",
      "outputs": [
        {
          "internalType": "address",
          "name": "",
          "type": "address"
        }
      ],
      "stateMutability": "view",
      "type": "function"
    },
    {
      "inputs": [
        {
          "internalType": "uint256",
          "name": "tokenId",
          "type": "uint256"
        },
        {
          "internalType": "uint256",
          "name": "licenseIndex",
          "type": "uint256"
        }
      ],
      "name": "purchaseLicense",
      "outputs": [],
      "stateMutability": "payable",
      "type": "function"
    },
    {
      "inputs": [],
      "name": "renounceOwnership",
      "outputs": [],
      "stateMutability": "nonpayable",
      "type": "function"
    },
    {
      "inputs": [
        {
          "internalType": "uint256",
          "name": "tokenId",
          "type": "uint256"
        },
        {
          "internalType": "uint256",
          "name": "licenseIndex",
          "type": "uint256"
        }
      ],
      "name": "revokeLicense",
      "outputs": [],
      "stateMutability": "nonpayable",
      "type": "function"
    },
    {
      "inputs": [
        {
          "internalType": "uint256",
          "name": "newFee",
          "type": "uint256"
        }
      ],
      "name": "setPlatformFee",
      "outputs": [],
      "stateMutability": "nonpayable",
      "type": "function"
    },
    {
      "inputs": [
        {
          "internalType": "address",
          "name": "newWallet",
          "type": "address"
        }
      ],
      "name": "setPlatformWallet",
      "outputs": [],
      "stateMutability": "nonpayable",
      "type": "function"
    },
    {
      "inputs": [
        {
          "internalType": "uint256",
          "name": "tokenId",
          "type": "uint256"
        },
        {
          "internalType": "address",
          "name": "recipient",
          "type": "address"
        },
        {
          "internalType": "uint256",
          "name": "percentage",
          "type": "uint256"
        }
      ],
      "name": "setRoyalty",
      "outputs": [],
      "stateMutability": "nonpayable",
      "type": "function"
    },
    {
      "inputs": [
        {
          "internalType": "uint256",
          "name": "",
          "type": "uint256"
        },
        {
          "internalType": "uint256",
          "name": "",
          "type": "uint256"
        }
      ],
      "name": "tokenLicenses",
      "outputs": [
        {
          "internalType": "uint256",
          "name": "tokenId",
          "type": "uint256"
        },
        {
          "internalType": "address",
          "name": "licensee",
          "type": "address"
        },
        {
          "internalType": "address",
          "name": "licensor",
          "type": "address"
        },
        {
          "internalType": "uint256",
          "name": "price",
          "type": "uint256"
        },
        {
          "internalType": "uint256",
          "name": "startDate",
          "type": "uint256"
        },
        {
          "internalType": "uint256",
          "name": "endDate",
          "type": "uint256"
        },
        {
          "internalType": "string",
          "name": "licenseType",
          "type": "string"
        },
        {
          "internalType": "bool",
          "name": "isActive",
          "type": "bool"
        },
        {
          "internalType": "string",
          "name": "terms",
          "type": "string"
        }
      ],
      "stateMutability": "view",
      "type": "function"
    },
    {
      "inputs": [
        {
          "internalType": "uint256",
          "name": "",
          "type": "uint256"
        }
      ],
      "name": "tokenRoyalties",
      "outputs": [
        {
          "internalType": "address",
          "name": "recipient",
          "type": "address"
        },
        {
          "internalType": "uint256",
          "name": "percentage",
          "type": "uint256"
        },
        {
          "internalType": "bool",
          "name": "isActive",
          "type": "bool"
        }
      ],
      "stateMutability": "view",
      "type": "function"
    },
    {
      "inputs": [
        {
          "internalType": "address",
          "name": "newOwner",
          "type": "address"
        }
      ],
      "name": "transferOwnership",
      "outputs": [],
      "stateMutability": "nonpayable",
      "type": "function"
    },
    {
      "inputs": [
        {
          "internalType": "address",
          "name": "",
          "type": "address"
        },
        {
          "internalType": "uint256",
          "name": "",
          "type": "uint256"
        }
      ],
      "name": "userLicenses",
      "outputs": [
        {
          "internalType": "uint256",
          "name": "",
          "type": "uint256"
        }
      ],
      "stateMutability": "view",
      "type": "function"
    },
    {
      "inputs": [],
      "name": "withdrawPlatformFees",
      "outputs": [],
      "stateMutability": "nonpayable",
      "type": "function"
    }
  ],
  "bytecode": "0x6080346100ed57601f6200195f38819003918201601f19168301916001600160401b038311848410176100f25780849260409485528339810103126100ed57610053602061004c83610108565b9201610108565b33156100d45760008054336001600160a01b0319808316821784556040519590946001600160a01b03949093859391908416907f8be0079c531659141344cd1fd0a4f28419497f9722a3daafe3b4186f6b6457e09080a36001805560fa600655168360025416176002551690600754161760075561184290816200011d8239f35b604051631e4fbdf760e01b815260006004820152602490fd5b600080fd5b634e487b7160e01b600052604160045260246000fd5b51906001600160a01b03821682036100ed5756fe6080604052600436101561001257600080fd5b60003560e01c806310e52a3a14610fdc57806312e8e2c314610f6d578063194e5b5c14610ea557806326232a2e14610e87578063454c1d3114610e2f5780634bcff78314610d14578063507fed7214610ceb578063622d99bf14610c06578063715018a614610bad57806375a106c314610af95780637db3c828146109355780638831e9cf146108af5780638da5cb5b14610886578063b6d41f9a14610847578063c33e094c14610244578063cb53b24b146101f4578063d0b7830b146101a4578063f2fde38b1461011b5763fa2af9da146100ed57600080fd5b34610116576000366003190112610116576007546040516001600160a01b039091168152602090f35b600080fd5b3461011657602036600319011261011657610134611433565b61013c61154f565b6001600160a01b0390811690811561018b57600054826001600160601b0360a01b821617600055167f8be0079c531659141344cd1fd0a4f28419497f9722a3daafe3b4186f6b6457e0600080a3005b604051631e4fbdf760e01b815260006004820152602490fd5b34610116576000366003190112610116576101bd61154f565b600080808060018060a01b036007541647908282156101eb575bf1156101df57005b6040513d6000823e3d90fd5b506108fc6101d7565b346101165760203660031901126101165760043560005260046020526060604060002060018060a01b038154169060ff600260018301549201541690604051928352602083015215156040820152f35b346101165760c03660031901126101165761025d611449565b60843567ffffffffffffffff81116101165761027d9036906004016114f8565b60a43567ffffffffffffffff81116101165761029d9036906004016114f8565b6102a56115dc565b6002546040516331a9108f60e11b8152600480359082015290602090829060249082906001600160a01b03165afa80156101df576102f691600091610818575b506001600160a01b0316331461159a565b6001600160a01b038316156107d3576044351561078e57606435801561074957420190814211610733576040519161032d8361130e565b600435835260018060a01b0385166020840152336040840152604435606084015242608084015260a08301528260c0830152600160e0830152610100820152600435600052600360205260406000208054600160401b81101561057f5761039991600182018155611286565b91909161071d578051825560208101516001830180546001600160a01b039283166001600160a01b0319918216179091556040830151600285018054919093169116179055606081015160038301556080810151600483015560a0810151600583015560c081015180519067ffffffffffffffff821161057f5761042060068501546112b8565b601f81116106d6575b50602090601f83116001146106625761010093929160009183610657575b50508160011b916000199060031b1c19161760068401555b61047e60e08201511515600785019060ff801983541691151516179055565b015180519067ffffffffffffffff821161057f5761049f60088401546112b8565b601f8111610610575b50602090601f83116001146105a0576008929160009183610595575b50508160011b916000199060031b1c1916179101555b6001600160a01b03821660009081526005602052604090208054600160401b81101561057f5761050f9160018201815561145f565b815460001960039290921b91821b19166004359182901b179091556040805160443581526020810182905233946001600160a01b0316937f16c8d9a2576b44fe024c75fe99348205abc1d2a518bbbd0e9699e03ba09358be928291610576918301906113f3565b0390a460018055005b634e487b7160e01b600052604160045260246000fd5b0151905086806104c4565b906008840160005260206000209160005b601f19851681106105f85750918391600193600895601f198116106105df575b505050811b019101556104da565b015160001960f88460031b161c191690558680806105d1565b919260206001819286850151815501940192016105b1565b600884016000526020600020601f840160051c810160208510610650575b601f830160051c820181106106445750506104a8565b6000815560010161062e565b508061062e565b015190508780610447565b906006850160005260206000209160005b601f19851681106106be57509183916001936101009695601f198116106106a5575b505050811b01600684015561045f565b015160001960f88460031b161c19169055878080610695565b91926020600181928685015181550194019201610673565b600685016000526020600020601f840160051c810160208510610716575b601f830160051c8201811061070a575050610429565b600081556001016106f4565b50806106f4565b634e487b7160e01b600052600060045260246000fd5b634e487b7160e01b600052601160045260246000fd5b60405162461bcd60e51b815260206004820152601f60248201527f4475726174696f6e206d7573742062652067726561746572207468616e2030006044820152606490fd5b60405162461bcd60e51b815260206004820152601c60248201527f5072696365206d7573742062652067726561746572207468616e2030000000006044820152606490fd5b60405162461bcd60e51b815260206004820152601860248201527f496e76616c6964206c6963656e736565206164647265737300000000000000006044820152606490fd5b61083a915060203d602011610840575b610832818361132b565b81019061157b565b856102e5565b503d610828565b346101165760403660031901126101165761088261086e610866611449565b6004356116e6565b604051918291602083526020830190611477565b0390f35b34610116576000366003190112610116576000546040516001600160a01b039091168152602090f35b34610116576020366003190112610116576108c8611433565b6108d061154f565b6001600160a01b031680156108f7576001600160601b0360a01b6007541617600755600080f35b60405162461bcd60e51b8152602060048201526016602482015275496e76616c69642077616c6c6574206164647265737360501b6044820152606490fd5b3461011657606036600319011261011657600435610951611449565b6002546040516331a9108f60e11b8152600481018490526001600160a01b0393926020926044359291908490839060249082908a165afa9182156101df5786926109a791600091610adc575b508316331461159a565b16938415610a97576103e88211610a465790610a3d7f49018ca4b3b4f0c8442e69b201303bb7f7919a14033768ce71ad07ba63a348a393926002604051916109ee836112f2565b888352858301858152604084019160018352896000526004885260406000209451166001600160601b0360a01b85541617845551600184015551151591019060ff801983541691151516179055565b604051908152a3005b60405162461bcd60e51b8152600481018490526024808201527f526f79616c74792070657263656e746167652063616e6e6f74206578636565646044820152632031302560e01b6064820152608490fd5b60405162461bcd60e51b815260048101849052601960248201527f496e76616c696420726563697069656e742061646472657373000000000000006044820152606490fd5b610af39150863d881161084057610832818361132b565b8861099d565b3461011657602080600319360112610116576001600160a01b03610b1b611433565b1660005260058152604060002060405190818382549182815201908192600052846000209060005b86828210610b99578686610b598288038361132b565b604051928392818401908285525180915260408401929160005b828110610b8257505050500390f35b835185528695509381019392810192600101610b73565b835485529093019260019283019201610b43565b3461011657600036600319011261011657610bc661154f565b600080546001600160a01b0319811682556001600160a01b03167f8be0079c531659141344cd1fd0a4f28419497f9722a3daafe3b4186f6b6457e08280a3005b34610116576020806003193601126101165760043560005260038152604060002080549067ffffffffffffffff821161057f57829060405192610c4e838260051b018561132b565b8084528284018092600052836000206000915b838310610cc85750505050604051918083019381845251809452604083019360408160051b85010192916000955b828710610c9c5785850386f35b909192938280610cb8600193603f198a82030186528851611477565b9601920196019592919092610c8f565b600986600192610cda859a999a611664565b815201920192019190959495610c61565b34610116576000366003190112610116576002546040516001600160a01b039091168152602090f35b3461011657610d54610d2536611270565b816000939293526003602052610d4160406000205482106115ff565b8260005260036020526040600020611286565b5060028101549091906001600160a01b039081163303610df75760078301805460ff811615610db25760ff1916905560013393015416907f58982691f8028698415b80190ad6b11bb594d64a5ad0fe9a1cec01e61c8afcdd600080a4005b60405162461bcd60e51b815260206004820152601b60248201527f4c6963656e736520697320616c726561647920696e61637469766500000000006044820152606490fd5b60405162461bcd60e51b815260206004820152601060248201526f2737ba103a3432903634b1b2b739b7b960811b6044820152606490fd5b3461011657604036600319011261011657610e48611433565b6001600160a01b031660009081526005602052604090208054602435919082101561011657602091610e799161145f565b90546040519160031b1c8152f35b34610116576000366003190112610116576020600654604051908152f35b3461011657610eb336611270565b906000526003602052604060002090815481101561011657610ed491611286565b50805461088260018060a01b03928360018201541693600282015416610f5760038301546004840154600585015490610f0f6006870161134d565b92610f24600860ff60078a015416980161134d565b956040519a8b9a8b5260208b015260408a01526060890152608088015260a08701526101208060c08801528601906113f3565b91151560e08501528382036101008501526113f3565b3461011657602036600319011261011657600435610f8961154f565b6103e88111610f9757600655005b60405162461bcd60e51b815260206004820152601e60248201527f506c6174666f726d206665652063616e6e6f74206578636565642031302500006044820152606490fd5b610fe536611270565b90610fee6115dc565b8060005261101e6020926003845261100c60406000205482106115ff565b82600052600384526040600020611286565b5060ff600782015416156112335760018101546001600160a01b039190821633036111ee576003810154938434106111b357600582015442116111795761271091600080808061107c876110746006548d611644565b04809b611657565b998860075416828215611170575bf1156101df5760020193600080808089888a5416828215611167575bf1156101df5760005260048152604060002060ff6002604051926110c9846112f2565b8681541684526001810154809585015201541615158060408301528061115e575b6110f5575b60018055005b600080809392869561110883958b611644565b049687915116828215611155575bf1156101df576000936111328594938594938594541692611657565b9082821561114c575bf1156101df578080808080806110ef565b506108fc61113b565b506108fc611116565b508115156110ea565b506108fc6110a6565b506108fc61108a565b6064906040519062461bcd60e51b825260048201526013602482015272131a58d95b9cd9481a185cc8195e1c1a5c9959606a1b6044820152fd5b6064906040519062461bcd60e51b825260048201526014602482015273125b9cdd59999a58da595b9d081c185e5b595b9d60621b6044820152fd5b60405162461bcd60e51b815260048101859052601960248201527f4e6f742074686520696e74656e646564206c6963656e736565000000000000006044820152606490fd5b60405162461bcd60e51b81526004810184905260156024820152744c6963656e7365206973206e6f742061637469766560581b6044820152606490fd5b6040906003190112610116576004359060243590565b80548210156112a2576000526009602060002091020190600090565b634e487b7160e01b600052603260045260246000fd5b90600182811c921680156112e8575b60208310146112d257565b634e487b7160e01b600052602260045260246000fd5b91607f16916112c7565b6060810190811067ffffffffffffffff82111761057f57604052565b610120810190811067ffffffffffffffff82111761057f57604052565b90601f8019910116810190811067ffffffffffffffff82111761057f57604052565b9060405191826000825492611361846112b8565b9081845260019485811690816000146113d0575060011461138d575b505061138b9250038361132b565b565b9093915060005260209081600020936000915b8183106113b857505061138b9350820101388061137d565b855488840185015294850194879450918301916113a0565b91505061138b94506020925060ff191682840152151560051b820101388061137d565b919082519283825260005b84811061141f575050826000602080949584010152601f8019910116010190565b6020818301810151848301820152016113fe565b600435906001600160a01b038216820361011657565b602435906001600160a01b038216820361011657565b80548210156112a25760005260206000200190600090565b906114f5918051825260018060a01b038060208301511660208401526040820151166040830152606081015160608301526080810151608083015260a081015160a08301526114d560c08201516101208060c08601528401906113f3565b9160e0820151151560e082015261010080920151918184039101526113f3565b90565b81601f820112156101165780359067ffffffffffffffff821161057f576040519261152d601f8401601f19166020018561132b565b8284526020838301011161011657816000926020809301838601378301015290565b6000546001600160a01b0316330361156357565b60405163118cdaa760e01b8152336004820152602490fd5b9081602091031261011657516001600160a01b03811681036101165790565b156115a157565b60405162461bcd60e51b81526020600482015260136024820152722737ba103a3432903a37b5b2b71037bbb732b960691b6044820152606490fd5b6002600154146115ed576002600155565b604051633ee5aeb560e01b8152600490fd5b1561160657565b60405162461bcd60e51b8152602060048201526016602482015275131a58d95b9cd948191bd95cc81b9bdd08195e1a5cdd60521b6044820152606490fd5b8181029291811591840414171561073357565b9190820391821161073357565b906040516116718161130e565b6101006116e1600883958054855260018060a01b0380600183015416602087015260028201541660408601526003810154606086015260048101546080860152600581015460a08601526116c76006820161134d565b60c086015260ff600782015416151560e08601520161134d565b910152565b9160409182516116f58161130e565b6000938482526020928584840152858284015285606084015285608084015260a0918683850152606060c0850152606061010060e09589878201520152865b8888526003865281882080548210156117c8576117548261175a92611286565b50611664565b808701516001600160a01b03858116911614806117bc575b806117af575b6117a25750600019811461178e57600101611734565b634e487b7160e01b88526011600452602488fd5b9750505050505050915090565b5084810151421115611778565b50858101511515611772565b825162461bcd60e51b815260048101889052601760248201527f4e6f20616374697665206c6963656e736520666f756e640000000000000000006044820152606490fdfea26469706673582212203c6bb32c5801bb631f6a0e59819c0b4c3e234283956148d2c0138c94d177f8b464736f6c63430008140033",
  "linkReferences": {},
  "deployedLinkReferences": {}
}