{"contracts/LicensingContract.sol":{"LicensingContract":{"abi":[{"inputs":[{"internalType":"address","name":"_multimediaNFT","type":"address"},{"internalType":"address","name":"_platformWallet","type":"address"}],"stateMutability":"nonpayable","type":"constructor"},{"inputs":[{"internalType":"address","name":"owner","type":"address"}],"name":"OwnableInvalidOwner","type":"error"},{"inputs":[{"internalType":"address","name":"account","type":"address"}],"name":"OwnableUnauthorizedAccount","type":"error"},{"inputs":[],"name":"ReentrancyGuardReentrantCall","type":"error"},{"anonymous":false,"inputs":[{"indexed":true,"internalType":"uint256","name":"tokenId","type":"uint256"},{"indexed":true,"internalType":"address","name":"licensee","type":"address"},{"indexed":true,"internalType":"address","name":"licensor","type":"address"},{"indexed":false,"internalType":"uint256","name":"price","type":"uint256"},{"indexed":false,"internalType":"string","name":"licenseType","type":"string"}],"name":"LicenseCreated","type":"event"},{"anonymous":false,"inputs":[{"indexed":true,"internalType":"uint256","name":"tokenId","type":"uint256"},{"indexed":true,"internalType":"address","name":"licensee","type":"address"},{"indexed":true,"internalType":"address","name":"licensor","type":"address"}],"name":"LicenseRevoked","type":"event"},{"anonymous":false,"inputs":[{"indexed":true,"internalType":"address","name":"previousOwner","type":"address"},{"indexed":true,"internalType":"address","name":"newOwner","type":"address"}],"name":"OwnershipTransferred","type":"event"},{"anonymous":false,"inputs":[{"indexed":true,"internalType":"uint256","name":"tokenId","type":"uint256"},{"indexed":true,"internalType":"address","name":"recipient","type":"address"},{"indexed":false,"internalType":"uint256","name":"percentage","type":"uint256"}],"name":"RoyaltySet","type":"event"},{"inputs":[{"internalType":"uint256","name":"tokenId","type":"uint256"},{"internalType":"address","name":"licensee","type":"address"},{"internalType":"uint256","name":"price","type":"uint256"},{"internalType":"uint256","name":"duration","type":"uint256"},{"internalType":"string","name":"licenseType","type":"string"},{"internalType":"string","name":"terms","type":"string"}],"name":"createLicense","outputs":[],"stateMutability":"nonpayable","type":"function"},{"inputs":[{"internalType":"uint256","name":"tokenId","type":"uint256"},{"internalType":"address","name":"licensee","type":"address"}],"name":"getActiveLicense","outputs":[{"components":[{"internalType":"uint256","name":"tokenId","type":"uint256"},{"internalType":"address","name":"licensee","type":"address"},{"internalType":"address","name":"licensor","type":"address"},{"internalType":"uint256","name":"price","type":"uint256"},{"internalType":"uint256","name":"startDate","type":"uint256"},{"internalType":"uint256","name":"endDate","type":"uint256"},{"internalType":"string","name":"licenseType","type":"string"},{"internalType":"bool","name":"isActive","type":"bool"},{"internalType":"string","name":"terms","type":"string"}],"internalType":"struct LicensingContract.License","name":"","type":"tuple"}],"stateMutability":"view","type":"function"},{"inputs":[{"internalType":"uint256","name":"tokenId","type":"uint256"}],"name":"getTokenLicenses","outputs":[{"components":[{"internalType":"uint256","name":"tokenId","type":"uint256"},{"internalType":"address","name":"licensee","type":"address"},{"internalType":"address","name":"licensor","type":"address"},{"internalType":"uint256","name":"price","type":"uint256"},{"internalType":"uint256","name":"startDate","type":"uint256"},{"internalType":"uint256","name":"endDate","type":"uint256"},{"internalType":"string","name":"licenseType","type":"string"},{"internalType":"bool","name":"isActive","type":"bool"},{"internalType":"string","name":"terms","type":"string"}],"internalType":"struct LicensingContract.License[]","name":"","type":"tuple[]"}],"stateMutability":"view","type":"function"},{"inputs":[{"internalType":"address","name":"user","type":"address"}],"name":"getUserLicenses","outputs":[{"internalType":"uint256[]","name":"","type":"uint256[]"}],"stateMutability":"view","type":"function"},{"inputs":[],"name":"multimediaNFT","outputs":[{"internalType":"contract IERC721","name":"","type":"address"}],"stateMutability":"view","type":"function"},{"inputs":[],"name":"owner","outputs":[{"internalType":"address","name":"","type":"address"}],"stateMutability":"view","type":"function"},{"inputs":[],"name":"platformFee","outputs":[{"internalType":"uint256","name":"","type":"uint256"}],"stateMutability":"view","type":"function"},{"inputs":[],"name":"platformWallet","outputs":[{"internalType":"address","name":"","type":"address"}],"stateMutability":"view","type":"function"},{"inputs":[{"internalType":"uint256","name":"tokenId","type":"uint256"},{"internalType":"uint256","name":"licenseIndex","type":"uint256"}],"name":"purchaseLicense","outputs":[],"stateMutability":"payable","type":"function"},{"inputs":[],"name":"renounceOwnership","outputs":[],"stateMutability":"nonpayable","type":"function"},{"inputs":[{"internalType":"uint256","name":"tokenId","type":"uint256"},{"internalType":"uint256","name":"licenseIndex","type":"uint256"}],"name":"revokeLicense","outputs":[],"stateMutability":"nonpayable","type":"function"},{"inputs":[{"internalType":"uint256","name":"newFee","type":"uint256"}],"name":"setPlatformFee","outputs":[],"stateMutability":"nonpayable","type":"function"},{"inputs":[{"internalType":"address","name":"newWallet","type":"address"}],"name":"setPlatformWallet","outputs":[],"stateMutability":"nonpayable","type":"function"},{"inputs":[{"internalType":"uint256","name":"tokenId","type":"uint256"},{"internalType":"address","name":"recipient","type":"address"},{"internalType":"uint256","name":"percentage","type":"uint256"}],"name":"setRoyalty","outputs":[],"stateMutability":"nonpayable","type":"function"},{"inputs":[{"internalType":"uint256","name":"","type":"uint256"},{"internalType":"uint256","name":"","type":"uint256"}],"name":"tokenLicenses","outputs":[{"internalType":"uint256","name":"tokenId","type":"uint256"},{"internalType":"address","name":"licensee","type":"address"},{"internalType":"address","name":"licensor","type":"address"},{"internalType":"uint256","name":"price","type":"uint256"},{"internalType":"uint256","name":"startDate","type":"uint256"},{"internalType":"uint256","name":"endDate","type":"uint256"},{"internalType":"string","name":"licenseType","type":"string"},{"internalType":"bool","name":"isActive","type":"bool"},{"internalType":"string","name":"terms","type":"string"}],"stateMutability":"view","type":"function"},{"inputs":[{"internalType":"uint256","name":"","type":"uint256"}],"name":"tokenRoyalties","outputs":[{"internalType":"address","name":"recipient","type":"address"},{"internalType":"uint256","name":"percentage","type":"uint256"},{"internalType":"bool","name":"isActive","type":"bool"}],"stateMutability":"view","type":"function"},{"inputs":[{"internalType":"address","name":"newOwner","type":"address"}],"name":"transferOwnership","outputs":[],"stateMutability":"nonpayable","type":"function"},{"inputs":[{"internalType":"address","name":"","type":"address"},{"internalType":"uint256","name":"","type":"uint256"}],"name":"userLicenses","outputs":[{"internalType":"uint256","name":"","type":"uint256"}],"stateMutability":"view","type":"function"},{"inputs":[],"name":"withdrawPlatformFees","outputs":[],"stateMutability":"nonpayable","type":"function"}],"evm":{"bytecode":{"linkReferences":{},"object":"6080346100ed57601f6200195f38819003918201601f19168301916001600160401b038311848410176100f25780849260409485528339810103126100ed57610053602061004c83610108565b9201610108565b33156100d45760008054336001600160a01b0319808316821784556040519590946001600160a01b03949093859391908416907f8be0079c531659141344cd1fd0a4f28419497f9722a3daafe3b4186f6b6457e09080a36001805560fa600655168360025416176002551690600754161760075561184290816200011d8239f35b604051631e4fbdf760e01b815260006004820152602490fd5b600080fd5b634e487b7160e01b600052604160045260246000fd5b51906001600160a01b03821682036100ed5756fe6080604052600436101561001257600080fd5b60003560e01c806310e52a3a14610fdc57806312e8e2c314610f6d578063194e5b5c14610ea557806326232a2e14610e87578063454c1d3114610e2f5780634bcff78314610d14578063507fed7214610ceb578063622d99bf14610c06578063715018a614610bad57806375a106c314610af95780637db3c828146109355780638831e9cf146108af5780638da5cb5b14610886578063b6d41f9a14610847578063c33e094c14610244578063cb53b24b146101f4578063d0b7830b146101a4578063f2fde38b1461011b5763fa2af9da146100ed57600080fd5b34610116576000366003190112610116576007546040516001600160a01b039091168152602090f35b600080fd5b3461011657602036600319011261011657610134611433565b61013c61154f565b6001600160a01b0390811690811561018b57600054826001600160601b0360a01b821617600055167f8be0079c531659141344cd1fd0a4f28419497f9722a3daafe3b4186f6b6457e0600080a3005b604051631e4fbdf760e01b815260006004820152602490fd5b34610116576000366003190112610116576101bd61154f565b600080808060018060a01b036007541647908282156101eb575bf1156101df57005b6040513d6000823e3d90fd5b506108fc6101d7565b346101165760203660031901126101165760043560005260046020526060604060002060018060a01b038154169060ff600260018301549201541690604051928352602083015215156040820152f35b346101165760c03660031901126101165761025d611449565b60843567ffffffffffffffff81116101165761027d9036906004016114f8565b60a43567ffffffffffffffff81116101165761029d9036906004016114f8565b6102a56115dc565b6002546040516331a9108f60e11b8152600480359082015290602090829060249082906001600160a01b03165afa80156101df576102f691600091610818575b506001600160a01b0316331461159a565b6001600160a01b038316156107d3576044351561078e57606435801561074957420190814211610733576040519161032d8361130e565b600435835260018060a01b0385166020840152336040840152604435606084015242608084015260a08301528260c0830152600160e0830152610100820152600435600052600360205260406000208054600160401b81101561057f5761039991600182018155611286565b91909161071d578051825560208101516001830180546001600160a01b039283166001600160a01b0319918216179091556040830151600285018054919093169116179055606081015160038301556080810151600483015560a0810151600583015560c081015180519067ffffffffffffffff821161057f5761042060068501546112b8565b601f81116106d6575b50602090601f83116001146106625761010093929160009183610657575b50508160011b916000199060031b1c19161760068401555b61047e60e08201511515600785019060ff801983541691151516179055565b015180519067ffffffffffffffff821161057f5761049f60088401546112b8565b601f8111610610575b50602090601f83116001146105a0576008929160009183610595575b50508160011b916000199060031b1c1916179101555b6001600160a01b03821660009081526005602052604090208054600160401b81101561057f5761050f9160018201815561145f565b815460001960039290921b91821b19166004359182901b179091556040805160443581526020810182905233946001600160a01b0316937f16c8d9a2576b44fe024c75fe99348205abc1d2a518bbbd0e9699e03ba09358be928291610576918301906113f3565b0390a460018055005b634e487b7160e01b600052604160045260246000fd5b0151905086806104c4565b906008840160005260206000209160005b601f19851681106105f85750918391600193600895601f198116106105df575b505050811b019101556104da565b015160001960f88460031b161c191690558680806105d1565b919260206001819286850151815501940192016105b1565b600884016000526020600020601f840160051c810160208510610650575b601f830160051c820181106106445750506104a8565b6000815560010161062e565b508061062e565b015190508780610447565b906006850160005260206000209160005b601f19851681106106be57509183916001936101009695601f198116106106a5575b505050811b01600684015561045f565b015160001960f88460031b161c19169055878080610695565b91926020600181928685015181550194019201610673565b600685016000526020600020601f840160051c810160208510610716575b601f830160051c8201811061070a575050610429565b600081556001016106f4565b50806106f4565b634e487b7160e01b600052600060045260246000fd5b634e487b7160e01b600052601160045260246000fd5b60405162461bcd60e51b815260206004820152601f60248201527f4475726174696f6e206d7573742062652067726561746572207468616e2030006044820152606490fd5b60405162461bcd60e51b815260206004820152601c60248201527f5072696365206d7573742062652067726561746572207468616e2030000000006044820152606490fd5b60405162461bcd60e51b815260206004820152601860248201527f496e76616c6964206c6963656e736565206164647265737300000000000000006044820152606490fd5b61083a915060203d602011610840575b610832818361132b565b81019061157b565b856102e5565b503d610828565b346101165760403660031901126101165761088261086e610866611449565b6004356116e6565b604051918291602083526020830190611477565b0390f35b34610116576000366003190112610116576000546040516001600160a01b039091168152602090f35b34610116576020366003190112610116576108c8611433565b6108d061154f565b6001600160a01b031680156108f7576001600160601b0360a01b6007541617600755600080f35b60405162461bcd60e51b8152602060048201526016602482015275496e76616c69642077616c6c6574206164647265737360501b6044820152606490fd5b3461011657606036600319011261011657600435610951611449565b6002546040516331a9108f60e11b8152600481018490526001600160a01b0393926020926044359291908490839060249082908a165afa9182156101df5786926109a791600091610adc575b508316331461159a565b16938415610a97576103e88211610a465790610a3d7f49018ca4b3b4f0c8442e69b201303bb7f7919a14033768ce71ad07ba63a348a393926002604051916109ee836112f2565b888352858301858152604084019160018352896000526004885260406000209451166001600160601b0360a01b85541617845551600184015551151591019060ff801983541691151516179055565b604051908152a3005b60405162461bcd60e51b8152600481018490526024808201527f526f79616c74792070657263656e746167652063616e6e6f74206578636565646044820152632031302560e01b6064820152608490fd5b60405162461bcd60e51b815260048101849052601960248201527f496e76616c696420726563697069656e742061646472657373000000000000006044820152606490fd5b610af39150863d881161084057610832818361132b565b8861099d565b3461011657602080600319360112610116576001600160a01b03610b1b611433565b1660005260058152604060002060405190818382549182815201908192600052846000209060005b86828210610b99578686610b598288038361132b565b604051928392818401908285525180915260408401929160005b828110610b8257505050500390f35b835185528695509381019392810192600101610b73565b835485529093019260019283019201610b43565b3461011657600036600319011261011657610bc661154f565b600080546001600160a01b0319811682556001600160a01b03167f8be0079c531659141344cd1fd0a4f28419497f9722a3daafe3b4186f6b6457e08280a3005b34610116576020806003193601126101165760043560005260038152604060002080549067ffffffffffffffff821161057f57829060405192610c4e838260051b018561132b565b8084528284018092600052836000206000915b838310610cc85750505050604051918083019381845251809452604083019360408160051b85010192916000955b828710610c9c5785850386f35b909192938280610cb8600193603f198a82030186528851611477565b9601920196019592919092610c8f565b600986600192610cda859a999a611664565b815201920192019190959495610c61565b34610116576000366003190112610116576002546040516001600160a01b039091168152602090f35b3461011657610d54610d2536611270565b816000939293526003602052610d4160406000205482106115ff565b8260005260036020526040600020611286565b5060028101549091906001600160a01b039081163303610df75760078301805460ff811615610db25760ff1916905560013393015416907f58982691f8028698415b80190ad6b11bb594d64a5ad0fe9a1cec01e61c8afcdd600080a4005b60405162461bcd60e51b815260206004820152601b60248201527f4c6963656e736520697320616c726561647920696e61637469766500000000006044820152606490fd5b60405162461bcd60e51b815260206004820152601060248201526f2737ba103a3432903634b1b2b739b7b960811b6044820152606490fd5b3461011657604036600319011261011657610e48611433565b6001600160a01b031660009081526005602052604090208054602435919082101561011657602091610e799161145f565b90546040519160031b1c8152f35b34610116576000366003190112610116576020600654604051908152f35b3461011657610eb336611270565b906000526003602052604060002090815481101561011657610ed491611286565b50805461088260018060a01b03928360018201541693600282015416610f5760038301546004840154600585015490610f0f6006870161134d565b92610f24600860ff60078a015416980161134d565b956040519a8b9a8b5260208b015260408a01526060890152608088015260a08701526101208060c08801528601906113f3565b91151560e08501528382036101008501526113f3565b3461011657602036600319011261011657600435610f8961154f565b6103e88111610f9757600655005b60405162461bcd60e51b815260206004820152601e60248201527f506c6174666f726d206665652063616e6e6f74206578636565642031302500006044820152606490fd5b610fe536611270565b90610fee6115dc565b8060005261101e6020926003845261100c60406000205482106115ff565b82600052600384526040600020611286565b5060ff600782015416156112335760018101546001600160a01b039190821633036111ee576003810154938434106111b357600582015442116111795761271091600080808061107c876110746006548d611644565b04809b611657565b998860075416828215611170575bf1156101df5760020193600080808089888a5416828215611167575bf1156101df5760005260048152604060002060ff6002604051926110c9846112f2565b8681541684526001810154809585015201541615158060408301528061115e575b6110f5575b60018055005b600080809392869561110883958b611644565b049687915116828215611155575bf1156101df576000936111328594938594938594541692611657565b9082821561114c575bf1156101df578080808080806110ef565b506108fc61113b565b506108fc611116565b508115156110ea565b506108fc6110a6565b506108fc61108a565b6064906040519062461bcd60e51b825260048201526013602482015272131a58d95b9cd9481a185cc8195e1c1a5c9959606a1b6044820152fd5b6064906040519062461bcd60e51b825260048201526014602482015273125b9cdd59999a58da595b9d081c185e5b595b9d60621b6044820152fd5b60405162461bcd60e51b815260048101859052601960248201527f4e6f742074686520696e74656e646564206c6963656e736565000000000000006044820152606490fd5b60405162461bcd60e51b81526004810184905260156024820152744c6963656e7365206973206e6f742061637469766560581b6044820152606490fd5b6040906003190112610116576004359060243590565b80548210156112a2576000526009602060002091020190600090565b634e487b7160e01b600052603260045260246000fd5b90600182811c921680156112e8575b60208310146112d257565b634e487b7160e01b600052602260045260246000fd5b91607f16916112c7565b6060810190811067ffffffffffffffff82111761057f57604052565b610120810190811067ffffffffffffffff82111761057f57604052565b90601f8019910116810190811067ffffffffffffffff82111761057f57604052565b9060405191826000825492611361846112b8565b9081845260019485811690816000146113d0575060011461138d575b505061138b9250038361132b565b565b9093915060005260209081600020936000915b8183106113b857505061138b9350820101388061137d565b855488840185015294850194879450918301916113a0565b91505061138b94506020925060ff191682840152151560051b820101388061137d565b919082519283825260005b84811061141f575050826000602080949584010152601f8019910116010190565b6020818301810151848301820152016113fe565b600435906001600160a01b038216820361011657565b602435906001600160a01b038216820361011657565b80548210156112a25760005260206000200190600090565b906114f5918051825260018060a01b038060208301511660208401526040820151166040830152606081015160608301526080810151608083015260a081015160a08301526114d560c08201516101208060c08601528401906113f3565b9160e0820151151560e082015261010080920151918184039101526113f3565b90565b81601f820112156101165780359067ffffffffffffffff821161057f576040519261152d601f8401601f19166020018561132b565b8284526020838301011161011657816000926020809301838601378301015290565b6000546001600160a01b0316330361156357565b60405163118cdaa760e01b8152336004820152602490fd5b9081602091031261011657516001600160a01b03811681036101165790565b156115a157565b60405162461bcd60e51b81526020600482015260136024820152722737ba103a3432903a37b5b2b71037bbb732b960691b6044820152606490fd5b6002600154146115ed576002600155565b604051633ee5aeb560e01b8152600490fd5b1561160657565b60405162461bcd60e51b8152602060048201526016602482015275131a58d95b9cd948191bd95cc81b9bdd08195e1a5cdd60521b6044820152606490fd5b8181029291811591840414171561073357565b9190820391821161073357565b906040516116718161130e565b6101006116e1600883958054855260018060a01b0380600183015416602087015260028201541660408601526003810154606086015260048101546080860152600581015460a08601526116c76006820161134d565b60c086015260ff600782015416151560e08601520161134d565b910152565b9160409182516116f58161130e565b6000938482526020928584840152858284015285606084015285608084015260a0918683850152606060c0850152606061010060e09589878201520152865b8888526003865281882080548210156117c8576117548261175a92611286565b50611664565b808701516001600160a01b03858116911614806117bc575b806117af575b6117a25750600019811461178e57600101611734565b634e487b7160e01b88526011600452602488fd5b9750505050505050915090565b5084810151421115611778565b50858101511515611772565b825162461bcd60e51b815260048101889052601760248201527f4e6f20616374697665206c6963656e736520666f756e640000000000000000006044820152606490fdfea26469706673582212203c6bb32c5801bb631f6a0e59819c0b4c3e234283956148d2c0138c94d177f8b464736f6c63430008140033","opcodes":"PUSH1 0x80 CALLVALUE PUSH2 0xED JUMPI PUSH1 0x1F PUSH3 0x195F CODESIZE DUP2 SWAP1 SUB SWAP2 DUP3 ADD PUSH1 0x1F NOT AND DUP4 ADD SWAP2 PUSH1 0x1 PUSH1 0x1 PUSH1 0x40 SHL SUB DUP4 GT DUP5 DUP5 LT OR PUSH2 0xF2 JUMPI DUP1 DUP5 SWAP3 PUSH1 0x40 SWAP5 DUP6 MSTORE DUP4 CODECOPY DUP2 ADD SUB SLT PUSH2 0xED JUMPI PUSH2 0x53 PUSH1 0x20 PUSH2 0x4C DUP4 PUSH2 0x108 JUMP JUMPDEST SWAP3 ADD PUSH2 0x108 JUMP JUMPDEST CALLER ISZERO PUSH2 0xD4 JUMPI PUSH1 0x0 DUP1 SLOAD CALLER PUSH1 0x1 PUSH1 0x1 PUSH1 0xA0 SHL SUB NOT DUP1 DUP4 AND DUP3 OR DUP5 SSTORE PUSH1 0x40 MLOAD SWAP6 SWAP1 SWAP5 PUSH1 0x1 PUSH1 0x1 PUSH1 0xA0 SHL SUB SWAP5 SWAP1 SWAP4 DUP6 SWAP4 SWAP2 SWAP1 DUP5 AND SWAP1 PUSH32 0x8BE0079C531659141344CD1FD0A4F28419497F9722A3DAAFE3B4186F6B6457E0 SWAP1 DUP1 LOG3 PUSH1 0x1 DUP1 SSTORE PUSH1 0xFA PUSH1 0x6 SSTORE AND DUP4 PUSH1 0x2 SLOAD AND OR PUSH1 0x2 SSTORE AND SWAP1 PUSH1 0x7 SLOAD AND OR PUSH1 0x7 SSTORE PUSH2 0x1842 SWAP1 DUP2 PUSH3 0x11D DUP3 CODECOPY RETURN JUMPDEST PUSH1 0x40 MLOAD PUSH4 0x1E4FBDF7 PUSH1 0xE0 SHL DUP2 MSTORE PUSH1 0x0 PUSH1 0x4 DUP3 ADD MSTORE PUSH1 0x24 SWAP1 REVERT JUMPDEST PUSH1 0x0 DUP1 REVERT JUMPDEST PUSH4 0x4E487B71 PUSH1 0xE0 SHL PUSH1 0x0 MSTORE PUSH1 0x41 PUSH1 0x4 MSTORE PUSH1 0x24 PUSH1 0x0 REVERT JUMPDEST MLOAD SWAP1 PUSH1 0x1 PUSH1 0x1 PUSH1 0xA0 SHL SUB DUP3 AND DUP3 SUB PUSH2 0xED JUMPI JUMP INVALID PUSH1 0x80 PUSH1 0x40 MSTORE PUSH1 0x4 CALLDATASIZE LT ISZERO PUSH2 0x12 JUMPI PUSH1 0x0 DUP1 REVERT JUMPDEST PUSH1 0x0 CALLDATALOAD PUSH1 0xE0 SHR DUP1 PUSH4 0x10E52A3A EQ PUSH2 0xFDC JUMPI DUP1 PUSH4 0x12E8E2C3 EQ PUSH2 0xF6D JUMPI DUP1 PUSH4 0x194E5B5C EQ PUSH2 0xEA5 JUMPI DUP1 PUSH4 0x26232A2E EQ PUSH2 0xE87 JUMPI DUP1 PUSH4 0x454C1D31 EQ PUSH2 0xE2F JUMPI DUP1 PUSH4 0x4BCFF783 EQ PUSH2 0xD14 JUMPI DUP1 PUSH4 0x507FED72 EQ PUSH2 0xCEB JUMPI DUP1 PUSH4 0x622D99BF EQ PUSH2 0xC06 JUMPI DUP1 PUSH4 0x715018A6 EQ PUSH2 0xBAD JUMPI DUP1 PUSH4 0x75A106C3 EQ PUSH2 0xAF9 JUMPI DUP1 PUSH4 0x7DB3C828 EQ PUSH2 0x935 JUMPI DUP1 PUSH4 0x8831E9CF EQ PUSH2 0x8AF JUMPI DUP1 PUSH4 0x8DA5CB5B EQ PUSH2 0x886 JUMPI DUP1 PUSH4 0xB6D41F9A EQ PUSH2 0x847 JUMPI DUP1 PUSH4 0xC33E094C EQ PUSH2 0x244 JUMPI DUP1 PUSH4 0xCB53B24B EQ PUSH2 0x1F4 JUMPI DUP1 PUSH4 0xD0B7830B EQ PUSH2 0x1A4 JUMPI DUP1 PUSH4 0xF2FDE38B EQ PUSH2 0x11B JUMPI PUSH4 0xFA2AF9DA EQ PUSH2 0xED JUMPI PUSH1 0x0 DUP1 REVERT JUMPDEST CALLVALUE PUSH2 0x116 JUMPI PUSH1 0x0 CALLDATASIZE PUSH1 0x3 NOT ADD SLT PUSH2 0x116 JUMPI PUSH1 0x7 SLOAD PUSH1 0x40 MLOAD PUSH1 0x1 PUSH1 0x1 PUSH1 0xA0 SHL SUB SWAP1 SWAP2 AND DUP2 MSTORE PUSH1 0x20 SWAP1 RETURN JUMPDEST PUSH1 0x0 DUP1 REVERT JUMPDEST CALLVALUE PUSH2 0x116 JUMPI PUSH1 0x20 CALLDATASIZE PUSH1 0x3 NOT ADD SLT PUSH2 0x116 JUMPI PUSH2 0x134 PUSH2 0x1433 JUMP JUMPDEST PUSH2 0x13C PUSH2 0x154F JUMP JUMPDEST PUSH1 0x1 PUSH1 0x1 PUSH1 0xA0 SHL SUB SWAP1 DUP2 AND SWAP1 DUP2 ISZERO PUSH2 0x18B JUMPI PUSH1 0x0 SLOAD DUP3 PUSH1 0x1 PUSH1 0x1 PUSH1 0x60 SHL SUB PUSH1 0xA0 SHL DUP3 AND OR PUSH1 0x0 SSTORE AND PUSH32 0x8BE0079C531659141344CD1FD0A4F28419497F9722A3DAAFE3B4186F6B6457E0 PUSH1 0x0 DUP1 LOG3 STOP JUMPDEST PUSH1 0x40 MLOAD PUSH4 0x1E4FBDF7 PUSH1 0xE0 SHL DUP2 MSTORE PUSH1 0x0 PUSH1 0x4 DUP3 ADD MSTORE PUSH1 0x24 SWAP1 REVERT JUMPDEST CALLVALUE PUSH2 0x116 JUMPI PUSH1 0x0 CALLDATASIZE PUSH1 0x3 NOT ADD SLT PUSH2 0x116 JUMPI PUSH2 0x1BD PUSH2 0x154F JUMP JUMPDEST PUSH1 0x0 DUP1 DUP1 DUP1 PUSH1 0x1 DUP1 PUSH1 0xA0 SHL SUB PUSH1 0x7 SLOAD AND SELFBALANCE SWAP1 DUP3 DUP3 ISZERO PUSH2 0x1EB JUMPI JUMPDEST CALL ISZERO PUSH2 0x1DF JUMPI STOP JUMPDEST PUSH1 0x40 MLOAD RETURNDATASIZE PUSH1 0x0 DUP3 RETURNDATACOPY RETURNDATASIZE SWAP1 REVERT JUMPDEST POP PUSH2 0x8FC PUSH2 0x1D7 JUMP JUMPDEST CALLVALUE PUSH2 0x116 JUMPI PUSH1 0x20 CALLDATASIZE PUSH1 0x3 NOT ADD SLT PUSH2 0x116 JUMPI PUSH1 0x4 CALLDATALOAD PUSH1 0x0 MSTORE PUSH1 0x4 PUSH1 0x20 MSTORE PUSH1 0x60 PUSH1 0x40 PUSH1 0x0 KECCAK256 PUSH1 0x1 DUP1 PUSH1 0xA0 SHL SUB DUP2 SLOAD AND SWAP1 PUSH1 0xFF PUSH1 0x2 PUSH1 0x1 DUP4 ADD SLOAD SWAP3 ADD SLOAD AND SWAP1 PUSH1 0x40 MLOAD SWAP3 DUP4 MSTORE PUSH1 0x20 DUP4 ADD MSTORE ISZERO ISZERO PUSH1 0x40 DUP3 ADD MSTORE RETURN JUMPDEST CALLVALUE PUSH2 0x116 JUMPI PUSH1 0xC0 CALLDATASIZE PUSH1 0x3 NOT ADD SLT PUSH2 0x116 JUMPI PUSH2 0x25D PUSH2 0x1449 JUMP JUMPDEST PUSH1 0x84 CALLDATALOAD PUSH8 0xFFFFFFFFFFFFFFFF DUP2 GT PUSH2 0x116 JUMPI PUSH2 0x27D SWAP1 CALLDATASIZE SWAP1 PUSH1 0x4 ADD PUSH2 0x14F8 JUMP JUMPDEST PUSH1 0xA4 CALLDATALOAD PUSH8 0xFFFFFFFFFFFFFFFF DUP2 GT PUSH2 0x116 JUMPI PUSH2 0x29D SWAP1 CALLDATASIZE SWAP1 PUSH1 0x4 ADD PUSH2 0x14F8 JUMP JUMPDEST PUSH2 0x2A5 PUSH2 0x15DC JUMP JUMPDEST PUSH1 0x2 SLOAD PUSH1 0x40 MLOAD PUSH4 0x31A9108F PUSH1 0xE1 SHL DUP2 MSTORE PUSH1 0x4 DUP1 CALLDATALOAD SWAP1 DUP3 ADD MSTORE SWAP1 PUSH1 0x20 SWAP1 DUP3 SWAP1 PUSH1 0x24 SWAP1 DUP3 SWAP1 PUSH1 0x1 PUSH1 0x1 PUSH1 0xA0 SHL SUB AND GAS STATICCALL DUP1 ISZERO PUSH2 0x1DF JUMPI PUSH2 0x2F6 SWAP2 PUSH1 0x0 SWAP2 PUSH2 0x818 JUMPI JUMPDEST POP PUSH1 0x1 PUSH1 0x1 PUSH1 0xA0 SHL SUB AND CALLER EQ PUSH2 0x159A JUMP JUMPDEST PUSH1 0x1 PUSH1 0x1 PUSH1 0xA0 SHL SUB DUP4 AND ISZERO PUSH2 0x7D3 JUMPI PUSH1 0x44 CALLDATALOAD ISZERO PUSH2 0x78E JUMPI PUSH1 0x64 CALLDATALOAD DUP1 ISZERO PUSH2 0x749 JUMPI TIMESTAMP ADD SWAP1 DUP2 TIMESTAMP GT PUSH2 0x733 JUMPI PUSH1 0x40 MLOAD SWAP2 PUSH2 0x32D DUP4 PUSH2 0x130E JUMP JUMPDEST PUSH1 0x4 CALLDATALOAD DUP4 MSTORE PUSH1 0x1 DUP1 PUSH1 0xA0 SHL SUB DUP6 AND PUSH1 0x20 DUP5 ADD MSTORE CALLER PUSH1 0x40 DUP5 ADD MSTORE PUSH1 0x44 CALLDATALOAD PUSH1 0x60 DUP5 ADD MSTORE TIMESTAMP PUSH1 0x80 DUP5 ADD MSTORE PUSH1 0xA0 DUP4 ADD MSTORE DUP3 PUSH1 0xC0 DUP4 ADD MSTORE PUSH1 0x1 PUSH1 0xE0 DUP4 ADD MSTORE PUSH2 0x100 DUP3 ADD MSTORE PUSH1 0x4 CALLDATALOAD PUSH1 0x0 MSTORE PUSH1 0x3 PUSH1 0x20 MSTORE PUSH1 0x40 PUSH1 0x0 KECCAK256 DUP1 SLOAD PUSH1 0x1 PUSH1 0x40 SHL DUP2 LT ISZERO PUSH2 0x57F JUMPI PUSH2 0x399 SWAP2 PUSH1 0x1 DUP3 ADD DUP2 SSTORE PUSH2 0x1286 JUMP JUMPDEST SWAP2 SWAP1 SWAP2 PUSH2 0x71D JUMPI DUP1 MLOAD DUP3 SSTORE PUSH1 0x20 DUP2 ADD MLOAD PUSH1 0x1 DUP4 ADD DUP1 SLOAD PUSH1 0x1 PUSH1 0x1 PUSH1 0xA0 SHL SUB SWAP3 DUP4 AND PUSH1 0x1 PUSH1 0x1 PUSH1 0xA0 SHL SUB NOT SWAP2 DUP3 AND OR SWAP1 SWAP2 SSTORE PUSH1 0x40 DUP4 ADD MLOAD PUSH1 0x2 DUP6 ADD DUP1 SLOAD SWAP2 SWAP1 SWAP4 AND SWAP2 AND OR SWAP1 SSTORE PUSH1 0x60 DUP2 ADD MLOAD PUSH1 0x3 DUP4 ADD SSTORE PUSH1 0x80 DUP2 ADD MLOAD PUSH1 0x4 DUP4 ADD SSTORE PUSH1 0xA0 DUP2 ADD MLOAD PUSH1 0x5 DUP4 ADD SSTORE PUSH1 0xC0 DUP2 ADD MLOAD DUP1 MLOAD SWAP1 PUSH8 0xFFFFFFFFFFFFFFFF DUP3 GT PUSH2 0x57F JUMPI PUSH2 0x420 PUSH1 0x6 DUP6 ADD SLOAD PUSH2 0x12B8 JUMP JUMPDEST PUSH1 0x1F DUP2 GT PUSH2 0x6D6 JUMPI JUMPDEST POP PUSH1 0x20 SWAP1 PUSH1 0x1F DUP4 GT PUSH1 0x1 EQ PUSH2 0x662 JUMPI PUSH2 0x100 SWAP4 SWAP3 SWAP2 PUSH1 0x0 SWAP2 DUP4 PUSH2 0x657 JUMPI JUMPDEST POP POP DUP2 PUSH1 0x1 SHL SWAP2 PUSH1 0x0 NOT SWAP1 PUSH1 0x3 SHL SHR NOT AND OR PUSH1 0x6 DUP5 ADD SSTORE JUMPDEST PUSH2 0x47E PUSH1 0xE0 DUP3 ADD MLOAD ISZERO ISZERO PUSH1 0x7 DUP6 ADD SWAP1 PUSH1 0xFF DUP1 NOT DUP4 SLOAD AND SWAP2 ISZERO ISZERO AND OR SWAP1 SSTORE JUMP JUMPDEST ADD MLOAD DUP1 MLOAD SWAP1 PUSH8 0xFFFFFFFFFFFFFFFF DUP3 GT PUSH2 0x57F JUMPI PUSH2 0x49F PUSH1 0x8 DUP5 ADD SLOAD PUSH2 0x12B8 JUMP JUMPDEST PUSH1 0x1F DUP2 GT PUSH2 0x610 JUMPI JUMPDEST POP PUSH1 0x20 SWAP1 PUSH1 0x1F DUP4 GT PUSH1 0x1 EQ PUSH2 0x5A0 JUMPI PUSH1 0x8 SWAP3 SWAP2 PUSH1 0x0 SWAP2 DUP4 PUSH2 0x595 JUMPI JUMPDEST POP POP DUP2 PUSH1 0x1 SHL SWAP2 PUSH1 0x0 NOT SWAP1 PUSH1 0x3 SHL SHR NOT AND OR SWAP2 ADD SSTORE JUMPDEST PUSH1 0x1 PUSH1 0x1 PUSH1 0xA0 SHL SUB DUP3 AND PUSH1 0x0 SWAP1 DUP2 MSTORE PUSH1 0x5 PUSH1 0x20 MSTORE PUSH1 0x40 SWAP1 KECCAK256 DUP1 SLOAD PUSH1 0x1 PUSH1 0x40 SHL DUP2 LT ISZERO PUSH2 0x57F JUMPI PUSH2 0x50F SWAP2 PUSH1 0x1 DUP3 ADD DUP2 SSTORE PUSH2 0x145F JUMP JUMPDEST DUP2 SLOAD PUSH1 0x0 NOT PUSH1 0x3 SWAP3 SWAP1 SWAP3 SHL SWAP2 DUP3 SHL NOT AND PUSH1 0x4 CALLDATALOAD SWAP2 DUP3 SWAP1 SHL OR SWAP1 SWAP2 SSTORE PUSH1 0x40 DUP1 MLOAD PUSH1 0x44 CALLDATALOAD DUP2 MSTORE PUSH1 0x20 DUP2 ADD DUP3 SWAP1 MSTORE CALLER SWAP5 PUSH1 0x1 PUSH1 0x1 PUSH1 0xA0 SHL SUB AND SWAP4 PUSH32 0x16C8D9A2576B44FE024C75FE99348205ABC1D2A518BBBD0E9699E03BA09358BE SWAP3 DUP3 SWAP2 PUSH2 0x576 SWAP2 DUP4 ADD SWAP1 PUSH2 0x13F3 JUMP JUMPDEST SUB SWAP1 LOG4 PUSH1 0x1 DUP1 SSTORE STOP JUMPDEST PUSH4 0x4E487B71 PUSH1 0xE0 SHL PUSH1 0x0 MSTORE PUSH1 0x41 PUSH1 0x4 MSTORE PUSH1 0x24 PUSH1 0x0 REVERT JUMPDEST ADD MLOAD SWAP1 POP DUP7 DUP1 PUSH2 0x4C4 JUMP JUMPDEST SWAP1 PUSH1 0x8 DUP5 ADD PUSH1 0x0 MSTORE PUSH1 0x20 PUSH1 0x0 KECCAK256 SWAP2 PUSH1 0x0 JUMPDEST PUSH1 0x1F NOT DUP6 AND DUP2 LT PUSH2 0x5F8 JUMPI POP SWAP2 DUP4 SWAP2 PUSH1 0x1 SWAP4 PUSH1 0x8 SWAP6 PUSH1 0x1F NOT DUP2 AND LT PUSH2 0x5DF JUMPI JUMPDEST POP POP POP DUP2 SHL ADD SWAP2 ADD SSTORE PUSH2 0x4DA JUMP JUMPDEST ADD MLOAD PUSH1 0x0 NOT PUSH1 0xF8 DUP5 PUSH1 0x3 SHL AND SHR NOT AND SWAP1 SSTORE DUP7 DUP1 DUP1 PUSH2 0x5D1 JUMP JUMPDEST SWAP2 SWAP3 PUSH1 0x20 PUSH1 0x1 DUP2 SWAP3 DUP7 DUP6 ADD MLOAD DUP2 SSTORE ADD SWAP5 ADD SWAP3 ADD PUSH2 0x5B1 JUMP JUMPDEST PUSH1 0x8 DUP5 ADD PUSH1 0x0 MSTORE PUSH1 0x20 PUSH1 0x0 KECCAK256 PUSH1 0x1F DUP5 ADD PUSH1 0x5 SHR DUP2 ADD PUSH1 0x20 DUP6 LT PUSH2 0x650 JUMPI JUMPDEST PUSH1 0x1F DUP4 ADD PUSH1 0x5 SHR DUP3 ADD DUP2 LT PUSH2 0x644 JUMPI POP POP PUSH2 0x4A8 JUMP JUMPDEST PUSH1 0x0 DUP2 SSTORE PUSH1 0x1 ADD PUSH2 0x62E JUMP JUMPDEST POP DUP1 PUSH2 0x62E JUMP JUMPDEST ADD MLOAD SWAP1 POP DUP8 DUP1 PUSH2 0x447 JUMP JUMPDEST SWAP1 PUSH1 0x6 DUP6 ADD PUSH1 0x0 MSTORE PUSH1 0x20 PUSH1 0x0 KECCAK256 SWAP2 PUSH1 0x0 JUMPDEST PUSH1 0x1F NOT DUP6 AND DUP2 LT PUSH2 0x6BE JUMPI POP SWAP2 DUP4 SWAP2 PUSH1 0x1 SWAP4 PUSH2 0x100 SWAP7 SWAP6 PUSH1 0x1F NOT DUP2 AND LT PUSH2 0x6A5 JUMPI JUMPDEST POP POP POP DUP2 SHL ADD PUSH1 0x6 DUP5 ADD SSTORE PUSH2 0x45F JUMP JUMPDEST ADD MLOAD PUSH1 0x0 NOT PUSH1 0xF8 DUP5 PUSH1 0x3 SHL AND SHR NOT AND SWAP1 SSTORE DUP8 DUP1 DUP1 PUSH2 0x695 JUMP JUMPDEST SWAP2 SWAP3 PUSH1 0x20 PUSH1 0x1 DUP2 SWAP3 DUP7 DUP6 ADD MLOAD DUP2 SSTORE ADD SWAP5 ADD SWAP3 ADD PUSH2 0x673 JUMP JUMPDEST PUSH1 0x6 DUP6 ADD PUSH1 0x0 MSTORE PUSH1 0x20 PUSH1 0x0 KECCAK256 PUSH1 0x1F DUP5 ADD PUSH1 0x5 SHR DUP2 ADD PUSH1 0x20 DUP6 LT PUSH2 0x716 JUMPI JUMPDEST PUSH1 0x1F DUP4 ADD PUSH1 0x5 SHR DUP3 ADD DUP2 LT PUSH2 0x70A JUMPI POP POP PUSH2 0x429 JUMP JUMPDEST PUSH1 0x0 DUP2 SSTORE PUSH1 0x1 ADD PUSH2 0x6F4 JUMP JUMPDEST POP DUP1 PUSH2 0x6F4 JUMP JUMPDEST PUSH4 0x4E487B71 PUSH1 0xE0 SHL PUSH1 0x0 MSTORE PUSH1 0x0 PUSH1 0x4 MSTORE PUSH1 0x24 PUSH1 0x0 REVERT JUMPDEST PUSH4 0x4E487B71 PUSH1 0xE0 SHL PUSH1 0x0 MSTORE PUSH1 0x11 PUSH1 0x4 MSTORE PUSH1 0x24 PUSH1 0x0 REVERT JUMPDEST PUSH1 0x40 MLOAD PUSH3 0x461BCD PUSH1 0xE5 SHL DUP2 MSTORE PUSH1 0x20 PUSH1 0x4 DUP3 ADD MSTORE PUSH1 0x1F PUSH1 0x24 DUP3 ADD MSTORE PUSH32 0x4475726174696F6E206D7573742062652067726561746572207468616E203000 PUSH1 0x44 DUP3 ADD MSTORE PUSH1 0x64 SWAP1 REVERT JUMPDEST PUSH1 0x40 MLOAD PUSH3 0x461BCD PUSH1 0xE5 SHL DUP2 MSTORE PUSH1 0x20 PUSH1 0x4 DUP3 ADD MSTORE PUSH1 0x1C PUSH1 0x24 DUP3 ADD MSTORE PUSH32 0x5072696365206D7573742062652067726561746572207468616E203000000000 PUSH1 0x44 DUP3 ADD MSTORE PUSH1 0x64 SWAP1 REVERT JUMPDEST PUSH1 0x40 MLOAD PUSH3 0x461BCD PUSH1 0xE5 SHL DUP2 MSTORE PUSH1 0x20 PUSH1 0x4 DUP3 ADD MSTORE PUSH1 0x18 PUSH1 0x24 DUP3 ADD MSTORE PUSH32 0x496E76616C6964206C6963656E73656520616464726573730000000000000000 PUSH1 0x44 DUP3 ADD MSTORE PUSH1 0x64 SWAP1 REVERT JUMPDEST PUSH2 0x83A SWAP2 POP PUSH1 0x20 RETURNDATASIZE PUSH1 0x20 GT PUSH2 0x840 JUMPI JUMPDEST PUSH2 0x832 DUP2 DUP4 PUSH2 0x132B JUMP JUMPDEST DUP2 ADD SWAP1 PUSH2 0x157B JUMP JUMPDEST DUP6 PUSH2 0x2E5 JUMP JUMPDEST POP RETURNDATASIZE PUSH2 0x828 JUMP JUMPDEST CALLVALUE PUSH2 0x116 JUMPI PUSH1 0x40 CALLDATASIZE PUSH1 0x3 NOT ADD SLT PUSH2 0x116 JUMPI PUSH2 0x882 PUSH2 0x86E PUSH2 0x866 PUSH2 0x1449 JUMP JUMPDEST PUSH1 0x4 CALLDATALOAD PUSH2 0x16E6 JUMP JUMPDEST PUSH1 0x40 MLOAD SWAP2 DUP3 SWAP2 PUSH1 0x20 DUP4 MSTORE PUSH1 0x20 DUP4 ADD SWAP1 PUSH2 0x1477 JUMP JUMPDEST SUB SWAP1 RETURN JUMPDEST CALLVALUE PUSH2 0x116 JUMPI PUSH1 0x0 CALLDATASIZE PUSH1 0x3 NOT ADD SLT PUSH2 0x116 JUMPI PUSH1 0x0 SLOAD PUSH1 0x40 MLOAD PUSH1 0x1 PUSH1 0x1 PUSH1 0xA0 SHL SUB SWAP1 SWAP2 AND DUP2 MSTORE PUSH1 0x20 SWAP1 RETURN JUMPDEST CALLVALUE PUSH2 0x116 JUMPI PUSH1 0x20 CALLDATASIZE PUSH1 0x3 NOT ADD SLT PUSH2 0x116 JUMPI PUSH2 0x8C8 PUSH2 0x1433 JUMP JUMPDEST PUSH2 0x8D0 PUSH2 0x154F JUMP JUMPDEST PUSH1 0x1 PUSH1 0x1 PUSH1 0xA0 SHL SUB AND DUP1 ISZERO PUSH2 0x8F7 JUMPI PUSH1 0x1 PUSH1 0x1 PUSH1 0x60 SHL SUB PUSH1 0xA0 SHL PUSH1 0x7 SLOAD AND OR PUSH1 0x7 SSTORE PUSH1 0x0 DUP1 RETURN JUMPDEST PUSH1 0x40 MLOAD PUSH3 0x461BCD PUSH1 0xE5 SHL DUP2 MSTORE PUSH1 0x20 PUSH1 0x4 DUP3 ADD MSTORE PUSH1 0x16 PUSH1 0x24 DUP3 ADD MSTORE PUSH22 0x496E76616C69642077616C6C65742061646472657373 PUSH1 0x50 SHL PUSH1 0x44 DUP3 ADD MSTORE PUSH1 0x64 SWAP1 REVERT JUMPDEST CALLVALUE PUSH2 0x116 JUMPI PUSH1 0x60 CALLDATASIZE PUSH1 0x3 NOT ADD SLT PUSH2 0x116 JUMPI PUSH1 0x4 CALLDATALOAD PUSH2 0x951 PUSH2 0x1449 JUMP JUMPDEST PUSH1 0x2 SLOAD PUSH1 0x40 MLOAD PUSH4 0x31A9108F PUSH1 0xE1 SHL DUP2 MSTORE PUSH1 0x4 DUP2 ADD DUP5 SWAP1 MSTORE PUSH1 0x1 PUSH1 0x1 PUSH1 0xA0 SHL SUB SWAP4 SWAP3 PUSH1 0x20 SWAP3 PUSH1 0x44 CALLDATALOAD SWAP3 SWAP2 SWAP1 DUP5 SWAP1 DUP4 SWAP1 PUSH1 0x24 SWAP1 DUP3 SWAP1 DUP11 AND GAS STATICCALL SWAP2 DUP3 ISZERO PUSH2 0x1DF JUMPI DUP7 SWAP3 PUSH2 0x9A7 SWAP2 PUSH1 0x0 SWAP2 PUSH2 0xADC JUMPI JUMPDEST POP DUP4 AND CALLER EQ PUSH2 0x159A JUMP JUMPDEST AND SWAP4 DUP5 ISZERO PUSH2 0xA97 JUMPI PUSH2 0x3E8 DUP3 GT PUSH2 0xA46 JUMPI SWAP1 PUSH2 0xA3D PUSH32 0x49018CA4B3B4F0C8442E69B201303BB7F7919A14033768CE71AD07BA63A348A3 SWAP4 SWAP3 PUSH1 0x2 PUSH1 0x40 MLOAD SWAP2 PUSH2 0x9EE DUP4 PUSH2 0x12F2 JUMP JUMPDEST DUP9 DUP4 MSTORE DUP6 DUP4 ADD DUP6 DUP2 MSTORE PUSH1 0x40 DUP5 ADD SWAP2 PUSH1 0x1 DUP4 MSTORE DUP10 PUSH1 0x0 MSTORE PUSH1 0x4 DUP9 MSTORE PUSH1 0x40 PUSH1 0x0 KECCAK256 SWAP5 MLOAD AND PUSH1 0x1 PUSH1 0x1 PUSH1 0x60 SHL SUB PUSH1 0xA0 SHL DUP6 SLOAD AND OR DUP5 SSTORE MLOAD PUSH1 0x1 DUP5 ADD SSTORE MLOAD ISZERO ISZERO SWAP2 ADD SWAP1 PUSH1 0xFF DUP1 NOT DUP4 SLOAD AND SWAP2 ISZERO ISZERO AND OR SWAP1 SSTORE JUMP JUMPDEST PUSH1 0x40 MLOAD SWAP1 DUP2 MSTORE LOG3 STOP JUMPDEST PUSH1 0x40 MLOAD PUSH3 0x461BCD PUSH1 0xE5 SHL DUP2 MSTORE PUSH1 0x4 DUP2 ADD DUP5 SWAP1 MSTORE PUSH1 0x24 DUP1 DUP3 ADD MSTORE PUSH32 0x526F79616C74792070657263656E746167652063616E6E6F7420657863656564 PUSH1 0x44 DUP3 ADD MSTORE PUSH4 0x20313025 PUSH1 0xE0 SHL PUSH1 0x64 DUP3 ADD MSTORE PUSH1 0x84 SWAP1 REVERT JUMPDEST PUSH1 0x40 MLOAD PUSH3 0x461BCD PUSH1 0xE5 SHL DUP2 MSTORE PUSH1 0x4 DUP2 ADD DUP5 SWAP1 MSTORE PUSH1 0x19 PUSH1 0x24 DUP3 ADD MSTORE PUSH32 0x496E76616C696420726563697069656E74206164647265737300000000000000 PUSH1 0x44 DUP3 ADD MSTORE PUSH1 0x64 SWAP1 REVERT JUMPDEST PUSH2 0xAF3 SWAP2 POP DUP7 RETURNDATASIZE DUP9 GT PUSH2 0x840 JUMPI PUSH2 0x832 DUP2 DUP4 PUSH2 0x132B JUMP JUMPDEST DUP9 PUSH2 0x99D JUMP JUMPDEST CALLVALUE PUSH2 0x116 JUMPI PUSH1 0x20 DUP1 PUSH1 0x3 NOT CALLDATASIZE ADD SLT PUSH2 0x116 JUMPI PUSH1 0x1 PUSH1 0x1 PUSH1 0xA0 SHL SUB PUSH2 0xB1B PUSH2 0x1433 JUMP JUMPDEST AND PUSH1 0x0 MSTORE PUSH1 0x5 DUP2 MSTORE PUSH1 0x40 PUSH1 0x0 KECCAK256 PUSH1 0x40 MLOAD SWAP1 DUP2 DUP4 DUP3 SLOAD SWAP2 DUP3 DUP2 MSTORE ADD SWAP1 DUP2 SWAP3 PUSH1 0x0 MSTORE DUP5 PUSH1 0x0 KECCAK256 SWAP1 PUSH1 0x0 JUMPDEST DUP7 DUP3 DUP3 LT PUSH2 0xB99 JUMPI DUP7 DUP7 PUSH2 0xB59 DUP3 DUP9 SUB DUP4 PUSH2 0x132B JUMP JUMPDEST PUSH1 0x40 MLOAD SWAP3 DUP4 SWAP3 DUP2 DUP5 ADD SWAP1 DUP3 DUP6 MSTORE MLOAD DUP1 SWAP2 MSTORE PUSH1 0x40 DUP5 ADD SWAP3 SWAP2 PUSH1 0x0 JUMPDEST DUP3 DUP2 LT PUSH2 0xB82 JUMPI POP POP POP POP SUB SWAP1 RETURN JUMPDEST DUP4 MLOAD DUP6 MSTORE DUP7 SWAP6 POP SWAP4 DUP2 ADD SWAP4 SWAP3 DUP2 ADD SWAP3 PUSH1 0x1 ADD PUSH2 0xB73 JUMP JUMPDEST DUP4 SLOAD DUP6 MSTORE SWAP1 SWAP4 ADD SWAP3 PUSH1 0x1 SWAP3 DUP4 ADD SWAP3 ADD PUSH2 0xB43 JUMP JUMPDEST CALLVALUE PUSH2 0x116 JUMPI PUSH1 0x0 CALLDATASIZE PUSH1 0x3 NOT ADD SLT PUSH2 0x116 JUMPI PUSH2 0xBC6 PUSH2 0x154F JUMP JUMPDEST PUSH1 0x0 DUP1 SLOAD PUSH1 0x1 PUSH1 0x1 PUSH1 0xA0 SHL SUB NOT DUP2 AND DUP3 SSTORE PUSH1 0x1 PUSH1 0x1 PUSH1 0xA0 SHL SUB AND PUSH32 0x8BE0079C531659141344CD1FD0A4F28419497F9722A3DAAFE3B4186F6B6457E0 DUP3 DUP1 LOG3 STOP JUMPDEST CALLVALUE PUSH2 0x116 JUMPI PUSH1 0x20 DUP1 PUSH1 0x3 NOT CALLDATASIZE ADD SLT PUSH2 0x116 JUMPI PUSH1 0x4 CALLDATALOAD PUSH1 0x0 MSTORE PUSH1 0x3 DUP2 MSTORE PUSH1 0x40 PUSH1 0x0 KECCAK256 DUP1 SLOAD SWAP1 PUSH8 0xFFFFFFFFFFFFFFFF DUP3 GT PUSH2 0x57F JUMPI DUP3 SWAP1 PUSH1 0x40 MLOAD SWAP3 PUSH2 0xC4E DUP4 DUP3 PUSH1 0x5 SHL ADD DUP6 PUSH2 0x132B JUMP JUMPDEST DUP1 DUP5 MSTORE DUP3 DUP5 ADD DUP1 SWAP3 PUSH1 0x0 MSTORE DUP4 PUSH1 0x0 KECCAK256 PUSH1 0x0 SWAP2 JUMPDEST DUP4 DUP4 LT PUSH2 0xCC8 JUMPI POP POP POP POP PUSH1 0x40 MLOAD SWAP2 DUP1 DUP4 ADD SWAP4 DUP2 DUP5 MSTORE MLOAD DUP1 SWAP5 MSTORE PUSH1 0x40 DUP4 ADD SWAP4 PUSH1 0x40 DUP2 PUSH1 0x5 SHL DUP6 ADD ADD SWAP3 SWAP2 PUSH1 0x0 SWAP6 JUMPDEST DUP3 DUP8 LT PUSH2 0xC9C JUMPI DUP6 DUP6 SUB DUP7 RETURN JUMPDEST SWAP1 SWAP2 SWAP3 SWAP4 DUP3 DUP1 PUSH2 0xCB8 PUSH1 0x1 SWAP4 PUSH1 0x3F NOT DUP11 DUP3 SUB ADD DUP7 MSTORE DUP9 MLOAD PUSH2 0x1477 JUMP JUMPDEST SWAP7 ADD SWAP3 ADD SWAP7 ADD SWAP6 SWAP3 SWAP2 SWAP1 SWAP3 PUSH2 0xC8F JUMP JUMPDEST PUSH1 0x9 DUP7 PUSH1 0x1 SWAP3 PUSH2 0xCDA DUP6 SWAP11 SWAP10 SWAP11 PUSH2 0x1664 JUMP JUMPDEST DUP2 MSTORE ADD SWAP3 ADD SWAP3 ADD SWAP2 SWAP1 SWAP6 SWAP5 SWAP6 PUSH2 0xC61 JUMP JUMPDEST CALLVALUE PUSH2 0x116 JUMPI PUSH1 0x0 CALLDATASIZE PUSH1 0x3 NOT ADD SLT PUSH2 0x116 JUMPI PUSH1 0x2 SLOAD PUSH1 0x40 MLOAD PUSH1 0x1 PUSH1 0x1 PUSH1 0xA0 SHL SUB SWAP1 SWAP2 AND DUP2 MSTORE PUSH1 0x20 SWAP1 RETURN JUMPDEST CALLVALUE PUSH2 0x116 JUMPI PUSH2 0xD54 PUSH2 0xD25 CALLDATASIZE PUSH2 0x1270 JUMP JUMPDEST DUP2 PUSH1 0x0 SWAP4 SWAP3 SWAP4 MSTORE PUSH1 0x3 PUSH1 0x20 MSTORE PUSH2 0xD41 PUSH1 0x40 PUSH1 0x0 KECCAK256 SLOAD DUP3 LT PUSH2 0x15FF JUMP JUMPDEST DUP3 PUSH1 0x0 MSTORE PUSH1 0x3 PUSH1 0x20 MSTORE PUSH1 0x40 PUSH1 0x0 KECCAK256 PUSH2 0x1286 JUMP JUMPDEST POP PUSH1 0x2 DUP2 ADD SLOAD SWAP1 SWAP2 SWAP1 PUSH1 0x1 PUSH1 0x1 PUSH1 0xA0 SHL SUB SWAP1 DUP2 AND CALLER SUB PUSH2 0xDF7 JUMPI PUSH1 0x7 DUP4 ADD DUP1 SLOAD PUSH1 0xFF DUP2 AND ISZERO PUSH2 0xDB2 JUMPI PUSH1 0xFF NOT AND SWAP1 SSTORE PUSH1 0x1 CALLER SWAP4 ADD SLOAD AND SWAP1 PUSH32 0x58982691F8028698415B80190AD6B11BB594D64A5AD0FE9A1CEC01E61C8AFCDD PUSH1 0x0 DUP1 LOG4 STOP JUMPDEST PUSH1 0x40 MLOAD PUSH3 0x461BCD PUSH1 0xE5 SHL DUP2 MSTORE PUSH1 0x20 PUSH1 0x4 DUP3 ADD MSTORE PUSH1 0x1B PUSH1 0x24 DUP3 ADD MSTORE PUSH32 0x4C6963656E736520697320616C726561647920696E6163746976650000000000 PUSH1 0x44 DUP3 ADD MSTORE PUSH1 0x64 SWAP1 REVERT JUMPDEST PUSH1 0x40 MLOAD PUSH3 0x461BCD PUSH1 0xE5 SHL DUP2 MSTORE PUSH1 0x20 PUSH1 0x4 DUP3 ADD MSTORE PUSH1 0x10 PUSH1 0x24 DUP3 ADD MSTORE PUSH16 0x2737BA103A3432903634B1B2B739B7B9 PUSH1 0x81 SHL PUSH1 0x44 DUP3 ADD MSTORE PUSH1 0x64 SWAP1 REVERT JUMPDEST CALLVALUE PUSH2 0x116 JUMPI PUSH1 0x40 CALLDATASIZE PUSH1 0x3 NOT ADD SLT PUSH2 0x116 JUMPI PUSH2 0xE48 PUSH2 0x1433 JUMP JUMPDEST PUSH1 0x1 PUSH1 0x1 PUSH1 0xA0 SHL SUB AND PUSH1 0x0 SWAP1 DUP2 MSTORE PUSH1 0x5 PUSH1 0x20 MSTORE PUSH1 0x40 SWAP1 KECCAK256 DUP1 SLOAD PUSH1 0x24 CALLDATALOAD SWAP2 SWAP1 DUP3 LT ISZERO PUSH2 0x116 JUMPI PUSH1 0x20 SWAP2 PUSH2 0xE79 SWAP2 PUSH2 0x145F JUMP JUMPDEST SWAP1 SLOAD PUSH1 0x40 MLOAD SWAP2 PUSH1 0x3 SHL SHR DUP2 MSTORE RETURN JUMPDEST CALLVALUE PUSH2 0x116 JUMPI PUSH1 0x0 CALLDATASIZE PUSH1 0x3 NOT ADD SLT PUSH2 0x116 JUMPI PUSH1 0x20 PUSH1 0x6 SLOAD PUSH1 0x40 MLOAD SWAP1 DUP2 MSTORE RETURN JUMPDEST CALLVALUE PUSH2 0x116 JUMPI PUSH2 0xEB3 CALLDATASIZE PUSH2 0x1270 JUMP JUMPDEST SWAP1 PUSH1 0x0 MSTORE PUSH1 0x3 PUSH1 0x20 MSTORE PUSH1 0x40 PUSH1 0x0 KECCAK256 SWAP1 DUP2 SLOAD DUP2 LT ISZERO PUSH2 0x116 JUMPI PUSH2 0xED4 SWAP2 PUSH2 0x1286 JUMP JUMPDEST POP DUP1 SLOAD PUSH2 0x882 PUSH1 0x1 DUP1 PUSH1 0xA0 SHL SUB SWAP3 DUP4 PUSH1 0x1 DUP3 ADD SLOAD AND SWAP4 PUSH1 0x2 DUP3 ADD SLOAD AND PUSH2 0xF57 PUSH1 0x3 DUP4 ADD SLOAD PUSH1 0x4 DUP5 ADD SLOAD PUSH1 0x5 DUP6 ADD SLOAD SWAP1 PUSH2 0xF0F PUSH1 0x6 DUP8 ADD PUSH2 0x134D JUMP JUMPDEST SWAP3 PUSH2 0xF24 PUSH1 0x8 PUSH1 0xFF PUSH1 0x7 DUP11 ADD SLOAD AND SWAP9 ADD PUSH2 0x134D JUMP JUMPDEST SWAP6 PUSH1 0x40 MLOAD SWAP11 DUP12 SWAP11 DUP12 MSTORE PUSH1 0x20 DUP12 ADD MSTORE PUSH1 0x40 DUP11 ADD MSTORE PUSH1 0x60 DUP10 ADD MSTORE PUSH1 0x80 DUP9 ADD MSTORE PUSH1 0xA0 DUP8 ADD MSTORE PUSH2 0x120 DUP1 PUSH1 0xC0 DUP9 ADD MSTORE DUP7 ADD SWAP1 PUSH2 0x13F3 JUMP JUMPDEST SWAP2 ISZERO ISZERO PUSH1 0xE0 DUP6 ADD MSTORE DUP4 DUP3 SUB PUSH2 0x100 DUP6 ADD MSTORE PUSH2 0x13F3 JUMP JUMPDEST CALLVALUE PUSH2 0x116 JUMPI PUSH1 0x20 CALLDATASIZE PUSH1 0x3 NOT ADD SLT PUSH2 0x116 JUMPI PUSH1 0x4 CALLDATALOAD PUSH2 0xF89 PUSH2 0x154F JUMP JUMPDEST PUSH2 0x3E8 DUP2 GT PUSH2 0xF97 JUMPI PUSH1 0x6 SSTORE STOP JUMPDEST PUSH1 0x40 MLOAD PUSH3 0x461BCD PUSH1 0xE5 SHL DUP2 MSTORE PUSH1 0x20 PUSH1 0x4 DUP3 ADD MSTORE PUSH1 0x1E PUSH1 0x24 DUP3 ADD MSTORE PUSH32 0x506C6174666F726D206665652063616E6E6F7420657863656564203130250000 PUSH1 0x44 DUP3 ADD MSTORE PUSH1 0x64 SWAP1 REVERT JUMPDEST PUSH2 0xFE5 CALLDATASIZE PUSH2 0x1270 JUMP JUMPDEST SWAP1 PUSH2 0xFEE PUSH2 0x15DC JUMP JUMPDEST DUP1 PUSH1 0x0 MSTORE PUSH2 0x101E PUSH1 0x20 SWAP3 PUSH1 0x3 DUP5 MSTORE PUSH2 0x100C PUSH1 0x40 PUSH1 0x0 KECCAK256 SLOAD DUP3 LT PUSH2 0x15FF JUMP JUMPDEST DUP3 PUSH1 0x0 MSTORE PUSH1 0x3 DUP5 MSTORE PUSH1 0x40 PUSH1 0x0 KECCAK256 PUSH2 0x1286 JUMP JUMPDEST POP PUSH1 0xFF PUSH1 0x7 DUP3 ADD SLOAD AND ISZERO PUSH2 0x1233 JUMPI PUSH1 0x1 DUP2 ADD SLOAD PUSH1 0x1 PUSH1 0x1 PUSH1 0xA0 SHL SUB SWAP2 SWAP1 DUP3 AND CALLER SUB PUSH2 0x11EE JUMPI PUSH1 0x3 DUP2 ADD SLOAD SWAP4 DUP5 CALLVALUE LT PUSH2 0x11B3 JUMPI PUSH1 0x5 DUP3 ADD SLOAD TIMESTAMP GT PUSH2 0x1179 JUMPI PUSH2 0x2710 SWAP2 PUSH1 0x0 DUP1 DUP1 DUP1 PUSH2 0x107C DUP8 PUSH2 0x1074 PUSH1 0x6 SLOAD DUP14 PUSH2 0x1644 JUMP JUMPDEST DIV DUP1 SWAP12 PUSH2 0x1657 JUMP JUMPDEST SWAP10 DUP9 PUSH1 0x7 SLOAD AND DUP3 DUP3 ISZERO PUSH2 0x1170 JUMPI JUMPDEST CALL ISZERO PUSH2 0x1DF JUMPI PUSH1 0x2 ADD SWAP4 PUSH1 0x0 DUP1 DUP1 DUP1 DUP10 DUP9 DUP11 SLOAD AND DUP3 DUP3 ISZERO PUSH2 0x1167 JUMPI JUMPDEST CALL ISZERO PUSH2 0x1DF JUMPI PUSH1 0x0 MSTORE PUSH1 0x4 DUP2 MSTORE PUSH1 0x40 PUSH1 0x0 KECCAK256 PUSH1 0xFF PUSH1 0x2 PUSH1 0x40 MLOAD SWAP3 PUSH2 0x10C9 DUP5 PUSH2 0x12F2 JUMP JUMPDEST DUP7 DUP2 SLOAD AND DUP5 MSTORE PUSH1 0x1 DUP2 ADD SLOAD DUP1 SWAP6 DUP6 ADD MSTORE ADD SLOAD AND ISZERO ISZERO DUP1 PUSH1 0x40 DUP4 ADD MSTORE DUP1 PUSH2 0x115E JUMPI JUMPDEST PUSH2 0x10F5 JUMPI JUMPDEST PUSH1 0x1 DUP1 SSTORE STOP JUMPDEST PUSH1 0x0 DUP1 DUP1 SWAP4 SWAP3 DUP7 SWAP6 PUSH2 0x1108 DUP4 SWAP6 DUP12 PUSH2 0x1644 JUMP JUMPDEST DIV SWAP7 DUP8 SWAP2 MLOAD AND DUP3 DUP3 ISZERO PUSH2 0x1155 JUMPI JUMPDEST CALL ISZERO PUSH2 0x1DF JUMPI PUSH1 0x0 SWAP4 PUSH2 0x1132 DUP6 SWAP5 SWAP4 DUP6 SWAP5 SWAP4 DUP6 SWAP5 SLOAD AND SWAP3 PUSH2 0x1657 JUMP JUMPDEST SWAP1 DUP3 DUP3 ISZERO PUSH2 0x114C JUMPI JUMPDEST CALL ISZERO PUSH2 0x1DF JUMPI DUP1 DUP1 DUP1 DUP1 DUP1 DUP1 PUSH2 0x10EF JUMP JUMPDEST POP PUSH2 0x8FC PUSH2 0x113B JUMP JUMPDEST POP PUSH2 0x8FC PUSH2 0x1116 JUMP JUMPDEST POP DUP2 ISZERO ISZERO PUSH2 0x10EA JUMP JUMPDEST POP PUSH2 0x8FC PUSH2 0x10A6 JUMP JUMPDEST POP PUSH2 0x8FC PUSH2 0x108A JUMP JUMPDEST PUSH1 0x64 SWAP1 PUSH1 0x40 MLOAD SWAP1 PUSH3 0x461BCD PUSH1 0xE5 SHL DUP3 MSTORE PUSH1 0x4 DUP3 ADD MSTORE PUSH1 0x13 PUSH1 0x24 DUP3 ADD MSTORE PUSH19 0x131A58D95B9CD9481A185CC8195E1C1A5C9959 PUSH1 0x6A SHL PUSH1 0x44 DUP3 ADD MSTORE REVERT JUMPDEST PUSH1 0x64 SWAP1 PUSH1 0x40 MLOAD SWAP1 PUSH3 0x461BCD PUSH1 0xE5 SHL DUP3 MSTORE PUSH1 0x4 DUP3 ADD MSTORE PUSH1 0x14 PUSH1 0x24 DUP3 ADD MSTORE PUSH20 0x125B9CDD59999A58DA595B9D081C185E5B595B9D PUSH1 0x62 SHL PUSH1 0x44 DUP3 ADD MSTORE REVERT JUMPDEST PUSH1 0x40 MLOAD PUSH3 0x461BCD PUSH1 0xE5 SHL DUP2 MSTORE PUSH1 0x4 DUP2 ADD DUP6 SWAP1 MSTORE PUSH1 0x19 PUSH1 0x24 DUP3 ADD MSTORE PUSH32 0x4E6F742074686520696E74656E646564206C6963656E73656500000000000000 PUSH1 0x44 DUP3 ADD MSTORE PUSH1 0x64 SWAP1 REVERT JUMPDEST PUSH1 0x40 MLOAD PUSH3 0x461BCD PUSH1 0xE5 SHL DUP2 MSTORE PUSH1 0x4 DUP2 ADD DUP5 SWAP1 MSTORE PUSH1 0x15 PUSH1 0x24 DUP3 ADD MSTORE PUSH21 0x4C6963656E7365206973206E6F7420616374697665 PUSH1 0x58 SHL PUSH1 0x44 DUP3 ADD MSTORE PUSH1 0x64 SWAP1 REVERT JUMPDEST PUSH1 0x40 SWAP1 PUSH1 0x3 NOT ADD SLT PUSH2 0x116 JUMPI PUSH1 0x4 CALLDATALOAD SWAP1 PUSH1 0x24 CALLDATALOAD SWAP1 JUMP JUMPDEST DUP1 SLOAD DUP3 LT ISZERO PUSH2 0x12A2 JUMPI PUSH1 0x0 MSTORE PUSH1 0x9 PUSH1 0x20 PUSH1 0x0 KECCAK256 SWAP2 MUL ADD SWAP1 PUSH1 0x0 SWAP1 JUMP JUMPDEST PUSH4 0x4E487B71 PUSH1 0xE0 SHL PUSH1 0x0 MSTORE PUSH1 0x32 PUSH1 0x4 MSTORE PUSH1 0x24 PUSH1 0x0 REVERT JUMPDEST SWAP1 PUSH1 0x1 DUP3 DUP2 SHR SWAP3 AND DUP1 ISZERO PUSH2 0x12E8 JUMPI JUMPDEST PUSH1 0x20 DUP4 LT EQ PUSH2 0x12D2 JUMPI JUMP JUMPDEST PUSH4 0x4E487B71 PUSH1 0xE0 SHL PUSH1 0x0 MSTORE PUSH1 0x22 PUSH1 0x4 MSTORE PUSH1 0x24 PUSH1 0x0 REVERT JUMPDEST SWAP2 PUSH1 0x7F AND SWAP2 PUSH2 0x12C7 JUMP JUMPDEST PUSH1 0x60 DUP2 ADD SWAP1 DUP2 LT PUSH8 0xFFFFFFFFFFFFFFFF DUP3 GT OR PUSH2 0x57F JUMPI PUSH1 0x40 MSTORE JUMP JUMPDEST PUSH2 0x120 DUP2 ADD SWAP1 DUP2 LT PUSH8 0xFFFFFFFFFFFFFFFF DUP3 GT OR PUSH2 0x57F JUMPI PUSH1 0x40 MSTORE JUMP JUMPDEST SWAP1 PUSH1 0x1F DUP1 NOT SWAP2 ADD AND DUP2 ADD SWAP1 DUP2 LT PUSH8 0xFFFFFFFFFFFFFFFF DUP3 GT OR PUSH2 0x57F JUMPI PUSH1 0x40 MSTORE JUMP JUMPDEST SWAP1 PUSH1 0x40 MLOAD SWAP2 DUP3 PUSH1 0x0 DUP3 SLOAD SWAP3 PUSH2 0x1361 DUP5 PUSH2 0x12B8 JUMP JUMPDEST SWAP1 DUP2 DUP5 MSTORE PUSH1 0x1 SWAP5 DUP6 DUP2 AND SWAP1 DUP2 PUSH1 0x0 EQ PUSH2 0x13D0 JUMPI POP PUSH1 0x1 EQ PUSH2 0x138D JUMPI JUMPDEST POP POP PUSH2 0x138B SWAP3 POP SUB DUP4 PUSH2 0x132B JUMP JUMPDEST JUMP JUMPDEST SWAP1 SWAP4 SWAP2 POP PUSH1 0x0 MSTORE PUSH1 0x20 SWAP1 DUP2 PUSH1 0x0 KECCAK256 SWAP4 PUSH1 0x0 SWAP2 JUMPDEST DUP2 DUP4 LT PUSH2 0x13B8 JUMPI POP POP PUSH2 0x138B SWAP4 POP DUP3 ADD ADD CODESIZE DUP1 PUSH2 0x137D JUMP JUMPDEST DUP6 SLOAD DUP9 DUP5 ADD DUP6 ADD MSTORE SWAP5 DUP6 ADD SWAP5 DUP8 SWAP5 POP SWAP2 DUP4 ADD SWAP2 PUSH2 0x13A0 JUMP JUMPDEST SWAP2 POP POP PUSH2 0x138B SWAP5 POP PUSH1 0x20 SWAP3 POP PUSH1 0xFF NOT AND DUP3 DUP5 ADD MSTORE ISZERO ISZERO PUSH1 0x5 SHL DUP3 ADD ADD CODESIZE DUP1 PUSH2 0x137D JUMP JUMPDEST SWAP2 SWAP1 DUP3 MLOAD SWAP3 DUP4 DUP3 MSTORE PUSH1 0x0 JUMPDEST DUP5 DUP2 LT PUSH2 0x141F JUMPI POP POP DUP3 PUSH1 0x0 PUSH1 0x20 DUP1 SWAP5 SWAP6 DUP5 ADD ADD MSTORE PUSH1 0x1F DUP1 NOT SWAP2 ADD AND ADD ADD SWAP1 JUMP JUMPDEST PUSH1 0x20 DUP2 DUP4 ADD DUP2 ADD MLOAD DUP5 DUP4 ADD DUP3 ADD MSTORE ADD PUSH2 0x13FE JUMP JUMPDEST PUSH1 0x4 CALLDATALOAD SWAP1 PUSH1 0x1 PUSH1 0x1 PUSH1 0xA0 SHL SUB DUP3 AND DUP3 SUB PUSH2 0x116 JUMPI JUMP JUMPDEST PUSH1 0x24 CALLDATALOAD SWAP1 PUSH1 0x1 PUSH1 0x1 PUSH1 0xA0 SHL SUB DUP3 AND DUP3 SUB PUSH2 0x116 JUMPI JUMP JUMPDEST DUP1 SLOAD DUP3 LT ISZERO PUSH2 0x12A2 JUMPI PUSH1 0x0 MSTORE PUSH1 0x20 PUSH1 0x0 KECCAK256 ADD SWAP1 PUSH1 0x0 SWAP1 JUMP JUMPDEST SWAP1 PUSH2 0x14F5 SWAP2 DUP1 MLOAD DUP3 MSTORE PUSH1 0x1 DUP1 PUSH1 0xA0 SHL SUB DUP1 PUSH1 0x20 DUP4 ADD MLOAD AND PUSH1 0x20 DUP5 ADD MSTORE PUSH1 0x40 DUP3 ADD MLOAD AND PUSH1 0x40 DUP4 ADD MSTORE PUSH1 0x60 DUP2 ADD MLOAD PUSH1 0x60 DUP4 ADD MSTORE PUSH1 0x80 DUP2 ADD MLOAD PUSH1 0x80 DUP4 ADD MSTORE PUSH1 0xA0 DUP2 ADD MLOAD PUSH1 0xA0 DUP4 ADD MSTORE PUSH2 0x14D5 PUSH1 0xC0 DUP3 ADD MLOAD PUSH2 0x120 DUP1 PUSH1 0xC0 DUP7 ADD MSTORE DUP5 ADD SWAP1 PUSH2 0x13F3 JUMP JUMPDEST SWAP2 PUSH1 0xE0 DUP3 ADD MLOAD ISZERO ISZERO PUSH1 0xE0 DUP3 ADD MSTORE PUSH2 0x100 DUP1 SWAP3 ADD MLOAD SWAP2 DUP2 DUP5 SUB SWAP2 ADD MSTORE PUSH2 0x13F3 JUMP JUMPDEST SWAP1 JUMP JUMPDEST DUP2 PUSH1 0x1F DUP3 ADD SLT ISZERO PUSH2 0x116 JUMPI DUP1 CALLDATALOAD SWAP1 PUSH8 0xFFFFFFFFFFFFFFFF DUP3 GT PUSH2 0x57F JUMPI PUSH1 0x40 MLOAD SWAP3 PUSH2 0x152D PUSH1 0x1F DUP5 ADD PUSH1 0x1F NOT AND PUSH1 0x20 ADD DUP6 PUSH2 0x132B JUMP JUMPDEST DUP3 DUP5 MSTORE PUSH1 0x20 DUP4 DUP4 ADD ADD GT PUSH2 0x116 JUMPI DUP2 PUSH1 0x0 SWAP3 PUSH1 0x20 DUP1 SWAP4 ADD DUP4 DUP7 ADD CALLDATACOPY DUP4 ADD ADD MSTORE SWAP1 JUMP JUMPDEST PUSH1 0x0 SLOAD PUSH1 0x1 PUSH1 0x1 PUSH1 0xA0 SHL SUB AND CALLER SUB PUSH2 0x1563 JUMPI JUMP JUMPDEST PUSH1 0x40 MLOAD PUSH4 0x118CDAA7 PUSH1 0xE0 SHL DUP2 MSTORE CALLER PUSH1 0x4 DUP3 ADD MSTORE PUSH1 0x24 SWAP1 REVERT JUMPDEST SWAP1 DUP2 PUSH1 0x20 SWAP2 SUB SLT PUSH2 0x116 JUMPI MLOAD PUSH1 0x1 PUSH1 0x1 PUSH1 0xA0 SHL SUB DUP2 AND DUP2 SUB PUSH2 0x116 JUMPI SWAP1 JUMP JUMPDEST ISZERO PUSH2 0x15A1 JUMPI JUMP JUMPDEST PUSH1 0x40 MLOAD PUSH3 0x461BCD PUSH1 0xE5 SHL DUP2 MSTORE PUSH1 0x20 PUSH1 0x4 DUP3 ADD MSTORE PUSH1 0x13 PUSH1 0x24 DUP3 ADD MSTORE PUSH19 0x2737BA103A3432903A37B5B2B71037BBB732B9 PUSH1 0x69 SHL PUSH1 0x44 DUP3 ADD MSTORE PUSH1 0x64 SWAP1 REVERT JUMPDEST PUSH1 0x2 PUSH1 0x1 SLOAD EQ PUSH2 0x15ED JUMPI PUSH1 0x2 PUSH1 0x1 SSTORE JUMP JUMPDEST PUSH1 0x40 MLOAD PUSH4 0x3EE5AEB5 PUSH1 0xE0 SHL DUP2 MSTORE PUSH1 0x4 SWAP1 REVERT JUMPDEST ISZERO PUSH2 0x1606 JUMPI JUMP JUMPDEST PUSH1 0x40 MLOAD PUSH3 0x461BCD PUSH1 0xE5 SHL DUP2 MSTORE PUSH1 0x20 PUSH1 0x4 DUP3 ADD MSTORE PUSH1 0x16 PUSH1 0x24 DUP3 ADD MSTORE PUSH22 0x131A58D95B9CD948191BD95CC81B9BDD08195E1A5CDD PUSH1 0x52 SHL PUSH1 0x44 DUP3 ADD MSTORE PUSH1 0x64 SWAP1 REVERT JUMPDEST DUP2 DUP2 MUL SWAP3 SWAP2 DUP2 ISZERO SWAP2 DUP5 DIV EQ OR ISZERO PUSH2 0x733 JUMPI JUMP JUMPDEST SWAP2 SWAP1 DUP3 SUB SWAP2 DUP3 GT PUSH2 0x733 JUMPI JUMP JUMPDEST SWAP1 PUSH1 0x40 MLOAD PUSH2 0x1671 DUP2 PUSH2 0x130E JUMP JUMPDEST PUSH2 0x100 PUSH2 0x16E1 PUSH1 0x8 DUP4 SWAP6 DUP1 SLOAD DUP6 MSTORE PUSH1 0x1 DUP1 PUSH1 0xA0 SHL SUB DUP1 PUSH1 0x1 DUP4 ADD SLOAD AND PUSH1 0x20 DUP8 ADD MSTORE PUSH1 0x2 DUP3 ADD SLOAD AND PUSH1 0x40 DUP7 ADD MSTORE PUSH1 0x3 DUP2 ADD SLOAD PUSH1 0x60 DUP7 ADD MSTORE PUSH1 0x4 DUP2 ADD SLOAD PUSH1 0x80 DUP7 ADD MSTORE PUSH1 0x5 DUP2 ADD SLOAD PUSH1 0xA0 DUP7 ADD MSTORE PUSH2 0x16C7 PUSH1 0x6 DUP3 ADD PUSH2 0x134D JUMP JUMPDEST PUSH1 0xC0 DUP7 ADD MSTORE PUSH1 0xFF PUSH1 0x7 DUP3 ADD SLOAD AND ISZERO ISZERO PUSH1 0xE0 DUP7 ADD MSTORE ADD PUSH2 0x134D JUMP JUMPDEST SWAP2 ADD MSTORE JUMP JUMPDEST SWAP2 PUSH1 0x40 SWAP2 DUP3 MLOAD PUSH2 0x16F5 DUP2 PUSH2 0x130E JUMP JUMPDEST PUSH1 0x0 SWAP4 DUP5 DUP3 MSTORE PUSH1 0x20 SWAP3 DUP6 DUP5 DUP5 ADD MSTORE DUP6 DUP3 DUP5 ADD MSTORE DUP6 PUSH1 0x60 DUP5 ADD MSTORE DUP6 PUSH1 0x80 DUP5 ADD MSTORE PUSH1 0xA0 SWAP2 DUP7 DUP4 DUP6 ADD MSTORE PUSH1 0x60 PUSH1 0xC0 DUP6 ADD MSTORE PUSH1 0x60 PUSH2 0x100 PUSH1 0xE0 SWAP6 DUP10 DUP8 DUP3 ADD MSTORE ADD MSTORE DUP7 JUMPDEST DUP9 DUP9 MSTORE PUSH1 0x3 DUP7 MSTORE DUP2 DUP9 KECCAK256 DUP1 SLOAD DUP3 LT ISZERO PUSH2 0x17C8 JUMPI PUSH2 0x1754 DUP3 PUSH2 0x175A SWAP3 PUSH2 0x1286 JUMP JUMPDEST POP PUSH2 0x1664 JUMP JUMPDEST DUP1 DUP8 ADD MLOAD PUSH1 0x1 PUSH1 0x1 PUSH1 0xA0 SHL SUB DUP6 DUP2 AND SWAP2 AND EQ DUP1 PUSH2 0x17BC JUMPI JUMPDEST DUP1 PUSH2 0x17AF JUMPI JUMPDEST PUSH2 0x17A2 JUMPI POP PUSH1 0x0 NOT DUP2 EQ PUSH2 0x178E JUMPI PUSH1 0x1 ADD PUSH2 0x1734 JUMP JUMPDEST PUSH4 0x4E487B71 PUSH1 0xE0 SHL DUP9 MSTORE PUSH1 0x11 PUSH1 0x4 MSTORE PUSH1 0x24 DUP9 REVERT JUMPDEST SWAP8 POP POP POP POP POP POP POP SWAP2 POP SWAP1 JUMP JUMPDEST POP DUP5 DUP2 ADD MLOAD TIMESTAMP GT ISZERO PUSH2 0x1778 JUMP JUMPDEST POP DUP6 DUP2 ADD MLOAD ISZERO ISZERO PUSH2 0x1772 JUMP JUMPDEST DUP3 MLOAD PUSH3 0x461BCD PUSH1 0xE5 SHL DUP2 MSTORE PUSH1 0x4 DUP2 ADD DUP9 SWAP1 MSTORE PUSH1 0x17 PUSH1 0x24 DUP3 ADD MSTORE PUSH32 0x4E6F20616374697665206C6963656E736520666F756E64000000000000000000 PUSH1 0x44 DUP3 ADD MSTORE PUSH1 0x64 SWAP1 REVERT INVALID LOG2 PUSH5 0x6970667358 0x22 SLT KECCAK256 EXTCODECOPY PUSH12 0xB32C5801BB631F6A0E59819C SIGNEXTEND 0x4C RETURNDATACOPY 0x23 TIMESTAMP DUP4 SWAP6 PUSH2 0x48D2 0xC0 SGT DUP13 SWAP5 0xD1 PUSH24 0xF8B464736F6C634300081400330000000000000000000000 "},"methodIdentifiers":{"createLicense(uint256,address,uint256,uint256,string,string)":"c33e094c","getActiveLicense(uint256,address)":"b6d41f9a","getTokenLicenses(uint256)":"622d99bf","getUserLicenses(address)":"75a106c3","multimediaNFT()":"507fed72","owner()":"8da5cb5b","platformFee()":"26232a2e","platformWallet()":"fa2af9da","purchaseLicense(uint256,uint256)":"10e52a3a","renounceOwnership()":"715018a6","revokeLicense(uint256,uint256)":"4bcff783","setPlatformFee(uint256)":"12e8e2c3","setPlatformWallet(address)":"8831e9cf","setRoyalty(uint256,address,uint256)":"7db3c828","tokenLicenses(uint256,uint256)":"194e5b5c","tokenRoyalties(uint256)":"cb53b24b","transferOwnership(address)":"f2fde38b","userLicenses(address,uint256)":"454c1d31","withdrawPlatformFees()":"d0b7830b"}}}}}