{"contracts/MultimediaRegistry.sol":{"MultimediaRegistry":{"abi":[{"inputs":[],"stateMutability":"nonpayable","type":"constructor"},{"inputs":[{"internalType":"address","name":"owner","type":"address"}],"name":"OwnableInvalidOwner","type":"error"},{"inputs":[{"internalType":"address","name":"account","type":"address"}],"name":"OwnableUnauthorizedAccount","type":"error"},{"inputs":[],"name":"ReentrancyGuardReentrantCall","type":"error"},{"anonymous":false,"inputs":[{"indexed":true,"internalType":"uint256","name":"contentId","type":"uint256"},{"indexed":true,"internalType":"address","name":"registrant","type":"address"},{"indexed":false,"internalType":"string","name":"ipfsHash","type":"string"},{"indexed":false,"internalType":"string","name":"metadataHash","type":"string"},{"indexed":false,"internalType":"string","name":"fileType","type":"string"},{"indexed":false,"internalType":"uint256","name":"fileSize","type":"uint256"}],"name":"ContentRegistered","type":"event"},{"anonymous":false,"inputs":[{"indexed":true,"internalType":"uint256","name":"contentId","type":"uint256"},{"indexed":true,"internalType":"address","name":"verifier","type":"address"},{"indexed":false,"internalType":"bool","name":"verified","type":"bool"}],"name":"ContentVerified","type":"event"},{"anonymous":false,"inputs":[{"indexed":true,"internalType":"address","name":"user","type":"address"},{"indexed":false,"internalType":"uint256","name":"amount","type":"uint256"}],"name":"FeeWithdrawn","type":"event"},{"anonymous":false,"inputs":[{"indexed":true,"internalType":"uint256","name":"contentId","type":"uint256"},{"indexed":false,"internalType":"string","name":"licenseType","type":"string"},{"indexed":false,"internalType":"uint256","name":"price","type":"uint256"},{"indexed":false,"internalType":"uint256","name":"duration","type":"uint256"}],"name":"LicenseUpdated","type":"event"},{"anonymous":false,"inputs":[{"indexed":true,"internalType":"address","name":"previousOwner","type":"address"},{"indexed":true,"internalType":"address","name":"newOwner","type":"address"}],"name":"OwnershipTransferred","type":"event"},{"anonymous":false,"inputs":[{"indexed":true,"internalType":"uint256","name":"contentId","type":"uint256"},{"indexed":true,"internalType":"address","name":"viewer","type":"address"},{"indexed":false,"internalType":"uint256","name":"permissions","type":"uint256"}],"name":"ViewerAuthorized","type":"event"},{"anonymous":false,"inputs":[{"indexed":true,"internalType":"uint256","name":"contentId","type":"uint256"},{"indexed":true,"internalType":"address","name":"viewer","type":"address"}],"name":"ViewerRemoved","type":"event"},{"inputs":[{"internalType":"address","name":"registrar","type":"address"}],"name":"addAuthorizedRegistrar","outputs":[],"stateMutability":"nonpayable","type":"function"},{"inputs":[{"internalType":"uint256","name":"contentId","type":"uint256"},{"internalType":"address","name":"viewer","type":"address"},{"internalType":"uint256","name":"permissions","type":"uint256"}],"name":"authorizeViewer","outputs":[],"stateMutability":"nonpayable","type":"function"},{"inputs":[{"internalType":"address","name":"","type":"address"}],"name":"authorizedRegistrars","outputs":[{"internalType":"bool","name":"","type":"bool"}],"stateMutability":"view","type":"function"},{"inputs":[{"internalType":"uint256","name":"contentId","type":"uint256"},{"internalType":"address","name":"viewer","type":"address"}],"name":"checkViewPermission","outputs":[{"internalType":"bool","name":"","type":"bool"}],"stateMutability":"view","type":"function"},{"inputs":[{"internalType":"uint256","name":"","type":"uint256"}],"name":"contentLicenses","outputs":[{"internalType":"string","name":"licenseType","type":"string"},{"internalType":"uint256","name":"price","type":"uint256"},{"internalType":"uint256","name":"duration","type":"uint256"},{"internalType":"bool","name":"isActive","type":"bool"},{"internalType":"string","name":"terms","type":"string"},{"internalType":"uint256","name":"maxViews","type":"uint256"},{"internalType":"uint256","name":"currentViews","type":"uint256"}],"stateMutability":"view","type":"function"},{"inputs":[{"internalType":"uint256","name":"","type":"uint256"}],"name":"contents","outputs":[{"internalType":"uint256","name":"contentId","type":"uint256"},{"internalType":"string","name":"ipfsHash","type":"string"},{"internalType":"string","name":"metadataHash","type":"string"},{"internalType":"string","name":"fileType","type":"string"},{"internalType":"uint256","name":"fileSize","type":"uint256"},{"internalType":"string","name":"originalCreator","type":"string"},{"internalType":"uint256","name":"creationTimestamp","type":"uint256"},{"internalType":"string","name":"provenanceHash","type":"string"},{"internalType":"bool","name":"isRegistered","type":"bool"},{"internalType":"bool","name":"isVerified","type":"bool"},{"internalType":"address","name":"registrant","type":"address"},{"internalType":"uint256","name":"registrationFee","type":"uint256"},{"internalType":"string","name":"licenseType","type":"string"},{"internalType":"uint256","name":"licensePrice","type":"uint256"}],"stateMutability":"view","type":"function"},{"inputs":[],"name":"emergencyWithdraw","outputs":[],"stateMutability":"nonpayable","type":"function"},{"inputs":[{"internalType":"uint256","name":"contentId","type":"uint256"}],"name":"getContent","outputs":[{"internalType":"uint256","name":"contentId_","type":"uint256"},{"internalType":"string","name":"ipfsHash","type":"string"},{"internalType":"string","name":"metadataHash","type":"string"},{"internalType":"string","name":"fileType","type":"string"},{"internalType":"uint256","name":"fileSize","type":"uint256"},{"internalType":"string","name":"originalCreator","type":"string"},{"internalType":"uint256","name":"creationTimestamp","type":"uint256"},{"internalType":"string","name":"provenanceHash","type":"string"},{"internalType":"bool","name":"isVerified","type":"bool"},{"internalType":"address","name":"registrant","type":"address"},{"internalType":"uint256","name":"registrationFee","type":"uint256"}],"stateMutability":"view","type":"function"},{"inputs":[],"name":"getContentCount","outputs":[{"internalType":"uint256","name":"","type":"uint256"}],"stateMutability":"view","type":"function"},{"inputs":[],"name":"getContractBalance","outputs":[{"internalType":"uint256","name":"","type":"uint256"}],"stateMutability":"view","type":"function"},{"inputs":[{"internalType":"uint256","name":"contentId","type":"uint256"}],"name":"getLicense","outputs":[{"internalType":"string","name":"licenseType","type":"string"},{"internalType":"uint256","name":"price","type":"uint256"},{"internalType":"uint256","name":"duration","type":"uint256"},{"internalType":"bool","name":"isActive","type":"bool"},{"internalType":"string","name":"terms","type":"string"},{"internalType":"uint256","name":"maxViews","type":"uint256"},{"internalType":"uint256","name":"currentViews","type":"uint256"}],"stateMutability":"view","type":"function"},{"inputs":[{"internalType":"address","name":"user","type":"address"}],"name":"getUserContent","outputs":[{"internalType":"uint256[]","name":"","type":"uint256[]"}],"stateMutability":"view","type":"function"},{"inputs":[{"internalType":"string","name":"","type":"string"}],"name":"hashToContentId","outputs":[{"internalType":"uint256","name":"","type":"uint256"}],"stateMutability":"view","type":"function"},{"inputs":[],"name":"owner","outputs":[{"internalType":"address","name":"","type":"address"}],"stateMutability":"view","type":"function"},{"inputs":[],"name":"platformFee","outputs":[{"internalType":"uint256","name":"","type":"uint256"}],"stateMutability":"view","type":"function"},{"inputs":[{"internalType":"uint256","name":"contentId","type":"uint256"}],"name":"purchaseLicense","outputs":[],"stateMutability":"payable","type":"function"},{"inputs":[{"internalType":"string","name":"ipfsHash","type":"string"},{"internalType":"string","name":"metadataHash","type":"string"},{"internalType":"string","name":"fileType","type":"string"},{"internalType":"uint256","name":"fileSize","type":"uint256"},{"internalType":"string","name":"originalCreator","type":"string"},{"internalType":"string","name":"provenanceHash","type":"string"},{"internalType":"string","name":"licenseType","type":"string"},{"internalType":"uint256","name":"licensePrice","type":"uint256"},{"internalType":"uint256","name":"licenseDuration","type":"uint256"}],"name":"registerContent","outputs":[{"internalType":"uint256","name":"","type":"uint256"}],"stateMutability":"payable","type":"function"},{"inputs":[],"name":"registrationFee","outputs":[{"internalType":"uint256","name":"","type":"uint256"}],"stateMutability":"view","type":"function"},{"inputs":[{"internalType":"address","name":"registrar","type":"address"}],"name":"removeAuthorizedRegistrar","outputs":[],"stateMutability":"nonpayable","type":"function"},{"inputs":[{"internalType":"uint256","name":"contentId","type":"uint256"},{"internalType":"address","name":"viewer","type":"address"}],"name":"removeViewer","outputs":[],"stateMutability":"nonpayable","type":"function"},{"inputs":[],"name":"renounceOwnership","outputs":[],"stateMutability":"nonpayable","type":"function"},{"inputs":[{"internalType":"uint256","name":"newFee","type":"uint256"}],"name":"setPlatformFee","outputs":[],"stateMutability":"nonpayable","type":"function"},{"inputs":[{"internalType":"uint256","name":"newFee","type":"uint256"}],"name":"setRegistrationFee","outputs":[],"stateMutability":"nonpayable","type":"function"},{"inputs":[{"internalType":"uint256","name":"newFee","type":"uint256"}],"name":"setVerificationFee","outputs":[],"stateMutability":"nonpayable","type":"function"},{"inputs":[{"internalType":"address","name":"newOwner","type":"address"}],"name":"transferOwnership","outputs":[],"stateMutability":"nonpayable","type":"function"},{"inputs":[{"internalType":"uint256","name":"contentId","type":"uint256"},{"internalType":"string","name":"licenseType","type":"string"},{"internalType":"uint256","name":"price","type":"uint256"},{"internalType":"uint256","name":"duration","type":"uint256"},{"internalType":"string","name":"terms","type":"string"}],"name":"updateLicense","outputs":[],"stateMutability":"nonpayable","type":"function"},{"inputs":[{"internalType":"address","name":"","type":"address"}],"name":"userBalance","outputs":[{"internalType":"uint256","name":"","type":"uint256"}],"stateMutability":"view","type":"function"},{"inputs":[{"internalType":"address","name":"","type":"address"},{"internalType":"uint256","name":"","type":"uint256"}],"name":"userContent","outputs":[{"internalType":"uint256","name":"","type":"uint256"}],"stateMutability":"view","type":"function"},{"inputs":[],"name":"verificationFee","outputs":[{"internalType":"uint256","name":"","type":"uint256"}],"stateMutability":"view","type":"function"},{"inputs":[{"internalType":"uint256","name":"contentId","type":"uint256"}],"name":"verifyContent","outputs":[],"stateMutability":"payable","type":"function"},{"inputs":[],"name":"withdrawFees","outputs":[],"stateMutability":"nonpayable","type":"function"}],"evm":{"bytecode":{"linkReferences":{},"object":"608080604052346100b057331561009a5760008054336001600160a01b0319821681178355604080519390929091906001600160a01b03167f8be0079c531659141344cd1fd0a4f28419497f9722a3daafe3b4186f6b6457e08380a360018055662386f26fc100006009556611c37937e08000600a5560fa600b55338152600760205220600160ff198254161790556123e190816100b68239f35b631e4fbdf760e01b815260006004820152602490fd5b600080fdfe608080604052600436101561001357600080fd5b60003560e01c9081630103c92b14611fc5575080630b7ad54c14611e9357806312e8e2c314611e2457806314c44e0914611e0657806326232a2e14611de8578063357c7ff414611d83578063476343ee14611cca57806353793b4614611c855780635d0d0612146118d95780636f9fb98a146118bd57806370b3ce3b1461187b578063715018a61461182257806374449ca41461180457806378866bdb146117ac57806387898489146116f85780638da5cb5b146116cf578063a11109bc14611682578063a8c278a214611664578063a9c6b3fa14611625578063aae9d5f214611604578063b2dd12121461157d578063b5ecf91214611430578063c320c7271461140f578063c8a028a81461120a578063cbaba696146111ae578063db2e21bc1461115b578063e267eea01461108f578063e27fa8ee14610fb9578063f1a3ac7d14610352578063f2fde38b146102c45763fd2a176e1461017457600080fd5b6020806003193601126102bf5760043561018c612291565b600a54341061027a5780600052600382526101b160ff600860406000200154166122b4565b806000526003825260ff60086040600020015460081c16610235578060005260038252600860406000200161010061ff0019825416179055336000526008825260406000206102013482546122f9565b90557f1a99e509f9352aa9a67854520d68ee91a4cfb8213651c1080d8c4d2500bc0b3260405192600184523393a360018055005b60405162461bcd60e51b815260048101839052601860248201527f436f6e74656e7420616c726561647920766572696669656400000000000000006044820152606490fd5b60405162461bcd60e51b815260048101839052601d60248201527f496e73756666696369656e7420766572696669636174696f6e206665650000006044820152606490fd5b600080fd5b346102bf5760203660031901126102bf576102dd611ffb565b6102e5612256565b6001600160a01b0390811690811561033957600054826bffffffffffffffffffffffff60a01b821617600055167f8be0079c531659141344cd1fd0a4f28419497f9722a3daafe3b4186f6b6457e0600080a3005b604051631e4fbdf760e01b815260006004820152602490fd5b6101203660031901126102bf576004356001600160401b0381116102bf5761037e9036906004016121d2565b6024356001600160401b0381116102bf5761039d9036906004016121d2565b6044356001600160401b0381116102bf576103bc9036906004016121d2565b916084356001600160401b0381116102bf576103dc9036906004016121d2565b9160a4356001600160401b0381116102bf576103fc9036906004016121d2565b9260c4356001600160401b0381116102bf5761041c9036906004016121d2565b90610425612291565b6009543410610f7457835115610f2f57604051602081865161044a8183858b01612027565b8101600481520301902054610eea5760643515610ea65761046c600254612282565b948560025585600052600360205260406000209186835585516001600160401b0381116109eb576104a0600185015461206f565b601f8111610e5f575b50806020601f8211600114610df257600091610de7575b508160011b916000199060031b1c19161760018401555b84516001600160401b0381116109eb576104f4600285015461206f565b601f8111610da0575b50806020601f8211600114610d3357600091610d28575b508160011b916000199060031b1c19161760028401555b87516001600160401b0381116109eb57610548600385015461206f565b601f8111610ce1575b50806020601f8211600114610c7357600091610c68575b508160011b916000199060031b1c19161760038401555b60643560048401558051906001600160401b0382116109eb5781906105a7600586015461206f565b601f8111610c15575b50602090601f8311600114610ba357600092610b98575b50508160011b916000199060031b1c19161760058301555b4260068301558051906001600160401b0382116109eb578190610605600785015461206f565b601f8111610b45575b50602090601f8311600114610ad357600092610ac8575b50508160011b916000199060031b1c19161760078201555b60088101805461ff01600160b01b0319163360101b62010000600160b01b0316176001179055346009909101556040518351859190602090829061068481838a8601612027565b810160048152030190205533600052600560205260406000208054680100000000000000008110156109eb576106bf91600182018155612228565b81549060031b9086821b91600019901b19161790558051610753575b507f571fea5dfbf2dce9fee7c666bebf48f779468cb4747489ffd907e93cb1f558bd61073860209561072a869461071d6040519760808952608089019061204a565b908782038a89015261204a565b90858203604087015261204a565b9260643560608201528033940390a360018055604051908152f35b60405190610760826120a9565b815260e4356020820152610104356040820152600160608201526040518060208101106001600160401b036020830111176109eb5760208101604052600081526080820152600060a0820152600060c082015283600052600660205260406000209080518051906001600160401b0382116109eb5781906107e1855461206f565b601f8111610a78575b50602090601f8311600114610a0c57600092610a01575b50508160011b916000199060031b1c19161782555b602081015160018301556040810151600283015561084960608201511515600384019060ff801983541691151516179055565b60808101518051906001600160401b0382116109eb5761086c600485015461206f565b601f81116109a4575b509160209793918795938990601f83116001146109045760c061072a948461073898957f571fea5dfbf2dce9fee7c666bebf48f779468cb4747489ffd907e93cb1f558bd9a98956006956000926108f9575b50508160011b916000199060031b1c19161760048501555b60a0810151600585015501519101559450509550506106db565b015190508f806108c7565b90600485016000528a6000209160005b601f198516811061098a575061072a946001857f571fea5dfbf2dce9fee7c666bebf48f779468cb4747489ffd907e93cb1f558bd9a989560069560c0956107389c99601f19811610610971575b505050811b0160048501556108df565b015160001960f88460031b161c191690558f8080610961565b8183015184558b9950600190930192918c01918c01610914565b600485016000526020600020601f840160051c8101602085106109e4575b601f830160051c820181106109d8575050610875565b600081556001016109c2565b50806109c2565b634e487b7160e01b600052604160045260246000fd5b015190508880610801565b9250846000526020600020906000935b601f1984168510610a5d576001945083601f19811610610a44575b505050811b018255610816565b015160001960f88460031b161c19169055888080610a37565b81810151835560209485019460019093019290910190610a1c565b909150846000526020600020601f840160051c810160208510610ac1575b90849392915b601f830160051c82018110610ab25750506107ea565b60008155859450600101610a9c565b5080610a96565b015190508880610625565b9250600784016000526020600020906000935b601f1984168510610b2a576001945083601f19811610610b11575b505050811b01600782015561063d565b015160001960f88460031b161c19169055888080610b01565b81810151835560209485019460019093019290910190610ae6565b909150600784016000526020600020601f840160051c810160208510610b91575b90849392915b601f830160051c82018110610b8257505061060e565b60008155859450600101610b6c565b5080610b66565b0151905089806105c7565b9250600585016000526020600020906000935b601f1984168510610bfa576001945083601f19811610610be1575b505050811b0160058301556105df565b015160001960f88460031b161c19169055898080610bd1565b81810151835560209485019460019093019290910190610bb6565b909150600585016000526020600020601f840160051c810160208510610c61575b90849392915b601f830160051c82018110610c525750506105b0565b60008155859450600101610c3c565b5080610c36565b90508901518a610568565b91506003850160005260206000206000925b8b601f1984168510610cca57506001935082601f19811610610cb1575b5050811b01600384015561057f565b8b015160001960f88460031b161c191690558a80610ca2565b810151825560209384019360019092019101610c85565b600385016000526020600020601f830160051c810160208410610d21575b601f830160051c82018110610d15575050610551565b60008155600101610cff565b5080610cff565b90508601518a610514565b91506002850160005260206000206000925b601f1983168410610d88576001935082601f19811610610d6f575b5050811b01600284015561052b565b88015160001960f88460031b161c191690558a80610d60565b88810151825560209384019360019092019101610d45565b600285016000526020600020601f830160051c810160208410610de0575b601f830160051c82018110610dd45750506104fd565b60008155600101610dbe565b5080610dbe565b90508701518a6104c0565b91506001850160005260206000206000925b601f1983168410610e47576001935082601f19811610610e2e575b5050811b0160018401556104d7565b89015160001960f88460031b161c191690558a80610e1f565b89810151825560209384019360019092019101610e04565b600185016000526020600020601f830160051c810160208410610e9f575b601f830160051c82018110610e935750506104a9565b60008155600101610e7d565b5080610e7d565b606460405162461bcd60e51b815260206004820152602060248201527f46696c652073697a65206d7573742062652067726561746572207468616e20306044820152fd5b60405162461bcd60e51b815260206004820152601a60248201527f436f6e74656e7420616c726561647920726567697374657265640000000000006044820152606490fd5b60405162461bcd60e51b815260206004820152601960248201527f4950465320686173682063616e6e6f7420626520656d707479000000000000006044820152606490fd5b60405162461bcd60e51b815260206004820152601d60248201527f496e73756666696369656e7420726567697374726174696f6e206665650000006044820152606490fd5b346102bf5760603660031901126102bf57600435610fd5612011565b907f041e0d021d469555671d03f8d790657bd0e4c5796d6363c1c8355e655684ccf6604435826000526020906003825261101960ff600860406000200154166122b4565b836000526003825260018060a01b036110408160086040600020015460101c163314612306565b8460005260038352600c6040600020019516948560005282526040600020600160ff198254161790558360005260038252600d60406000200185600052825280604060002055604051908152a3005b346102bf5760403660031901126102bf576004356110ab612011565b90806000526020600381526110ca60ff600860406000200154166122b4565b816000526003815260018060a01b036110f18160086040600020015460101c163314612306565b8260005260038252600c604060002001931692836000528152604060002060ff1981541690558160005260038152600d604060002001908360005252600060408120557f1357340e50a760852a288a8420cc3f20d86cd3deeda14cd750949ff90bdd291e600080a3005b346102bf5760003660031901126102bf57611174612256565b6000805481908190819047906001600160a01b03168282156111a5575bf11561119957005b6040513d6000823e3d90fd5b506108fc611191565b346102bf5760203660031901126102bf576004356001600160401b0381116102bf576111f760206111e4819336906004016121d2565b8160405193828580945193849201612027565b8101600481520301902054604051908152f35b6020806003193601126102bf57600435611222612291565b806000526003825261123e60ff600860406000200154166122b4565b8060005260068252604060002060ff600382015416156113d257600181015480341061139657600b54808202908282041482151715611380576127109004808203918083116113805760018060a01b0360008080808685825416828215611377575bf1156111995760009384938493849389855260038b52600860408620015460101c169184911461136e575bf1156111995761135e7f041e0d021d469555671d03f8d790657bd0e4c5796d6363c1c8355e655684ccf6918360005260038552600c6040600020013360005285526040600020600160ff198254161790556006600282019161132e8354426122f9565b8660005260038852600d604060002001336000528852604060002055016113558154612282565b905554426122f9565b926040519384523393a360018055005b506108fc6112cb565b506108fc6112a0565b634e487b7160e01b600052601160045260246000fd5b60405162461bcd60e51b8152600481018590526014602482015273125b9cdd59999a58da595b9d081c185e5b595b9d60621b6044820152606490fd5b60405162461bcd60e51b81526004810184905260156024820152744c6963656e7365206e6f7420617661696c61626c6560581b6044820152606490fd5b346102bf5760203660031901126102bf57611428612256565b600435600955005b346102bf5760203660031901126102bf5760043560005260036020526040600020805460018201611460906120e5565b9161146d600282016120e5565b9061147a600382016120e5565b60048201549061148c600584016120e5565b600684015461149d600786016120e5565b91600886015494600987015494600a88016114b7906120e5565b97600b0154986040519b8c9b8c528b6101c06020819201528c016114da9161204a565b8b810360408d01526114eb9161204a565b8a810360608c01526114fc9161204a565b9060808a015288810360a08a01526115139161204a565b9060c088015286810360e088015261152a9161204a565b60ff8084161515610100880152600884901c16151561012087015260109290921c6001600160a01b03166101408601526101608501528381036101808501526115729161204a565b906101a08301520390f35b346102bf5760203660031901126102bf576004358060005260036020526115ae60ff600860406000200154166122b4565b60005260066020526040600020600181015490611600600282015460ff600384015416906005840154906006850154926115f360046115ec886120e5565b97016120e5565b916040519788978861218b565b0390f35b346102bf5760203660031901126102bf5761161d612256565b600435600a55005b346102bf5760203660031901126102bf576001600160a01b03611646611ffb565b166000526007602052602060ff604060002054166040519015158152f35b346102bf5760003660031901126102bf576020600a54604051908152f35b346102bf5760403660031901126102bf5760206116c56004356116a3612011565b9080600052600384526116c060ff600860406000200154166122b4565b61234a565b6040519015158152f35b346102bf5760003660031901126102bf576000546040516001600160a01b039091168152602090f35b346102bf576020806003193601126102bf576001600160a01b0361171a611ffb565b1660005260058152604060002060405190818382549182815201908192600052846000209060005b86828210611798578686611758828803836120c4565b604051928392818401908285525180915260408401929160005b82811061178157505050500390f35b835185528695509381019392810192600101611772565b835485529093019260019283019201611742565b346102bf5760403660031901126102bf576117c5611ffb565b6001600160a01b03166000908152600560205260409020805460243591908210156102bf576020916117f691612228565b90546040519160031b1c8152f35b346102bf5760003660031901126102bf576020600254604051908152f35b346102bf5760003660031901126102bf5761183b612256565b600080546001600160a01b0319811682556001600160a01b03167f8be0079c531659141344cd1fd0a4f28419497f9722a3daafe3b4186f6b6457e08280a3005b346102bf5760203660031901126102bf57611894611ffb565b61189c612256565b6001600160a01b03166000908152600760205260409020805460ff19169055005b346102bf5760003660031901126102bf57602047604051908152f35b346102bf5760a03660031901126102bf576024356001600160401b0381116102bf576119099036906004016121d2565b6084356001600160401b0381116102bf576119289036906004016121d2565b90600435600052600360205261194860ff600860406000200154166122b4565b600435600052600360205261197160018060a01b0360086040600020015460101c163314612306565b6040519161197e836120a9565b81835260443560208401526064356040840152600160608401526080830152600060a0830152600060c08301526004356000526006602052604060002082519283516001600160401b0381116109eb576119d8835461206f565b601f8111611c41575b506020601f8211600114611bd8578192939495600092611bcd575b50508160011b916000199060031b1c19161782555b6020810151600183015560408101516002830155611a4460608201511515600384019060ff801983541691151516179055565b60808101518051906001600160401b0382116109eb57611a67600485015461206f565b601f8111611b86575b50602090601f8311600114611b135791806006949260c094600092611b08575b50508160011b916000199060031b1c19161760048501555b60a0810151600585015501519101557fcbd95f9ed58842236e3b510e5143028578bfeeef1bf2cc4ebfe6ac407a533251611aed6040519260608452606084019061204a565b916044356020820152606435604082015280600435930390a2005b015190508780611a90565b90601f198316916004860160005260206000209260005b818110611b6e575092600192859260c0966006989610611b55575b505050811b016004850155611aa8565b015160001960f88460031b161c19169055878080611b45565b92936020600181928786015181550195019301611b2a565b600485016000526020600020601f840160051c810160208510611bc6575b601f830160051c82018110611bba575050611a70565b60008155600101611ba4565b5080611ba4565b0151905085806119fc565b8360005260206000209060005b601f1984168110611c29575060019394959683601f19811610611c10575b505050811b018255611a11565b015160001960f88460031b161c19169055858080611c03565b9091602060018192858b015181550193019101611be5565b836000526020600020601f830160051c810160208410611c7e575b601f830160051c82018110611c725750506119e1565b60008155600101611c5c565b5080611c5c565b346102bf5760203660031901126102bf57611c9e611ffb565b611ca6612256565b6001600160a01b03166000908152600760205260409020805460ff19166001179055005b346102bf5760003660031901126102bf57611ce3612291565b3360005260086020526040600020548015611d4857336000526008602052600060408120556000808080843382f115611199576040519081527f78473f3f373f7673597f4f0fa5873cb4d375fea6d4339ad6b56dbd411513cb3f60203392a260018055005b60405162461bcd60e51b81526020600482015260136024820152724e6f206665657320746f20776974686472617760681b6044820152606490fd5b346102bf5760203660031901126102bf5760043560005260066020526040600020611dad816120e5565b61160060018301549260028101549060ff600382015416611dd0600483016120e5565b9060066005840154930154936040519788978861218b565b346102bf5760003660031901126102bf576020600b54604051908152f35b346102bf5760003660031901126102bf576020600954604051908152f35b346102bf5760203660031901126102bf57600435611e40612256565b6103e88111611e4e57600b55005b60405162461bcd60e51b815260206004820152601e60248201527f506c6174666f726d206665652063616e6e6f74206578636565642031302500006044820152606490fd5b346102bf5760203660031901126102bf57600435806000526003602052611ec460ff600860406000200154166122b4565b600052600360205260406000208054600482015491600681015490611f96600882015492600983015492611f83611efd600183016120e5565b97611f0a600284016120e5565b92611f70611f1a600383016120e5565b611f62611f356007611f2e600587016120e5565b95016120e5565b96611f546040519e8f9e8f90815261016090816020820152019061204a565b8d810360408f01529061204a565b908b820360608d015261204a565b9160808a015288820360a08a015261204a565b9160c087015285820360e087015261204a565b600883901c60ff16151561010085015260109290921c6001600160a01b03166101208401526101408301520390f35b346102bf5760203660031901126102bf576020906001600160a01b03611fe9611ffb565b16600052600882526040600020548152f35b600435906001600160a01b03821682036102bf57565b602435906001600160a01b03821682036102bf57565b60005b83811061203a5750506000910152565b818101518382015260200161202a565b9060209161206381518092818552858086019101612027565b601f01601f1916010190565b90600182811c9216801561209f575b602083101461208957565b634e487b7160e01b600052602260045260246000fd5b91607f169161207e565b60e081019081106001600160401b038211176109eb57604052565b90601f801991011681019081106001600160401b038211176109eb57604052565b90604051918260008254926120f98461206f565b9081845260019485811690816000146121685750600114612125575b5050612123925003836120c4565b565b9093915060005260209081600020936000915b81831061215057505061212393508201013880612115565b85548884018501529485019487945091830191612138565b91505061212394506020925060ff191682840152151560051b8201013880612115565b936121c8936121a960c097939a99989a60e0885260e088019061204a565b936020870152604086015215156060850152838203608085015261204a565b9460a08201520152565b81601f820112156102bf578035906001600160401b0382116109eb5760405192612206601f8401601f1916602001856120c4565b828452602083830101116102bf57816000926020809301838601378301015290565b80548210156122405760005260206000200190600090565b634e487b7160e01b600052603260045260246000fd5b6000546001600160a01b0316330361226a57565b60405163118cdaa760e01b8152336004820152602490fd5b60001981146113805760010190565b6002600154146122a2576002600155565b604051633ee5aeb560e01b8152600490fd5b156122bb57565b60405162461bcd60e51b815260206004820152601660248201527510dbdb9d195b9d08191bd95cc81b9bdd08195e1a5cdd60521b6044820152606490fd5b9190820180921161138057565b1561230d57565b60405162461bcd60e51b81526020600482015260156024820152742737ba103a34329031b7b73a32b73a1037bbb732b960591b6044820152606490fd5b6000908152600360205260409020600881015490916001600160a01b039081169160101c1681146123a457600052600c810160205260ff604060002054169081612392575090565b600d0160205250604060002054421090565b505060019056fea26469706673582212202a2d791542cd2c0d6c4837faabb6f198711d800bf7b6a0b11b45a99f733adc4864736f6c63430008140033","opcodes":"PUSH1 0x80 DUP1 PUSH1 0x40 MSTORE CALLVALUE PUSH2 0xB0 JUMPI CALLER ISZERO PUSH2 0x9A JUMPI PUSH1 0x0 DUP1 SLOAD CALLER PUSH1 0x1 PUSH1 0x1 PUSH1 0xA0 SHL SUB NOT DUP3 AND DUP2 OR DUP4 SSTORE PUSH1 0x40 DUP1 MLOAD SWAP4 SWAP1 SWAP3 SWAP1 SWAP2 SWAP1 PUSH1 0x1 PUSH1 0x1 PUSH1 0xA0 SHL SUB AND PUSH32 0x8BE0079C531659141344CD1FD0A4F28419497F9722A3DAAFE3B4186F6B6457E0 DUP4 DUP1 LOG3 PUSH1 0x1 DUP1 SSTORE PUSH7 0x2386F26FC10000 PUSH1 0x9 SSTORE PUSH7 0x11C37937E08000 PUSH1 0xA SSTORE PUSH1 0xFA PUSH1 0xB SSTORE CALLER DUP2 MSTORE PUSH1 0x7 PUSH1 0x20 MSTORE KECCAK256 PUSH1 0x1 PUSH1 0xFF NOT DUP3 SLOAD AND OR SWAP1 SSTORE PUSH2 0x23E1 SWAP1 DUP2 PUSH2 0xB6 DUP3 CODECOPY RETURN JUMPDEST PUSH4 0x1E4FBDF7 PUSH1 0xE0 SHL DUP2 MSTORE PUSH1 0x0 PUSH1 0x4 DUP3 ADD MSTORE PUSH1 0x24 SWAP1 REVERT JUMPDEST PUSH1 0x0 DUP1 REVERT INVALID PUSH1 0x80 DUP1 PUSH1 0x40 MSTORE PUSH1 0x4 CALLDATASIZE LT ISZERO PUSH2 0x13 JUMPI PUSH1 0x0 DUP1 REVERT JUMPDEST PUSH1 0x0 CALLDATALOAD PUSH1 0xE0 SHR SWAP1 DUP2 PUSH4 0x103C92B EQ PUSH2 0x1FC5 JUMPI POP DUP1 PUSH4 0xB7AD54C EQ PUSH2 0x1E93 JUMPI DUP1 PUSH4 0x12E8E2C3 EQ PUSH2 0x1E24 JUMPI DUP1 PUSH4 0x14C44E09 EQ PUSH2 0x1E06 JUMPI DUP1 PUSH4 0x26232A2E EQ PUSH2 0x1DE8 JUMPI DUP1 PUSH4 0x357C7FF4 EQ PUSH2 0x1D83 JUMPI DUP1 PUSH4 0x476343EE EQ PUSH2 0x1CCA JUMPI DUP1 PUSH4 0x53793B46 EQ PUSH2 0x1C85 JUMPI DUP1 PUSH4 0x5D0D0612 EQ PUSH2 0x18D9 JUMPI DUP1 PUSH4 0x6F9FB98A EQ PUSH2 0x18BD JUMPI DUP1 PUSH4 0x70B3CE3B EQ PUSH2 0x187B JUMPI DUP1 PUSH4 0x715018A6 EQ PUSH2 0x1822 JUMPI DUP1 PUSH4 0x74449CA4 EQ PUSH2 0x1804 JUMPI DUP1 PUSH4 0x78866BDB EQ PUSH2 0x17AC JUMPI DUP1 PUSH4 0x87898489 EQ PUSH2 0x16F8 JUMPI DUP1 PUSH4 0x8DA5CB5B EQ PUSH2 0x16CF JUMPI DUP1 PUSH4 0xA11109BC EQ PUSH2 0x1682 JUMPI DUP1 PUSH4 0xA8C278A2 EQ PUSH2 0x1664 JUMPI DUP1 PUSH4 0xA9C6B3FA EQ PUSH2 0x1625 JUMPI DUP1 PUSH4 0xAAE9D5F2 EQ PUSH2 0x1604 JUMPI DUP1 PUSH4 0xB2DD1212 EQ PUSH2 0x157D JUMPI DUP1 PUSH4 0xB5ECF912 EQ PUSH2 0x1430 JUMPI DUP1 PUSH4 0xC320C727 EQ PUSH2 0x140F JUMPI DUP1 PUSH4 0xC8A028A8 EQ PUSH2 0x120A JUMPI DUP1 PUSH4 0xCBABA696 EQ PUSH2 0x11AE JUMPI DUP1 PUSH4 0xDB2E21BC EQ PUSH2 0x115B JUMPI DUP1 PUSH4 0xE267EEA0 EQ PUSH2 0x108F JUMPI DUP1 PUSH4 0xE27FA8EE EQ PUSH2 0xFB9 JUMPI DUP1 PUSH4 0xF1A3AC7D EQ PUSH2 0x352 JUMPI DUP1 PUSH4 0xF2FDE38B EQ PUSH2 0x2C4 JUMPI PUSH4 0xFD2A176E EQ PUSH2 0x174 JUMPI PUSH1 0x0 DUP1 REVERT JUMPDEST PUSH1 0x20 DUP1 PUSH1 0x3 NOT CALLDATASIZE ADD SLT PUSH2 0x2BF JUMPI PUSH1 0x4 CALLDATALOAD PUSH2 0x18C PUSH2 0x2291 JUMP JUMPDEST PUSH1 0xA SLOAD CALLVALUE LT PUSH2 0x27A JUMPI DUP1 PUSH1 0x0 MSTORE PUSH1 0x3 DUP3 MSTORE PUSH2 0x1B1 PUSH1 0xFF PUSH1 0x8 PUSH1 0x40 PUSH1 0x0 KECCAK256 ADD SLOAD AND PUSH2 0x22B4 JUMP JUMPDEST DUP1 PUSH1 0x0 MSTORE PUSH1 0x3 DUP3 MSTORE PUSH1 0xFF PUSH1 0x8 PUSH1 0x40 PUSH1 0x0 KECCAK256 ADD SLOAD PUSH1 0x8 SHR AND PUSH2 0x235 JUMPI DUP1 PUSH1 0x0 MSTORE PUSH1 0x3 DUP3 MSTORE PUSH1 0x8 PUSH1 0x40 PUSH1 0x0 KECCAK256 ADD PUSH2 0x100 PUSH2 0xFF00 NOT DUP3 SLOAD AND OR SWAP1 SSTORE CALLER PUSH1 0x0 MSTORE PUSH1 0x8 DUP3 MSTORE PUSH1 0x40 PUSH1 0x0 KECCAK256 PUSH2 0x201 CALLVALUE DUP3 SLOAD PUSH2 0x22F9 JUMP JUMPDEST SWAP1 SSTORE PUSH32 0x1A99E509F9352AA9A67854520D68EE91A4CFB8213651C1080D8C4D2500BC0B32 PUSH1 0x40 MLOAD SWAP3 PUSH1 0x1 DUP5 MSTORE CALLER SWAP4 LOG3 PUSH1 0x1 DUP1 SSTORE STOP JUMPDEST PUSH1 0x40 MLOAD PUSH3 0x461BCD PUSH1 0xE5 SHL DUP2 MSTORE PUSH1 0x4 DUP2 ADD DUP4 SWAP1 MSTORE PUSH1 0x18 PUSH1 0x24 DUP3 ADD MSTORE PUSH32 0x436F6E74656E7420616C72656164792076657269666965640000000000000000 PUSH1 0x44 DUP3 ADD MSTORE PUSH1 0x64 SWAP1 REVERT JUMPDEST PUSH1 0x40 MLOAD PUSH3 0x461BCD PUSH1 0xE5 SHL DUP2 MSTORE PUSH1 0x4 DUP2 ADD DUP4 SWAP1 MSTORE PUSH1 0x1D PUSH1 0x24 DUP3 ADD MSTORE PUSH32 0x496E73756666696369656E7420766572696669636174696F6E20666565000000 PUSH1 0x44 DUP3 ADD MSTORE PUSH1 0x64 SWAP1 REVERT JUMPDEST PUSH1 0x0 DUP1 REVERT JUMPDEST CALLVALUE PUSH2 0x2BF JUMPI PUSH1 0x20 CALLDATASIZE PUSH1 0x3 NOT ADD SLT PUSH2 0x2BF JUMPI PUSH2 0x2DD PUSH2 0x1FFB JUMP JUMPDEST PUSH2 0x2E5 PUSH2 0x2256 JUMP JUMPDEST PUSH1 0x1 PUSH1 0x1 PUSH1 0xA0 SHL SUB SWAP1 DUP2 AND SWAP1 DUP2 ISZERO PUSH2 0x339 JUMPI PUSH1 0x0 SLOAD DUP3 PUSH12 0xFFFFFFFFFFFFFFFFFFFFFFFF PUSH1 0xA0 SHL DUP3 AND OR PUSH1 0x0 SSTORE AND PUSH32 0x8BE0079C531659141344CD1FD0A4F28419497F9722A3DAAFE3B4186F6B6457E0 PUSH1 0x0 DUP1 LOG3 STOP JUMPDEST PUSH1 0x40 MLOAD PUSH4 0x1E4FBDF7 PUSH1 0xE0 SHL DUP2 MSTORE PUSH1 0x0 PUSH1 0x4 DUP3 ADD MSTORE PUSH1 0x24 SWAP1 REVERT JUMPDEST PUSH2 0x120 CALLDATASIZE PUSH1 0x3 NOT ADD SLT PUSH2 0x2BF JUMPI PUSH1 0x4 CALLDATALOAD PUSH1 0x1 PUSH1 0x1 PUSH1 0x40 SHL SUB DUP2 GT PUSH2 0x2BF JUMPI PUSH2 0x37E SWAP1 CALLDATASIZE SWAP1 PUSH1 0x4 ADD PUSH2 0x21D2 JUMP JUMPDEST PUSH1 0x24 CALLDATALOAD PUSH1 0x1 PUSH1 0x1 PUSH1 0x40 SHL SUB DUP2 GT PUSH2 0x2BF JUMPI PUSH2 0x39D SWAP1 CALLDATASIZE SWAP1 PUSH1 0x4 ADD PUSH2 0x21D2 JUMP JUMPDEST PUSH1 0x44 CALLDATALOAD PUSH1 0x1 PUSH1 0x1 PUSH1 0x40 SHL SUB DUP2 GT PUSH2 0x2BF JUMPI PUSH2 0x3BC SWAP1 CALLDATASIZE SWAP1 PUSH1 0x4 ADD PUSH2 0x21D2 JUMP JUMPDEST SWAP2 PUSH1 0x84 CALLDATALOAD PUSH1 0x1 PUSH1 0x1 PUSH1 0x40 SHL SUB DUP2 GT PUSH2 0x2BF JUMPI PUSH2 0x3DC SWAP1 CALLDATASIZE SWAP1 PUSH1 0x4 ADD PUSH2 0x21D2 JUMP JUMPDEST SWAP2 PUSH1 0xA4 CALLDATALOAD PUSH1 0x1 PUSH1 0x1 PUSH1 0x40 SHL SUB DUP2 GT PUSH2 0x2BF JUMPI PUSH2 0x3FC SWAP1 CALLDATASIZE SWAP1 PUSH1 0x4 ADD PUSH2 0x21D2 JUMP JUMPDEST SWAP3 PUSH1 0xC4 CALLDATALOAD PUSH1 0x1 PUSH1 0x1 PUSH1 0x40 SHL SUB DUP2 GT PUSH2 0x2BF JUMPI PUSH2 0x41C SWAP1 CALLDATASIZE SWAP1 PUSH1 0x4 ADD PUSH2 0x21D2 JUMP JUMPDEST SWAP1 PUSH2 0x425 PUSH2 0x2291 JUMP JUMPDEST PUSH1 0x9 SLOAD CALLVALUE LT PUSH2 0xF74 JUMPI DUP4 MLOAD ISZERO PUSH2 0xF2F JUMPI PUSH1 0x40 MLOAD PUSH1 0x20 DUP2 DUP7 MLOAD PUSH2 0x44A DUP2 DUP4 DUP6 DUP12 ADD PUSH2 0x2027 JUMP JUMPDEST DUP2 ADD PUSH1 0x4 DUP2 MSTORE SUB ADD SWAP1 KECCAK256 SLOAD PUSH2 0xEEA JUMPI PUSH1 0x64 CALLDATALOAD ISZERO PUSH2 0xEA6 JUMPI PUSH2 0x46C PUSH1 0x2 SLOAD PUSH2 0x2282 JUMP JUMPDEST SWAP5 DUP6 PUSH1 0x2 SSTORE DUP6 PUSH1 0x0 MSTORE PUSH1 0x3 PUSH1 0x20 MSTORE PUSH1 0x40 PUSH1 0x0 KECCAK256 SWAP2 DUP7 DUP4 SSTORE DUP6 MLOAD PUSH1 0x1 PUSH1 0x1 PUSH1 0x40 SHL SUB DUP2 GT PUSH2 0x9EB JUMPI PUSH2 0x4A0 PUSH1 0x1 DUP6 ADD SLOAD PUSH2 0x206F JUMP JUMPDEST PUSH1 0x1F DUP2 GT PUSH2 0xE5F JUMPI JUMPDEST POP DUP1 PUSH1 0x20 PUSH1 0x1F DUP3 GT PUSH1 0x1 EQ PUSH2 0xDF2 JUMPI PUSH1 0x0 SWAP2 PUSH2 0xDE7 JUMPI JUMPDEST POP DUP2 PUSH1 0x1 SHL SWAP2 PUSH1 0x0 NOT SWAP1 PUSH1 0x3 SHL SHR NOT AND OR PUSH1 0x1 DUP5 ADD SSTORE JUMPDEST DUP5 MLOAD PUSH1 0x1 PUSH1 0x1 PUSH1 0x40 SHL SUB DUP2 GT PUSH2 0x9EB JUMPI PUSH2 0x4F4 PUSH1 0x2 DUP6 ADD SLOAD PUSH2 0x206F JUMP JUMPDEST PUSH1 0x1F DUP2 GT PUSH2 0xDA0 JUMPI JUMPDEST POP DUP1 PUSH1 0x20 PUSH1 0x1F DUP3 GT PUSH1 0x1 EQ PUSH2 0xD33 JUMPI PUSH1 0x0 SWAP2 PUSH2 0xD28 JUMPI JUMPDEST POP DUP2 PUSH1 0x1 SHL SWAP2 PUSH1 0x0 NOT SWAP1 PUSH1 0x3 SHL SHR NOT AND OR PUSH1 0x2 DUP5 ADD SSTORE JUMPDEST DUP8 MLOAD PUSH1 0x1 PUSH1 0x1 PUSH1 0x40 SHL SUB DUP2 GT PUSH2 0x9EB JUMPI PUSH2 0x548 PUSH1 0x3 DUP6 ADD SLOAD PUSH2 0x206F JUMP JUMPDEST PUSH1 0x1F DUP2 GT PUSH2 0xCE1 JUMPI JUMPDEST POP DUP1 PUSH1 0x20 PUSH1 0x1F DUP3 GT PUSH1 0x1 EQ PUSH2 0xC73 JUMPI PUSH1 0x0 SWAP2 PUSH2 0xC68 JUMPI JUMPDEST POP DUP2 PUSH1 0x1 SHL SWAP2 PUSH1 0x0 NOT SWAP1 PUSH1 0x3 SHL SHR NOT AND OR PUSH1 0x3 DUP5 ADD SSTORE JUMPDEST PUSH1 0x64 CALLDATALOAD PUSH1 0x4 DUP5 ADD SSTORE DUP1 MLOAD SWAP1 PUSH1 0x1 PUSH1 0x1 PUSH1 0x40 SHL SUB DUP3 GT PUSH2 0x9EB JUMPI DUP2 SWAP1 PUSH2 0x5A7 PUSH1 0x5 DUP7 ADD SLOAD PUSH2 0x206F JUMP JUMPDEST PUSH1 0x1F DUP2 GT PUSH2 0xC15 JUMPI JUMPDEST POP PUSH1 0x20 SWAP1 PUSH1 0x1F DUP4 GT PUSH1 0x1 EQ PUSH2 0xBA3 JUMPI PUSH1 0x0 SWAP3 PUSH2 0xB98 JUMPI JUMPDEST POP POP DUP2 PUSH1 0x1 SHL SWAP2 PUSH1 0x0 NOT SWAP1 PUSH1 0x3 SHL SHR NOT AND OR PUSH1 0x5 DUP4 ADD SSTORE JUMPDEST TIMESTAMP PUSH1 0x6 DUP4 ADD SSTORE DUP1 MLOAD SWAP1 PUSH1 0x1 PUSH1 0x1 PUSH1 0x40 SHL SUB DUP3 GT PUSH2 0x9EB JUMPI DUP2 SWAP1 PUSH2 0x605 PUSH1 0x7 DUP6 ADD SLOAD PUSH2 0x206F JUMP JUMPDEST PUSH1 0x1F DUP2 GT PUSH2 0xB45 JUMPI JUMPDEST POP PUSH1 0x20 SWAP1 PUSH1 0x1F DUP4 GT PUSH1 0x1 EQ PUSH2 0xAD3 JUMPI PUSH1 0x0 SWAP3 PUSH2 0xAC8 JUMPI JUMPDEST POP POP DUP2 PUSH1 0x1 SHL SWAP2 PUSH1 0x0 NOT SWAP1 PUSH1 0x3 SHL SHR NOT AND OR PUSH1 0x7 DUP3 ADD SSTORE JUMPDEST PUSH1 0x8 DUP2 ADD DUP1 SLOAD PUSH2 0xFF01 PUSH1 0x1 PUSH1 0xB0 SHL SUB NOT AND CALLER PUSH1 0x10 SHL PUSH3 0x10000 PUSH1 0x1 PUSH1 0xB0 SHL SUB AND OR PUSH1 0x1 OR SWAP1 SSTORE CALLVALUE PUSH1 0x9 SWAP1 SWAP2 ADD SSTORE PUSH1 0x40 MLOAD DUP4 MLOAD DUP6 SWAP2 SWAP1 PUSH1 0x20 SWAP1 DUP3 SWAP1 PUSH2 0x684 DUP2 DUP4 DUP11 DUP7 ADD PUSH2 0x2027 JUMP JUMPDEST DUP2 ADD PUSH1 0x4 DUP2 MSTORE SUB ADD SWAP1 KECCAK256 SSTORE CALLER PUSH1 0x0 MSTORE PUSH1 0x5 PUSH1 0x20 MSTORE PUSH1 0x40 PUSH1 0x0 KECCAK256 DUP1 SLOAD PUSH9 0x10000000000000000 DUP2 LT ISZERO PUSH2 0x9EB JUMPI PUSH2 0x6BF SWAP2 PUSH1 0x1 DUP3 ADD DUP2 SSTORE PUSH2 0x2228 JUMP JUMPDEST DUP2 SLOAD SWAP1 PUSH1 0x3 SHL SWAP1 DUP7 DUP3 SHL SWAP2 PUSH1 0x0 NOT SWAP1 SHL NOT AND OR SWAP1 SSTORE DUP1 MLOAD PUSH2 0x753 JUMPI JUMPDEST POP PUSH32 0x571FEA5DFBF2DCE9FEE7C666BEBF48F779468CB4747489FFD907E93CB1F558BD PUSH2 0x738 PUSH1 0x20 SWAP6 PUSH2 0x72A DUP7 SWAP5 PUSH2 0x71D PUSH1 0x40 MLOAD SWAP8 PUSH1 0x80 DUP10 MSTORE PUSH1 0x80 DUP10 ADD SWAP1 PUSH2 0x204A JUMP JUMPDEST SWAP1 DUP8 DUP3 SUB DUP11 DUP10 ADD MSTORE PUSH2 0x204A JUMP JUMPDEST SWAP1 DUP6 DUP3 SUB PUSH1 0x40 DUP8 ADD MSTORE PUSH2 0x204A JUMP JUMPDEST SWAP3 PUSH1 0x64 CALLDATALOAD PUSH1 0x60 DUP3 ADD MSTORE DUP1 CALLER SWAP5 SUB SWAP1 LOG3 PUSH1 0x1 DUP1 SSTORE PUSH1 0x40 MLOAD SWAP1 DUP2 MSTORE RETURN JUMPDEST PUSH1 0x40 MLOAD SWAP1 PUSH2 0x760 DUP3 PUSH2 0x20A9 JUMP JUMPDEST DUP2 MSTORE PUSH1 0xE4 CALLDATALOAD PUSH1 0x20 DUP3 ADD MSTORE PUSH2 0x104 CALLDATALOAD PUSH1 0x40 DUP3 ADD MSTORE PUSH1 0x1 PUSH1 0x60 DUP3 ADD MSTORE PUSH1 0x40 MLOAD DUP1 PUSH1 0x20 DUP2 ADD LT PUSH1 0x1 PUSH1 0x1 PUSH1 0x40 SHL SUB PUSH1 0x20 DUP4 ADD GT OR PUSH2 0x9EB JUMPI PUSH1 0x20 DUP2 ADD PUSH1 0x40 MSTORE PUSH1 0x0 DUP2 MSTORE PUSH1 0x80 DUP3 ADD MSTORE PUSH1 0x0 PUSH1 0xA0 DUP3 ADD MSTORE PUSH1 0x0 PUSH1 0xC0 DUP3 ADD MSTORE DUP4 PUSH1 0x0 MSTORE PUSH1 0x6 PUSH1 0x20 MSTORE PUSH1 0x40 PUSH1 0x0 KECCAK256 SWAP1 DUP1 MLOAD DUP1 MLOAD SWAP1 PUSH1 0x1 PUSH1 0x1 PUSH1 0x40 SHL SUB DUP3 GT PUSH2 0x9EB JUMPI DUP2 SWAP1 PUSH2 0x7E1 DUP6 SLOAD PUSH2 0x206F JUMP JUMPDEST PUSH1 0x1F DUP2 GT PUSH2 0xA78 JUMPI JUMPDEST POP PUSH1 0x20 SWAP1 PUSH1 0x1F DUP4 GT PUSH1 0x1 EQ PUSH2 0xA0C JUMPI PUSH1 0x0 SWAP3 PUSH2 0xA01 JUMPI JUMPDEST POP POP DUP2 PUSH1 0x1 SHL SWAP2 PUSH1 0x0 NOT SWAP1 PUSH1 0x3 SHL SHR NOT AND OR DUP3 SSTORE JUMPDEST PUSH1 0x20 DUP2 ADD MLOAD PUSH1 0x1 DUP4 ADD SSTORE PUSH1 0x40 DUP2 ADD MLOAD PUSH1 0x2 DUP4 ADD SSTORE PUSH2 0x849 PUSH1 0x60 DUP3 ADD MLOAD ISZERO ISZERO PUSH1 0x3 DUP5 ADD SWAP1 PUSH1 0xFF DUP1 NOT DUP4 SLOAD AND SWAP2 ISZERO ISZERO AND OR SWAP1 SSTORE JUMP JUMPDEST PUSH1 0x80 DUP2 ADD MLOAD DUP1 MLOAD SWAP1 PUSH1 0x1 PUSH1 0x1 PUSH1 0x40 SHL SUB DUP3 GT PUSH2 0x9EB JUMPI PUSH2 0x86C PUSH1 0x4 DUP6 ADD SLOAD PUSH2 0x206F JUMP JUMPDEST PUSH1 0x1F DUP2 GT PUSH2 0x9A4 JUMPI JUMPDEST POP SWAP2 PUSH1 0x20 SWAP8 SWAP4 SWAP2 DUP8 SWAP6 SWAP4 DUP10 SWAP1 PUSH1 0x1F DUP4 GT PUSH1 0x1 EQ PUSH2 0x904 JUMPI PUSH1 0xC0 PUSH2 0x72A SWAP5 DUP5 PUSH2 0x738 SWAP9 SWAP6 PUSH32 0x571FEA5DFBF2DCE9FEE7C666BEBF48F779468CB4747489FFD907E93CB1F558BD SWAP11 SWAP9 SWAP6 PUSH1 0x6 SWAP6 PUSH1 0x0 SWAP3 PUSH2 0x8F9 JUMPI JUMPDEST POP POP DUP2 PUSH1 0x1 SHL SWAP2 PUSH1 0x0 NOT SWAP1 PUSH1 0x3 SHL SHR NOT AND OR PUSH1 0x4 DUP6 ADD SSTORE JUMPDEST PUSH1 0xA0 DUP2 ADD MLOAD PUSH1 0x5 DUP6 ADD SSTORE ADD MLOAD SWAP2 ADD SSTORE SWAP5 POP POP SWAP6 POP POP PUSH2 0x6DB JUMP JUMPDEST ADD MLOAD SWAP1 POP DUP16 DUP1 PUSH2 0x8C7 JUMP JUMPDEST SWAP1 PUSH1 0x4 DUP6 ADD PUSH1 0x0 MSTORE DUP11 PUSH1 0x0 KECCAK256 SWAP2 PUSH1 0x0 JUMPDEST PUSH1 0x1F NOT DUP6 AND DUP2 LT PUSH2 0x98A JUMPI POP PUSH2 0x72A SWAP5 PUSH1 0x1 DUP6 PUSH32 0x571FEA5DFBF2DCE9FEE7C666BEBF48F779468CB4747489FFD907E93CB1F558BD SWAP11 SWAP9 SWAP6 PUSH1 0x6 SWAP6 PUSH1 0xC0 SWAP6 PUSH2 0x738 SWAP13 SWAP10 PUSH1 0x1F NOT DUP2 AND LT PUSH2 0x971 JUMPI JUMPDEST POP POP POP DUP2 SHL ADD PUSH1 0x4 DUP6 ADD SSTORE PUSH2 0x8DF JUMP JUMPDEST ADD MLOAD PUSH1 0x0 NOT PUSH1 0xF8 DUP5 PUSH1 0x3 SHL AND SHR NOT AND SWAP1 SSTORE DUP16 DUP1 DUP1 PUSH2 0x961 JUMP JUMPDEST DUP2 DUP4 ADD MLOAD DUP5 SSTORE DUP12 SWAP10 POP PUSH1 0x1 SWAP1 SWAP4 ADD SWAP3 SWAP2 DUP13 ADD SWAP2 DUP13 ADD PUSH2 0x914 JUMP JUMPDEST PUSH1 0x4 DUP6 ADD PUSH1 0x0 MSTORE PUSH1 0x20 PUSH1 0x0 KECCAK256 PUSH1 0x1F DUP5 ADD PUSH1 0x5 SHR DUP2 ADD PUSH1 0x20 DUP6 LT PUSH2 0x9E4 JUMPI JUMPDEST PUSH1 0x1F DUP4 ADD PUSH1 0x5 SHR DUP3 ADD DUP2 LT PUSH2 0x9D8 JUMPI POP POP PUSH2 0x875 JUMP JUMPDEST PUSH1 0x0 DUP2 SSTORE PUSH1 0x1 ADD PUSH2 0x9C2 JUMP JUMPDEST POP DUP1 PUSH2 0x9C2 JUMP JUMPDEST PUSH4 0x4E487B71 PUSH1 0xE0 SHL PUSH1 0x0 MSTORE PUSH1 0x41 PUSH1 0x4 MSTORE PUSH1 0x24 PUSH1 0x0 REVERT JUMPDEST ADD MLOAD SWAP1 POP DUP9 DUP1 PUSH2 0x801 JUMP JUMPDEST SWAP3 POP DUP5 PUSH1 0x0 MSTORE PUSH1 0x20 PUSH1 0x0 KECCAK256 SWAP1 PUSH1 0x0 SWAP4 JUMPDEST PUSH1 0x1F NOT DUP5 AND DUP6 LT PUSH2 0xA5D JUMPI PUSH1 0x1 SWAP5 POP DUP4 PUSH1 0x1F NOT DUP2 AND LT PUSH2 0xA44 JUMPI JUMPDEST POP POP POP DUP2 SHL ADD DUP3 SSTORE PUSH2 0x816 JUMP JUMPDEST ADD MLOAD PUSH1 0x0 NOT PUSH1 0xF8 DUP5 PUSH1 0x3 SHL AND SHR NOT AND SWAP1 SSTORE DUP9 DUP1 DUP1 PUSH2 0xA37 JUMP JUMPDEST DUP2 DUP2 ADD MLOAD DUP4 SSTORE PUSH1 0x20 SWAP5 DUP6 ADD SWAP5 PUSH1 0x1 SWAP1 SWAP4 ADD SWAP3 SWAP1 SWAP2 ADD SWAP1 PUSH2 0xA1C JUMP JUMPDEST SWAP1 SWAP2 POP DUP5 PUSH1 0x0 MSTORE PUSH1 0x20 PUSH1 0x0 KECCAK256 PUSH1 0x1F DUP5 ADD PUSH1 0x5 SHR DUP2 ADD PUSH1 0x20 DUP6 LT PUSH2 0xAC1 JUMPI JUMPDEST SWAP1 DUP5 SWAP4 SWAP3 SWAP2 JUMPDEST PUSH1 0x1F DUP4 ADD PUSH1 0x5 SHR DUP3 ADD DUP2 LT PUSH2 0xAB2 JUMPI POP POP PUSH2 0x7EA JUMP JUMPDEST PUSH1 0x0 DUP2 SSTORE DUP6 SWAP5 POP PUSH1 0x1 ADD PUSH2 0xA9C JUMP JUMPDEST POP DUP1 PUSH2 0xA96 JUMP JUMPDEST ADD MLOAD SWAP1 POP DUP9 DUP1 PUSH2 0x625 JUMP JUMPDEST SWAP3 POP PUSH1 0x7 DUP5 ADD PUSH1 0x0 MSTORE PUSH1 0x20 PUSH1 0x0 KECCAK256 SWAP1 PUSH1 0x0 SWAP4 JUMPDEST PUSH1 0x1F NOT DUP5 AND DUP6 LT PUSH2 0xB2A JUMPI PUSH1 0x1 SWAP5 POP DUP4 PUSH1 0x1F NOT DUP2 AND LT PUSH2 0xB11 JUMPI JUMPDEST POP POP POP DUP2 SHL ADD PUSH1 0x7 DUP3 ADD SSTORE PUSH2 0x63D JUMP JUMPDEST ADD MLOAD PUSH1 0x0 NOT PUSH1 0xF8 DUP5 PUSH1 0x3 SHL AND SHR NOT AND SWAP1 SSTORE DUP9 DUP1 DUP1 PUSH2 0xB01 JUMP JUMPDEST DUP2 DUP2 ADD MLOAD DUP4 SSTORE PUSH1 0x20 SWAP5 DUP6 ADD SWAP5 PUSH1 0x1 SWAP1 SWAP4 ADD SWAP3 SWAP1 SWAP2 ADD SWAP1 PUSH2 0xAE6 JUMP JUMPDEST SWAP1 SWAP2 POP PUSH1 0x7 DUP5 ADD PUSH1 0x0 MSTORE PUSH1 0x20 PUSH1 0x0 KECCAK256 PUSH1 0x1F DUP5 ADD PUSH1 0x5 SHR DUP2 ADD PUSH1 0x20 DUP6 LT PUSH2 0xB91 JUMPI JUMPDEST SWAP1 DUP5 SWAP4 SWAP3 SWAP2 JUMPDEST PUSH1 0x1F DUP4 ADD PUSH1 0x5 SHR DUP3 ADD DUP2 LT PUSH2 0xB82 JUMPI POP POP PUSH2 0x60E JUMP JUMPDEST PUSH1 0x0 DUP2 SSTORE DUP6 SWAP5 POP PUSH1 0x1 ADD PUSH2 0xB6C JUMP JUMPDEST POP DUP1 PUSH2 0xB66 JUMP JUMPDEST ADD MLOAD SWAP1 POP DUP10 DUP1 PUSH2 0x5C7 JUMP JUMPDEST SWAP3 POP PUSH1 0x5 DUP6 ADD PUSH1 0x0 MSTORE PUSH1 0x20 PUSH1 0x0 KECCAK256 SWAP1 PUSH1 0x0 SWAP4 JUMPDEST PUSH1 0x1F NOT DUP5 AND DUP6 LT PUSH2 0xBFA JUMPI PUSH1 0x1 SWAP5 POP DUP4 PUSH1 0x1F NOT DUP2 AND LT PUSH2 0xBE1 JUMPI JUMPDEST POP POP POP DUP2 SHL ADD PUSH1 0x5 DUP4 ADD SSTORE PUSH2 0x5DF JUMP JUMPDEST ADD MLOAD PUSH1 0x0 NOT PUSH1 0xF8 DUP5 PUSH1 0x3 SHL AND SHR NOT AND SWAP1 SSTORE DUP10 DUP1 DUP1 PUSH2 0xBD1 JUMP JUMPDEST DUP2 DUP2 ADD MLOAD DUP4 SSTORE PUSH1 0x20 SWAP5 DUP6 ADD SWAP5 PUSH1 0x1 SWAP1 SWAP4 ADD SWAP3 SWAP1 SWAP2 ADD SWAP1 PUSH2 0xBB6 JUMP JUMPDEST SWAP1 SWAP2 POP PUSH1 0x5 DUP6 ADD PUSH1 0x0 MSTORE PUSH1 0x20 PUSH1 0x0 KECCAK256 PUSH1 0x1F DUP5 ADD PUSH1 0x5 SHR DUP2 ADD PUSH1 0x20 DUP6 LT PUSH2 0xC61 JUMPI JUMPDEST SWAP1 DUP5 SWAP4 SWAP3 SWAP2 JUMPDEST PUSH1 0x1F DUP4 ADD PUSH1 0x5 SHR DUP3 ADD DUP2 LT PUSH2 0xC52 JUMPI POP POP PUSH2 0x5B0 JUMP JUMPDEST PUSH1 0x0 DUP2 SSTORE DUP6 SWAP5 POP PUSH1 0x1 ADD PUSH2 0xC3C JUMP JUMPDEST POP DUP1 PUSH2 0xC36 JUMP JUMPDEST SWAP1 POP DUP10 ADD MLOAD DUP11 PUSH2 0x568 JUMP JUMPDEST SWAP2 POP PUSH1 0x3 DUP6 ADD PUSH1 0x0 MSTORE PUSH1 0x20 PUSH1 0x0 KECCAK256 PUSH1 0x0 SWAP3 JUMPDEST DUP12 PUSH1 0x1F NOT DUP5 AND DUP6 LT PUSH2 0xCCA JUMPI POP PUSH1 0x1 SWAP4 POP DUP3 PUSH1 0x1F NOT DUP2 AND LT PUSH2 0xCB1 JUMPI JUMPDEST POP POP DUP2 SHL ADD PUSH1 0x3 DUP5 ADD SSTORE PUSH2 0x57F JUMP JUMPDEST DUP12 ADD MLOAD PUSH1 0x0 NOT PUSH1 0xF8 DUP5 PUSH1 0x3 SHL AND SHR NOT AND SWAP1 SSTORE DUP11 DUP1 PUSH2 0xCA2 JUMP JUMPDEST DUP2 ADD MLOAD DUP3 SSTORE PUSH1 0x20 SWAP4 DUP5 ADD SWAP4 PUSH1 0x1 SWAP1 SWAP3 ADD SWAP2 ADD PUSH2 0xC85 JUMP JUMPDEST PUSH1 0x3 DUP6 ADD PUSH1 0x0 MSTORE PUSH1 0x20 PUSH1 0x0 KECCAK256 PUSH1 0x1F DUP4 ADD PUSH1 0x5 SHR DUP2 ADD PUSH1 0x20 DUP5 LT PUSH2 0xD21 JUMPI JUMPDEST PUSH1 0x1F DUP4 ADD PUSH1 0x5 SHR DUP3 ADD DUP2 LT PUSH2 0xD15 JUMPI POP POP PUSH2 0x551 JUMP JUMPDEST PUSH1 0x0 DUP2 SSTORE PUSH1 0x1 ADD PUSH2 0xCFF JUMP JUMPDEST POP DUP1 PUSH2 0xCFF JUMP JUMPDEST SWAP1 POP DUP7 ADD MLOAD DUP11 PUSH2 0x514 JUMP JUMPDEST SWAP2 POP PUSH1 0x2 DUP6 ADD PUSH1 0x0 MSTORE PUSH1 0x20 PUSH1 0x0 KECCAK256 PUSH1 0x0 SWAP3 JUMPDEST PUSH1 0x1F NOT DUP4 AND DUP5 LT PUSH2 0xD88 JUMPI PUSH1 0x1 SWAP4 POP DUP3 PUSH1 0x1F NOT DUP2 AND LT PUSH2 0xD6F JUMPI JUMPDEST POP POP DUP2 SHL ADD PUSH1 0x2 DUP5 ADD SSTORE PUSH2 0x52B JUMP JUMPDEST DUP9 ADD MLOAD PUSH1 0x0 NOT PUSH1 0xF8 DUP5 PUSH1 0x3 SHL AND SHR NOT AND SWAP1 SSTORE DUP11 DUP1 PUSH2 0xD60 JUMP JUMPDEST DUP9 DUP2 ADD MLOAD DUP3 SSTORE PUSH1 0x20 SWAP4 DUP5 ADD SWAP4 PUSH1 0x1 SWAP1 SWAP3 ADD SWAP2 ADD PUSH2 0xD45 JUMP JUMPDEST PUSH1 0x2 DUP6 ADD PUSH1 0x0 MSTORE PUSH1 0x20 PUSH1 0x0 KECCAK256 PUSH1 0x1F DUP4 ADD PUSH1 0x5 SHR DUP2 ADD PUSH1 0x20 DUP5 LT PUSH2 0xDE0 JUMPI JUMPDEST PUSH1 0x1F DUP4 ADD PUSH1 0x5 SHR DUP3 ADD DUP2 LT PUSH2 0xDD4 JUMPI POP POP PUSH2 0x4FD JUMP JUMPDEST PUSH1 0x0 DUP2 SSTORE PUSH1 0x1 ADD PUSH2 0xDBE JUMP JUMPDEST POP DUP1 PUSH2 0xDBE JUMP JUMPDEST SWAP1 POP DUP8 ADD MLOAD DUP11 PUSH2 0x4C0 JUMP JUMPDEST SWAP2 POP PUSH1 0x1 DUP6 ADD PUSH1 0x0 MSTORE PUSH1 0x20 PUSH1 0x0 KECCAK256 PUSH1 0x0 SWAP3 JUMPDEST PUSH1 0x1F NOT DUP4 AND DUP5 LT PUSH2 0xE47 JUMPI PUSH1 0x1 SWAP4 POP DUP3 PUSH1 0x1F NOT DUP2 AND LT PUSH2 0xE2E JUMPI JUMPDEST POP POP DUP2 SHL ADD PUSH1 0x1 DUP5 ADD SSTORE PUSH2 0x4D7 JUMP JUMPDEST DUP10 ADD MLOAD PUSH1 0x0 NOT PUSH1 0xF8 DUP5 PUSH1 0x3 SHL AND SHR NOT AND SWAP1 SSTORE DUP11 DUP1 PUSH2 0xE1F JUMP JUMPDEST DUP10 DUP2 ADD MLOAD DUP3 SSTORE PUSH1 0x20 SWAP4 DUP5 ADD SWAP4 PUSH1 0x1 SWAP1 SWAP3 ADD SWAP2 ADD PUSH2 0xE04 JUMP JUMPDEST PUSH1 0x1 DUP6 ADD PUSH1 0x0 MSTORE PUSH1 0x20 PUSH1 0x0 KECCAK256 PUSH1 0x1F DUP4 ADD PUSH1 0x5 SHR DUP2 ADD PUSH1 0x20 DUP5 LT PUSH2 0xE9F JUMPI JUMPDEST PUSH1 0x1F DUP4 ADD PUSH1 0x5 SHR DUP3 ADD DUP2 LT PUSH2 0xE93 JUMPI POP POP PUSH2 0x4A9 JUMP JUMPDEST PUSH1 0x0 DUP2 SSTORE PUSH1 0x1 ADD PUSH2 0xE7D JUMP JUMPDEST POP DUP1 PUSH2 0xE7D JUMP JUMPDEST PUSH1 0x64 PUSH1 0x40 MLOAD PUSH3 0x461BCD PUSH1 0xE5 SHL DUP2 MSTORE PUSH1 0x20 PUSH1 0x4 DUP3 ADD MSTORE PUSH1 0x20 PUSH1 0x24 DUP3 ADD MSTORE PUSH32 0x46696C652073697A65206D7573742062652067726561746572207468616E2030 PUSH1 0x44 DUP3 ADD MSTORE REVERT JUMPDEST PUSH1 0x40 MLOAD PUSH3 0x461BCD PUSH1 0xE5 SHL DUP2 MSTORE PUSH1 0x20 PUSH1 0x4 DUP3 ADD MSTORE PUSH1 0x1A PUSH1 0x24 DUP3 ADD MSTORE PUSH32 0x436F6E74656E7420616C72656164792072656769737465726564000000000000 PUSH1 0x44 DUP3 ADD MSTORE PUSH1 0x64 SWAP1 REVERT JUMPDEST PUSH1 0x40 MLOAD PUSH3 0x461BCD PUSH1 0xE5 SHL DUP2 MSTORE PUSH1 0x20 PUSH1 0x4 DUP3 ADD MSTORE PUSH1 0x19 PUSH1 0x24 DUP3 ADD MSTORE PUSH32 0x4950465320686173682063616E6E6F7420626520656D70747900000000000000 PUSH1 0x44 DUP3 ADD MSTORE PUSH1 0x64 SWAP1 REVERT JUMPDEST PUSH1 0x40 MLOAD PUSH3 0x461BCD PUSH1 0xE5 SHL DUP2 MSTORE PUSH1 0x20 PUSH1 0x4 DUP3 ADD MSTORE PUSH1 0x1D PUSH1 0x24 DUP3 ADD MSTORE PUSH32 0x496E73756666696369656E7420726567697374726174696F6E20666565000000 PUSH1 0x44 DUP3 ADD MSTORE PUSH1 0x64 SWAP1 REVERT JUMPDEST CALLVALUE PUSH2 0x2BF JUMPI PUSH1 0x60 CALLDATASIZE PUSH1 0x3 NOT ADD SLT PUSH2 0x2BF JUMPI PUSH1 0x4 CALLDATALOAD PUSH2 0xFD5 PUSH2 0x2011 JUMP JUMPDEST SWAP1 PUSH32 0x41E0D021D469555671D03F8D790657BD0E4C5796D6363C1C8355E655684CCF6 PUSH1 0x44 CALLDATALOAD DUP3 PUSH1 0x0 MSTORE PUSH1 0x20 SWAP1 PUSH1 0x3 DUP3 MSTORE PUSH2 0x1019 PUSH1 0xFF PUSH1 0x8 PUSH1 0x40 PUSH1 0x0 KECCAK256 ADD SLOAD AND PUSH2 0x22B4 JUMP JUMPDEST DUP4 PUSH1 0x0 MSTORE PUSH1 0x3 DUP3 MSTORE PUSH1 0x1 DUP1 PUSH1 0xA0 SHL SUB PUSH2 0x1040 DUP2 PUSH1 0x8 PUSH1 0x40 PUSH1 0x0 KECCAK256 ADD SLOAD PUSH1 0x10 SHR AND CALLER EQ PUSH2 0x2306 JUMP JUMPDEST DUP5 PUSH1 0x0 MSTORE PUSH1 0x3 DUP4 MSTORE PUSH1 0xC PUSH1 0x40 PUSH1 0x0 KECCAK256 ADD SWAP6 AND SWAP5 DUP6 PUSH1 0x0 MSTORE DUP3 MSTORE PUSH1 0x40 PUSH1 0x0 KECCAK256 PUSH1 0x1 PUSH1 0xFF NOT DUP3 SLOAD AND OR SWAP1 SSTORE DUP4 PUSH1 0x0 MSTORE PUSH1 0x3 DUP3 MSTORE PUSH1 0xD PUSH1 0x40 PUSH1 0x0 KECCAK256 ADD DUP6 PUSH1 0x0 MSTORE DUP3 MSTORE DUP1 PUSH1 0x40 PUSH1 0x0 KECCAK256 SSTORE PUSH1 0x40 MLOAD SWAP1 DUP2 MSTORE LOG3 STOP JUMPDEST CALLVALUE PUSH2 0x2BF JUMPI PUSH1 0x40 CALLDATASIZE PUSH1 0x3 NOT ADD SLT PUSH2 0x2BF JUMPI PUSH1 0x4 CALLDATALOAD PUSH2 0x10AB PUSH2 0x2011 JUMP JUMPDEST SWAP1 DUP1 PUSH1 0x0 MSTORE PUSH1 0x20 PUSH1 0x3 DUP2 MSTORE PUSH2 0x10CA PUSH1 0xFF PUSH1 0x8 PUSH1 0x40 PUSH1 0x0 KECCAK256 ADD SLOAD AND PUSH2 0x22B4 JUMP JUMPDEST DUP2 PUSH1 0x0 MSTORE PUSH1 0x3 DUP2 MSTORE PUSH1 0x1 DUP1 PUSH1 0xA0 SHL SUB PUSH2 0x10F1 DUP2 PUSH1 0x8 PUSH1 0x40 PUSH1 0x0 KECCAK256 ADD SLOAD PUSH1 0x10 SHR AND CALLER EQ PUSH2 0x2306 JUMP JUMPDEST DUP3 PUSH1 0x0 MSTORE PUSH1 0x3 DUP3 MSTORE PUSH1 0xC PUSH1 0x40 PUSH1 0x0 KECCAK256 ADD SWAP4 AND SWAP3 DUP4 PUSH1 0x0 MSTORE DUP2 MSTORE PUSH1 0x40 PUSH1 0x0 KECCAK256 PUSH1 0xFF NOT DUP2 SLOAD AND SWAP1 SSTORE DUP2 PUSH1 0x0 MSTORE PUSH1 0x3 DUP2 MSTORE PUSH1 0xD PUSH1 0x40 PUSH1 0x0 KECCAK256 ADD SWAP1 DUP4 PUSH1 0x0 MSTORE MSTORE PUSH1 0x0 PUSH1 0x40 DUP2 KECCAK256 SSTORE PUSH32 0x1357340E50A760852A288A8420CC3F20D86CD3DEEDA14CD750949FF90BDD291E PUSH1 0x0 DUP1 LOG3 STOP JUMPDEST CALLVALUE PUSH2 0x2BF JUMPI PUSH1 0x0 CALLDATASIZE PUSH1 0x3 NOT ADD SLT PUSH2 0x2BF JUMPI PUSH2 0x1174 PUSH2 0x2256 JUMP JUMPDEST PUSH1 0x0 DUP1 SLOAD DUP2 SWAP1 DUP2 SWAP1 DUP2 SWAP1 SELFBALANCE SWAP1 PUSH1 0x1 PUSH1 0x1 PUSH1 0xA0 SHL SUB AND DUP3 DUP3 ISZERO PUSH2 0x11A5 JUMPI JUMPDEST CALL ISZERO PUSH2 0x1199 JUMPI STOP JUMPDEST PUSH1 0x40 MLOAD RETURNDATASIZE PUSH1 0x0 DUP3 RETURNDATACOPY RETURNDATASIZE SWAP1 REVERT JUMPDEST POP PUSH2 0x8FC PUSH2 0x1191 JUMP JUMPDEST CALLVALUE PUSH2 0x2BF JUMPI PUSH1 0x20 CALLDATASIZE PUSH1 0x3 NOT ADD SLT PUSH2 0x2BF JUMPI PUSH1 0x4 CALLDATALOAD PUSH1 0x1 PUSH1 0x1 PUSH1 0x40 SHL SUB DUP2 GT PUSH2 0x2BF JUMPI PUSH2 0x11F7 PUSH1 0x20 PUSH2 0x11E4 DUP2 SWAP4 CALLDATASIZE SWAP1 PUSH1 0x4 ADD PUSH2 0x21D2 JUMP JUMPDEST DUP2 PUSH1 0x40 MLOAD SWAP4 DUP3 DUP6 DUP1 SWAP5 MLOAD SWAP4 DUP5 SWAP3 ADD PUSH2 0x2027 JUMP JUMPDEST DUP2 ADD PUSH1 0x4 DUP2 MSTORE SUB ADD SWAP1 KECCAK256 SLOAD PUSH1 0x40 MLOAD SWAP1 DUP2 MSTORE RETURN JUMPDEST PUSH1 0x20 DUP1 PUSH1 0x3 NOT CALLDATASIZE ADD SLT PUSH2 0x2BF JUMPI PUSH1 0x4 CALLDATALOAD PUSH2 0x1222 PUSH2 0x2291 JUMP JUMPDEST DUP1 PUSH1 0x0 MSTORE PUSH1 0x3 DUP3 MSTORE PUSH2 0x123E PUSH1 0xFF PUSH1 0x8 PUSH1 0x40 PUSH1 0x0 KECCAK256 ADD SLOAD AND PUSH2 0x22B4 JUMP JUMPDEST DUP1 PUSH1 0x0 MSTORE PUSH1 0x6 DUP3 MSTORE PUSH1 0x40 PUSH1 0x0 KECCAK256 PUSH1 0xFF PUSH1 0x3 DUP3 ADD SLOAD AND ISZERO PUSH2 0x13D2 JUMPI PUSH1 0x1 DUP2 ADD SLOAD DUP1 CALLVALUE LT PUSH2 0x1396 JUMPI PUSH1 0xB SLOAD DUP1 DUP3 MUL SWAP1 DUP3 DUP3 DIV EQ DUP3 ISZERO OR ISZERO PUSH2 0x1380 JUMPI PUSH2 0x2710 SWAP1 DIV DUP1 DUP3 SUB SWAP2 DUP1 DUP4 GT PUSH2 0x1380 JUMPI PUSH1 0x1 DUP1 PUSH1 0xA0 SHL SUB PUSH1 0x0 DUP1 DUP1 DUP1 DUP7 DUP6 DUP3 SLOAD AND DUP3 DUP3 ISZERO PUSH2 0x1377 JUMPI JUMPDEST CALL ISZERO PUSH2 0x1199 JUMPI PUSH1 0x0 SWAP4 DUP5 SWAP4 DUP5 SWAP4 DUP5 SWAP4 DUP10 DUP6 MSTORE PUSH1 0x3 DUP12 MSTORE PUSH1 0x8 PUSH1 0x40 DUP7 KECCAK256 ADD SLOAD PUSH1 0x10 SHR AND SWAP2 DUP5 SWAP2 EQ PUSH2 0x136E JUMPI JUMPDEST CALL ISZERO PUSH2 0x1199 JUMPI PUSH2 0x135E PUSH32 0x41E0D021D469555671D03F8D790657BD0E4C5796D6363C1C8355E655684CCF6 SWAP2 DUP4 PUSH1 0x0 MSTORE PUSH1 0x3 DUP6 MSTORE PUSH1 0xC PUSH1 0x40 PUSH1 0x0 KECCAK256 ADD CALLER PUSH1 0x0 MSTORE DUP6 MSTORE PUSH1 0x40 PUSH1 0x0 KECCAK256 PUSH1 0x1 PUSH1 0xFF NOT DUP3 SLOAD AND OR SWAP1 SSTORE PUSH1 0x6 PUSH1 0x2 DUP3 ADD SWAP2 PUSH2 0x132E DUP4 SLOAD TIMESTAMP PUSH2 0x22F9 JUMP JUMPDEST DUP7 PUSH1 0x0 MSTORE PUSH1 0x3 DUP9 MSTORE PUSH1 0xD PUSH1 0x40 PUSH1 0x0 KECCAK256 ADD CALLER PUSH1 0x0 MSTORE DUP9 MSTORE PUSH1 0x40 PUSH1 0x0 KECCAK256 SSTORE ADD PUSH2 0x1355 DUP2 SLOAD PUSH2 0x2282 JUMP JUMPDEST SWAP1 SSTORE SLOAD TIMESTAMP PUSH2 0x22F9 JUMP JUMPDEST SWAP3 PUSH1 0x40 MLOAD SWAP4 DUP5 MSTORE CALLER SWAP4 LOG3 PUSH1 0x1 DUP1 SSTORE STOP JUMPDEST POP PUSH2 0x8FC PUSH2 0x12CB JUMP JUMPDEST POP PUSH2 0x8FC PUSH2 0x12A0 JUMP JUMPDEST PUSH4 0x4E487B71 PUSH1 0xE0 SHL PUSH1 0x0 MSTORE PUSH1 0x11 PUSH1 0x4 MSTORE PUSH1 0x24 PUSH1 0x0 REVERT JUMPDEST PUSH1 0x40 MLOAD PUSH3 0x461BCD PUSH1 0xE5 SHL DUP2 MSTORE PUSH1 0x4 DUP2 ADD DUP6 SWAP1 MSTORE PUSH1 0x14 PUSH1 0x24 DUP3 ADD MSTORE PUSH20 0x125B9CDD59999A58DA595B9D081C185E5B595B9D PUSH1 0x62 SHL PUSH1 0x44 DUP3 ADD MSTORE PUSH1 0x64 SWAP1 REVERT JUMPDEST PUSH1 0x40 MLOAD PUSH3 0x461BCD PUSH1 0xE5 SHL DUP2 MSTORE PUSH1 0x4 DUP2 ADD DUP5 SWAP1 MSTORE PUSH1 0x15 PUSH1 0x24 DUP3 ADD MSTORE PUSH21 0x4C6963656E7365206E6F7420617661696C61626C65 PUSH1 0x58 SHL PUSH1 0x44 DUP3 ADD MSTORE PUSH1 0x64 SWAP1 REVERT JUMPDEST CALLVALUE PUSH2 0x2BF JUMPI PUSH1 0x20 CALLDATASIZE PUSH1 0x3 NOT ADD SLT PUSH2 0x2BF JUMPI PUSH2 0x1428 PUSH2 0x2256 JUMP JUMPDEST PUSH1 0x4 CALLDATALOAD PUSH1 0x9 SSTORE STOP JUMPDEST CALLVALUE PUSH2 0x2BF JUMPI PUSH1 0x20 CALLDATASIZE PUSH1 0x3 NOT ADD SLT PUSH2 0x2BF JUMPI PUSH1 0x4 CALLDATALOAD PUSH1 0x0 MSTORE PUSH1 0x3 PUSH1 0x20 MSTORE PUSH1 0x40 PUSH1 0x0 KECCAK256 DUP1 SLOAD PUSH1 0x1 DUP3 ADD PUSH2 0x1460 SWAP1 PUSH2 0x20E5 JUMP JUMPDEST SWAP2 PUSH2 0x146D PUSH1 0x2 DUP3 ADD PUSH2 0x20E5 JUMP JUMPDEST SWAP1 PUSH2 0x147A PUSH1 0x3 DUP3 ADD PUSH2 0x20E5 JUMP JUMPDEST PUSH1 0x4 DUP3 ADD SLOAD SWAP1 PUSH2 0x148C PUSH1 0x5 DUP5 ADD PUSH2 0x20E5 JUMP JUMPDEST PUSH1 0x6 DUP5 ADD SLOAD PUSH2 0x149D PUSH1 0x7 DUP7 ADD PUSH2 0x20E5 JUMP JUMPDEST SWAP2 PUSH1 0x8 DUP7 ADD SLOAD SWAP5 PUSH1 0x9 DUP8 ADD SLOAD SWAP5 PUSH1 0xA DUP9 ADD PUSH2 0x14B7 SWAP1 PUSH2 0x20E5 JUMP JUMPDEST SWAP8 PUSH1 0xB ADD SLOAD SWAP9 PUSH1 0x40 MLOAD SWAP12 DUP13 SWAP12 DUP13 MSTORE DUP12 PUSH2 0x1C0 PUSH1 0x20 DUP2 SWAP3 ADD MSTORE DUP13 ADD PUSH2 0x14DA SWAP2 PUSH2 0x204A JUMP JUMPDEST DUP12 DUP2 SUB PUSH1 0x40 DUP14 ADD MSTORE PUSH2 0x14EB SWAP2 PUSH2 0x204A JUMP JUMPDEST DUP11 DUP2 SUB PUSH1 0x60 DUP13 ADD MSTORE PUSH2 0x14FC SWAP2 PUSH2 0x204A JUMP JUMPDEST SWAP1 PUSH1 0x80 DUP11 ADD MSTORE DUP9 DUP2 SUB PUSH1 0xA0 DUP11 ADD MSTORE PUSH2 0x1513 SWAP2 PUSH2 0x204A JUMP JUMPDEST SWAP1 PUSH1 0xC0 DUP9 ADD MSTORE DUP7 DUP2 SUB PUSH1 0xE0 DUP9 ADD MSTORE PUSH2 0x152A SWAP2 PUSH2 0x204A JUMP JUMPDEST PUSH1 0xFF DUP1 DUP5 AND ISZERO ISZERO PUSH2 0x100 DUP9 ADD MSTORE PUSH1 0x8 DUP5 SWAP1 SHR AND ISZERO ISZERO PUSH2 0x120 DUP8 ADD MSTORE PUSH1 0x10 SWAP3 SWAP1 SWAP3 SHR PUSH1 0x1 PUSH1 0x1 PUSH1 0xA0 SHL SUB AND PUSH2 0x140 DUP7 ADD MSTORE PUSH2 0x160 DUP6 ADD MSTORE DUP4 DUP2 SUB PUSH2 0x180 DUP6 ADD MSTORE PUSH2 0x1572 SWAP2 PUSH2 0x204A JUMP JUMPDEST SWAP1 PUSH2 0x1A0 DUP4 ADD MSTORE SUB SWAP1 RETURN JUMPDEST CALLVALUE PUSH2 0x2BF JUMPI PUSH1 0x20 CALLDATASIZE PUSH1 0x3 NOT ADD SLT PUSH2 0x2BF JUMPI PUSH1 0x4 CALLDATALOAD DUP1 PUSH1 0x0 MSTORE PUSH1 0x3 PUSH1 0x20 MSTORE PUSH2 0x15AE PUSH1 0xFF PUSH1 0x8 PUSH1 0x40 PUSH1 0x0 KECCAK256 ADD SLOAD AND PUSH2 0x22B4 JUMP JUMPDEST PUSH1 0x0 MSTORE PUSH1 0x6 PUSH1 0x20 MSTORE PUSH1 0x40 PUSH1 0x0 KECCAK256 PUSH1 0x1 DUP2 ADD SLOAD SWAP1 PUSH2 0x1600 PUSH1 0x2 DUP3 ADD SLOAD PUSH1 0xFF PUSH1 0x3 DUP5 ADD SLOAD AND SWAP1 PUSH1 0x5 DUP5 ADD SLOAD SWAP1 PUSH1 0x6 DUP6 ADD SLOAD SWAP3 PUSH2 0x15F3 PUSH1 0x4 PUSH2 0x15EC DUP9 PUSH2 0x20E5 JUMP JUMPDEST SWAP8 ADD PUSH2 0x20E5 JUMP JUMPDEST SWAP2 PUSH1 0x40 MLOAD SWAP8 DUP9 SWAP8 DUP9 PUSH2 0x218B JUMP JUMPDEST SUB SWAP1 RETURN JUMPDEST CALLVALUE PUSH2 0x2BF JUMPI PUSH1 0x20 CALLDATASIZE PUSH1 0x3 NOT ADD SLT PUSH2 0x2BF JUMPI PUSH2 0x161D PUSH2 0x2256 JUMP JUMPDEST PUSH1 0x4 CALLDATALOAD PUSH1 0xA SSTORE STOP JUMPDEST CALLVALUE PUSH2 0x2BF JUMPI PUSH1 0x20 CALLDATASIZE PUSH1 0x3 NOT ADD SLT PUSH2 0x2BF JUMPI PUSH1 0x1 PUSH1 0x1 PUSH1 0xA0 SHL SUB PUSH2 0x1646 PUSH2 0x1FFB JUMP JUMPDEST AND PUSH1 0x0 MSTORE PUSH1 0x7 PUSH1 0x20 MSTORE PUSH1 0x20 PUSH1 0xFF PUSH1 0x40 PUSH1 0x0 KECCAK256 SLOAD AND PUSH1 0x40 MLOAD SWAP1 ISZERO ISZERO DUP2 MSTORE RETURN JUMPDEST CALLVALUE PUSH2 0x2BF JUMPI PUSH1 0x0 CALLDATASIZE PUSH1 0x3 NOT ADD SLT PUSH2 0x2BF JUMPI PUSH1 0x20 PUSH1 0xA SLOAD PUSH1 0x40 MLOAD SWAP1 DUP2 MSTORE RETURN JUMPDEST CALLVALUE PUSH2 0x2BF JUMPI PUSH1 0x40 CALLDATASIZE PUSH1 0x3 NOT ADD SLT PUSH2 0x2BF JUMPI PUSH1 0x20 PUSH2 0x16C5 PUSH1 0x4 CALLDATALOAD PUSH2 0x16A3 PUSH2 0x2011 JUMP JUMPDEST SWAP1 DUP1 PUSH1 0x0 MSTORE PUSH1 0x3 DUP5 MSTORE PUSH2 0x16C0 PUSH1 0xFF PUSH1 0x8 PUSH1 0x40 PUSH1 0x0 KECCAK256 ADD SLOAD AND PUSH2 0x22B4 JUMP JUMPDEST PUSH2 0x234A JUMP JUMPDEST PUSH1 0x40 MLOAD SWAP1 ISZERO ISZERO DUP2 MSTORE RETURN JUMPDEST CALLVALUE PUSH2 0x2BF JUMPI PUSH1 0x0 CALLDATASIZE PUSH1 0x3 NOT ADD SLT PUSH2 0x2BF JUMPI PUSH1 0x0 SLOAD PUSH1 0x40 MLOAD PUSH1 0x1 PUSH1 0x1 PUSH1 0xA0 SHL SUB SWAP1 SWAP2 AND DUP2 MSTORE PUSH1 0x20 SWAP1 RETURN JUMPDEST CALLVALUE PUSH2 0x2BF JUMPI PUSH1 0x20 DUP1 PUSH1 0x3 NOT CALLDATASIZE ADD SLT PUSH2 0x2BF JUMPI PUSH1 0x1 PUSH1 0x1 PUSH1 0xA0 SHL SUB PUSH2 0x171A PUSH2 0x1FFB JUMP JUMPDEST AND PUSH1 0x0 MSTORE PUSH1 0x5 DUP2 MSTORE PUSH1 0x40 PUSH1 0x0 KECCAK256 PUSH1 0x40 MLOAD SWAP1 DUP2 DUP4 DUP3 SLOAD SWAP2 DUP3 DUP2 MSTORE ADD SWAP1 DUP2 SWAP3 PUSH1 0x0 MSTORE DUP5 PUSH1 0x0 KECCAK256 SWAP1 PUSH1 0x0 JUMPDEST DUP7 DUP3 DUP3 LT PUSH2 0x1798 JUMPI DUP7 DUP7 PUSH2 0x1758 DUP3 DUP9 SUB DUP4 PUSH2 0x20C4 JUMP JUMPDEST PUSH1 0x40 MLOAD SWAP3 DUP4 SWAP3 DUP2 DUP5 ADD SWAP1 DUP3 DUP6 MSTORE MLOAD DUP1 SWAP2 MSTORE PUSH1 0x40 DUP5 ADD SWAP3 SWAP2 PUSH1 0x0 JUMPDEST DUP3 DUP2 LT PUSH2 0x1781 JUMPI POP POP POP POP SUB SWAP1 RETURN JUMPDEST DUP4 MLOAD DUP6 MSTORE DUP7 SWAP6 POP SWAP4 DUP2 ADD SWAP4 SWAP3 DUP2 ADD SWAP3 PUSH1 0x1 ADD PUSH2 0x1772 JUMP JUMPDEST DUP4 SLOAD DUP6 MSTORE SWAP1 SWAP4 ADD SWAP3 PUSH1 0x1 SWAP3 DUP4 ADD SWAP3 ADD PUSH2 0x1742 JUMP JUMPDEST CALLVALUE PUSH2 0x2BF JUMPI PUSH1 0x40 CALLDATASIZE PUSH1 0x3 NOT ADD SLT PUSH2 0x2BF JUMPI PUSH2 0x17C5 PUSH2 0x1FFB JUMP JUMPDEST PUSH1 0x1 PUSH1 0x1 PUSH1 0xA0 SHL SUB AND PUSH1 0x0 SWAP1 DUP2 MSTORE PUSH1 0x5 PUSH1 0x20 MSTORE PUSH1 0x40 SWAP1 KECCAK256 DUP1 SLOAD PUSH1 0x24 CALLDATALOAD SWAP2 SWAP1 DUP3 LT ISZERO PUSH2 0x2BF JUMPI PUSH1 0x20 SWAP2 PUSH2 0x17F6 SWAP2 PUSH2 0x2228 JUMP JUMPDEST SWAP1 SLOAD PUSH1 0x40 MLOAD SWAP2 PUSH1 0x3 SHL SHR DUP2 MSTORE RETURN JUMPDEST CALLVALUE PUSH2 0x2BF JUMPI PUSH1 0x0 CALLDATASIZE PUSH1 0x3 NOT ADD SLT PUSH2 0x2BF JUMPI PUSH1 0x20 PUSH1 0x2 SLOAD PUSH1 0x40 MLOAD SWAP1 DUP2 MSTORE RETURN JUMPDEST CALLVALUE PUSH2 0x2BF JUMPI PUSH1 0x0 CALLDATASIZE PUSH1 0x3 NOT ADD SLT PUSH2 0x2BF JUMPI PUSH2 0x183B PUSH2 0x2256 JUMP JUMPDEST PUSH1 0x0 DUP1 SLOAD PUSH1 0x1 PUSH1 0x1 PUSH1 0xA0 SHL SUB NOT DUP2 AND DUP3 SSTORE PUSH1 0x1 PUSH1 0x1 PUSH1 0xA0 SHL SUB AND PUSH32 0x8BE0079C531659141344CD1FD0A4F28419497F9722A3DAAFE3B4186F6B6457E0 DUP3 DUP1 LOG3 STOP JUMPDEST CALLVALUE PUSH2 0x2BF JUMPI PUSH1 0x20 CALLDATASIZE PUSH1 0x3 NOT ADD SLT PUSH2 0x2BF JUMPI PUSH2 0x1894 PUSH2 0x1FFB JUMP JUMPDEST PUSH2 0x189C PUSH2 0x2256 JUMP JUMPDEST PUSH1 0x1 PUSH1 0x1 PUSH1 0xA0 SHL SUB AND PUSH1 0x0 SWAP1 DUP2 MSTORE PUSH1 0x7 PUSH1 0x20 MSTORE PUSH1 0x40 SWAP1 KECCAK256 DUP1 SLOAD PUSH1 0xFF NOT AND SWAP1 SSTORE STOP JUMPDEST CALLVALUE PUSH2 0x2BF JUMPI PUSH1 0x0 CALLDATASIZE PUSH1 0x3 NOT ADD SLT PUSH2 0x2BF JUMPI PUSH1 0x20 SELFBALANCE PUSH1 0x40 MLOAD SWAP1 DUP2 MSTORE RETURN JUMPDEST CALLVALUE PUSH2 0x2BF JUMPI PUSH1 0xA0 CALLDATASIZE PUSH1 0x3 NOT ADD SLT PUSH2 0x2BF JUMPI PUSH1 0x24 CALLDATALOAD PUSH1 0x1 PUSH1 0x1 PUSH1 0x40 SHL SUB DUP2 GT PUSH2 0x2BF JUMPI PUSH2 0x1909 SWAP1 CALLDATASIZE SWAP1 PUSH1 0x4 ADD PUSH2 0x21D2 JUMP JUMPDEST PUSH1 0x84 CALLDATALOAD PUSH1 0x1 PUSH1 0x1 PUSH1 0x40 SHL SUB DUP2 GT PUSH2 0x2BF JUMPI PUSH2 0x1928 SWAP1 CALLDATASIZE SWAP1 PUSH1 0x4 ADD PUSH2 0x21D2 JUMP JUMPDEST SWAP1 PUSH1 0x4 CALLDATALOAD PUSH1 0x0 MSTORE PUSH1 0x3 PUSH1 0x20 MSTORE PUSH2 0x1948 PUSH1 0xFF PUSH1 0x8 PUSH1 0x40 PUSH1 0x0 KECCAK256 ADD SLOAD AND PUSH2 0x22B4 JUMP JUMPDEST PUSH1 0x4 CALLDATALOAD PUSH1 0x0 MSTORE PUSH1 0x3 PUSH1 0x20 MSTORE PUSH2 0x1971 PUSH1 0x1 DUP1 PUSH1 0xA0 SHL SUB PUSH1 0x8 PUSH1 0x40 PUSH1 0x0 KECCAK256 ADD SLOAD PUSH1 0x10 SHR AND CALLER EQ PUSH2 0x2306 JUMP JUMPDEST PUSH1 0x40 MLOAD SWAP2 PUSH2 0x197E DUP4 PUSH2 0x20A9 JUMP JUMPDEST DUP2 DUP4 MSTORE PUSH1 0x44 CALLDATALOAD PUSH1 0x20 DUP5 ADD MSTORE PUSH1 0x64 CALLDATALOAD PUSH1 0x40 DUP5 ADD MSTORE PUSH1 0x1 PUSH1 0x60 DUP5 ADD MSTORE PUSH1 0x80 DUP4 ADD MSTORE PUSH1 0x0 PUSH1 0xA0 DUP4 ADD MSTORE PUSH1 0x0 PUSH1 0xC0 DUP4 ADD MSTORE PUSH1 0x4 CALLDATALOAD PUSH1 0x0 MSTORE PUSH1 0x6 PUSH1 0x20 MSTORE PUSH1 0x40 PUSH1 0x0 KECCAK256 DUP3 MLOAD SWAP3 DUP4 MLOAD PUSH1 0x1 PUSH1 0x1 PUSH1 0x40 SHL SUB DUP2 GT PUSH2 0x9EB JUMPI PUSH2 0x19D8 DUP4 SLOAD PUSH2 0x206F JUMP JUMPDEST PUSH1 0x1F DUP2 GT PUSH2 0x1C41 JUMPI JUMPDEST POP PUSH1 0x20 PUSH1 0x1F DUP3 GT PUSH1 0x1 EQ PUSH2 0x1BD8 JUMPI DUP2 SWAP3 SWAP4 SWAP5 SWAP6 PUSH1 0x0 SWAP3 PUSH2 0x1BCD JUMPI JUMPDEST POP POP DUP2 PUSH1 0x1 SHL SWAP2 PUSH1 0x0 NOT SWAP1 PUSH1 0x3 SHL SHR NOT AND OR DUP3 SSTORE JUMPDEST PUSH1 0x20 DUP2 ADD MLOAD PUSH1 0x1 DUP4 ADD SSTORE PUSH1 0x40 DUP2 ADD MLOAD PUSH1 0x2 DUP4 ADD SSTORE PUSH2 0x1A44 PUSH1 0x60 DUP3 ADD MLOAD ISZERO ISZERO PUSH1 0x3 DUP5 ADD SWAP1 PUSH1 0xFF DUP1 NOT DUP4 SLOAD AND SWAP2 ISZERO ISZERO AND OR SWAP1 SSTORE JUMP JUMPDEST PUSH1 0x80 DUP2 ADD MLOAD DUP1 MLOAD SWAP1 PUSH1 0x1 PUSH1 0x1 PUSH1 0x40 SHL SUB DUP3 GT PUSH2 0x9EB JUMPI PUSH2 0x1A67 PUSH1 0x4 DUP6 ADD SLOAD PUSH2 0x206F JUMP JUMPDEST PUSH1 0x1F DUP2 GT PUSH2 0x1B86 JUMPI JUMPDEST POP PUSH1 0x20 SWAP1 PUSH1 0x1F DUP4 GT PUSH1 0x1 EQ PUSH2 0x1B13 JUMPI SWAP2 DUP1 PUSH1 0x6 SWAP5 SWAP3 PUSH1 0xC0 SWAP5 PUSH1 0x0 SWAP3 PUSH2 0x1B08 JUMPI JUMPDEST POP POP DUP2 PUSH1 0x1 SHL SWAP2 PUSH1 0x0 NOT SWAP1 PUSH1 0x3 SHL SHR NOT AND OR PUSH1 0x4 DUP6 ADD SSTORE JUMPDEST PUSH1 0xA0 DUP2 ADD MLOAD PUSH1 0x5 DUP6 ADD SSTORE ADD MLOAD SWAP2 ADD SSTORE PUSH32 0xCBD95F9ED58842236E3B510E5143028578BFEEEF1BF2CC4EBFE6AC407A533251 PUSH2 0x1AED PUSH1 0x40 MLOAD SWAP3 PUSH1 0x60 DUP5 MSTORE PUSH1 0x60 DUP5 ADD SWAP1 PUSH2 0x204A JUMP JUMPDEST SWAP2 PUSH1 0x44 CALLDATALOAD PUSH1 0x20 DUP3 ADD MSTORE PUSH1 0x64 CALLDATALOAD PUSH1 0x40 DUP3 ADD MSTORE DUP1 PUSH1 0x4 CALLDATALOAD SWAP4 SUB SWAP1 LOG2 STOP JUMPDEST ADD MLOAD SWAP1 POP DUP8 DUP1 PUSH2 0x1A90 JUMP JUMPDEST SWAP1 PUSH1 0x1F NOT DUP4 AND SWAP2 PUSH1 0x4 DUP7 ADD PUSH1 0x0 MSTORE PUSH1 0x20 PUSH1 0x0 KECCAK256 SWAP3 PUSH1 0x0 JUMPDEST DUP2 DUP2 LT PUSH2 0x1B6E JUMPI POP SWAP3 PUSH1 0x1 SWAP3 DUP6 SWAP3 PUSH1 0xC0 SWAP7 PUSH1 0x6 SWAP9 SWAP7 LT PUSH2 0x1B55 JUMPI JUMPDEST POP POP POP DUP2 SHL ADD PUSH1 0x4 DUP6 ADD SSTORE PUSH2 0x1AA8 JUMP JUMPDEST ADD MLOAD PUSH1 0x0 NOT PUSH1 0xF8 DUP5 PUSH1 0x3 SHL AND SHR NOT AND SWAP1 SSTORE DUP8 DUP1 DUP1 PUSH2 0x1B45 JUMP JUMPDEST SWAP3 SWAP4 PUSH1 0x20 PUSH1 0x1 DUP2 SWAP3 DUP8 DUP7 ADD MLOAD DUP2 SSTORE ADD SWAP6 ADD SWAP4 ADD PUSH2 0x1B2A JUMP JUMPDEST PUSH1 0x4 DUP6 ADD PUSH1 0x0 MSTORE PUSH1 0x20 PUSH1 0x0 KECCAK256 PUSH1 0x1F DUP5 ADD PUSH1 0x5 SHR DUP2 ADD PUSH1 0x20 DUP6 LT PUSH2 0x1BC6 JUMPI JUMPDEST PUSH1 0x1F DUP4 ADD PUSH1 0x5 SHR DUP3 ADD DUP2 LT PUSH2 0x1BBA JUMPI POP POP PUSH2 0x1A70 JUMP JUMPDEST PUSH1 0x0 DUP2 SSTORE PUSH1 0x1 ADD PUSH2 0x1BA4 JUMP JUMPDEST POP DUP1 PUSH2 0x1BA4 JUMP JUMPDEST ADD MLOAD SWAP1 POP DUP6 DUP1 PUSH2 0x19FC JUMP JUMPDEST DUP4 PUSH1 0x0 MSTORE PUSH1 0x20 PUSH1 0x0 KECCAK256 SWAP1 PUSH1 0x0 JUMPDEST PUSH1 0x1F NOT DUP5 AND DUP2 LT PUSH2 0x1C29 JUMPI POP PUSH1 0x1 SWAP4 SWAP5 SWAP6 SWAP7 DUP4 PUSH1 0x1F NOT DUP2 AND LT PUSH2 0x1C10 JUMPI JUMPDEST POP POP POP DUP2 SHL ADD DUP3 SSTORE PUSH2 0x1A11 JUMP JUMPDEST ADD MLOAD PUSH1 0x0 NOT PUSH1 0xF8 DUP5 PUSH1 0x3 SHL AND SHR NOT AND SWAP1 SSTORE DUP6 DUP1 DUP1 PUSH2 0x1C03 JUMP JUMPDEST SWAP1 SWAP2 PUSH1 0x20 PUSH1 0x1 DUP2 SWAP3 DUP6 DUP12 ADD MLOAD DUP2 SSTORE ADD SWAP4 ADD SWAP2 ADD PUSH2 0x1BE5 JUMP JUMPDEST DUP4 PUSH1 0x0 MSTORE PUSH1 0x20 PUSH1 0x0 KECCAK256 PUSH1 0x1F DUP4 ADD PUSH1 0x5 SHR DUP2 ADD PUSH1 0x20 DUP5 LT PUSH2 0x1C7E JUMPI JUMPDEST PUSH1 0x1F DUP4 ADD PUSH1 0x5 SHR DUP3 ADD DUP2 LT PUSH2 0x1C72 JUMPI POP POP PUSH2 0x19E1 JUMP JUMPDEST PUSH1 0x0 DUP2 SSTORE PUSH1 0x1 ADD PUSH2 0x1C5C JUMP JUMPDEST POP DUP1 PUSH2 0x1C5C JUMP JUMPDEST CALLVALUE PUSH2 0x2BF JUMPI PUSH1 0x20 CALLDATASIZE PUSH1 0x3 NOT ADD SLT PUSH2 0x2BF JUMPI PUSH2 0x1C9E PUSH2 0x1FFB JUMP JUMPDEST PUSH2 0x1CA6 PUSH2 0x2256 JUMP JUMPDEST PUSH1 0x1 PUSH1 0x1 PUSH1 0xA0 SHL SUB AND PUSH1 0x0 SWAP1 DUP2 MSTORE PUSH1 0x7 PUSH1 0x20 MSTORE PUSH1 0x40 SWAP1 KECCAK256 DUP1 SLOAD PUSH1 0xFF NOT AND PUSH1 0x1 OR SWAP1 SSTORE STOP JUMPDEST CALLVALUE PUSH2 0x2BF JUMPI PUSH1 0x0 CALLDATASIZE PUSH1 0x3 NOT ADD SLT PUSH2 0x2BF JUMPI PUSH2 0x1CE3 PUSH2 0x2291 JUMP JUMPDEST CALLER PUSH1 0x0 MSTORE PUSH1 0x8 PUSH1 0x20 MSTORE PUSH1 0x40 PUSH1 0x0 KECCAK256 SLOAD DUP1 ISZERO PUSH2 0x1D48 JUMPI CALLER PUSH1 0x0 MSTORE PUSH1 0x8 PUSH1 0x20 MSTORE PUSH1 0x0 PUSH1 0x40 DUP2 KECCAK256 SSTORE PUSH1 0x0 DUP1 DUP1 DUP1 DUP5 CALLER DUP3 CALL ISZERO PUSH2 0x1199 JUMPI PUSH1 0x40 MLOAD SWAP1 DUP2 MSTORE PUSH32 0x78473F3F373F7673597F4F0FA5873CB4D375FEA6D4339AD6B56DBD411513CB3F PUSH1 0x20 CALLER SWAP3 LOG2 PUSH1 0x1 DUP1 SSTORE STOP JUMPDEST PUSH1 0x40 MLOAD PUSH3 0x461BCD PUSH1 0xE5 SHL DUP2 MSTORE PUSH1 0x20 PUSH1 0x4 DUP3 ADD MSTORE PUSH1 0x13 PUSH1 0x24 DUP3 ADD MSTORE PUSH19 0x4E6F206665657320746F207769746864726177 PUSH1 0x68 SHL PUSH1 0x44 DUP3 ADD MSTORE PUSH1 0x64 SWAP1 REVERT JUMPDEST CALLVALUE PUSH2 0x2BF JUMPI PUSH1 0x20 CALLDATASIZE PUSH1 0x3 NOT ADD SLT PUSH2 0x2BF JUMPI PUSH1 0x4 CALLDATALOAD PUSH1 0x0 MSTORE PUSH1 0x6 PUSH1 0x20 MSTORE PUSH1 0x40 PUSH1 0x0 KECCAK256 PUSH2 0x1DAD DUP2 PUSH2 0x20E5 JUMP JUMPDEST PUSH2 0x1600 PUSH1 0x1 DUP4 ADD SLOAD SWAP3 PUSH1 0x2 DUP2 ADD SLOAD SWAP1 PUSH1 0xFF PUSH1 0x3 DUP3 ADD SLOAD AND PUSH2 0x1DD0 PUSH1 0x4 DUP4 ADD PUSH2 0x20E5 JUMP JUMPDEST SWAP1 PUSH1 0x6 PUSH1 0x5 DUP5 ADD SLOAD SWAP4 ADD SLOAD SWAP4 PUSH1 0x40 MLOAD SWAP8 DUP9 SWAP8 DUP9 PUSH2 0x218B JUMP JUMPDEST CALLVALUE PUSH2 0x2BF JUMPI PUSH1 0x0 CALLDATASIZE PUSH1 0x3 NOT ADD SLT PUSH2 0x2BF JUMPI PUSH1 0x20 PUSH1 0xB SLOAD PUSH1 0x40 MLOAD SWAP1 DUP2 MSTORE RETURN JUMPDEST CALLVALUE PUSH2 0x2BF JUMPI PUSH1 0x0 CALLDATASIZE PUSH1 0x3 NOT ADD SLT PUSH2 0x2BF JUMPI PUSH1 0x20 PUSH1 0x9 SLOAD PUSH1 0x40 MLOAD SWAP1 DUP2 MSTORE RETURN JUMPDEST CALLVALUE PUSH2 0x2BF JUMPI PUSH1 0x20 CALLDATASIZE PUSH1 0x3 NOT ADD SLT PUSH2 0x2BF JUMPI PUSH1 0x4 CALLDATALOAD PUSH2 0x1E40 PUSH2 0x2256 JUMP JUMPDEST PUSH2 0x3E8 DUP2 GT PUSH2 0x1E4E JUMPI PUSH1 0xB SSTORE STOP JUMPDEST PUSH1 0x40 MLOAD PUSH3 0x461BCD PUSH1 0xE5 SHL DUP2 MSTORE PUSH1 0x20 PUSH1 0x4 DUP3 ADD MSTORE PUSH1 0x1E PUSH1 0x24 DUP3 ADD MSTORE PUSH32 0x506C6174666F726D206665652063616E6E6F7420657863656564203130250000 PUSH1 0x44 DUP3 ADD MSTORE PUSH1 0x64 SWAP1 REVERT JUMPDEST CALLVALUE PUSH2 0x2BF JUMPI PUSH1 0x20 CALLDATASIZE PUSH1 0x3 NOT ADD SLT PUSH2 0x2BF JUMPI PUSH1 0x4 CALLDATALOAD DUP1 PUSH1 0x0 MSTORE PUSH1 0x3 PUSH1 0x20 MSTORE PUSH2 0x1EC4 PUSH1 0xFF PUSH1 0x8 PUSH1 0x40 PUSH1 0x0 KECCAK256 ADD SLOAD AND PUSH2 0x22B4 JUMP JUMPDEST PUSH1 0x0 MSTORE PUSH1 0x3 PUSH1 0x20 MSTORE PUSH1 0x40 PUSH1 0x0 KECCAK256 DUP1 SLOAD PUSH1 0x4 DUP3 ADD SLOAD SWAP2 PUSH1 0x6 DUP2 ADD SLOAD SWAP1 PUSH2 0x1F96 PUSH1 0x8 DUP3 ADD SLOAD SWAP3 PUSH1 0x9 DUP4 ADD SLOAD SWAP3 PUSH2 0x1F83 PUSH2 0x1EFD PUSH1 0x1 DUP4 ADD PUSH2 0x20E5 JUMP JUMPDEST SWAP8 PUSH2 0x1F0A PUSH1 0x2 DUP5 ADD PUSH2 0x20E5 JUMP JUMPDEST SWAP3 PUSH2 0x1F70 PUSH2 0x1F1A PUSH1 0x3 DUP4 ADD PUSH2 0x20E5 JUMP JUMPDEST PUSH2 0x1F62 PUSH2 0x1F35 PUSH1 0x7 PUSH2 0x1F2E PUSH1 0x5 DUP8 ADD PUSH2 0x20E5 JUMP JUMPDEST SWAP6 ADD PUSH2 0x20E5 JUMP JUMPDEST SWAP7 PUSH2 0x1F54 PUSH1 0x40 MLOAD SWAP15 DUP16 SWAP15 DUP16 SWAP1 DUP2 MSTORE PUSH2 0x160 SWAP1 DUP2 PUSH1 0x20 DUP3 ADD MSTORE ADD SWAP1 PUSH2 0x204A JUMP JUMPDEST DUP14 DUP2 SUB PUSH1 0x40 DUP16 ADD MSTORE SWAP1 PUSH2 0x204A JUMP JUMPDEST SWAP1 DUP12 DUP3 SUB PUSH1 0x60 DUP14 ADD MSTORE PUSH2 0x204A JUMP JUMPDEST SWAP2 PUSH1 0x80 DUP11 ADD MSTORE DUP9 DUP3 SUB PUSH1 0xA0 DUP11 ADD MSTORE PUSH2 0x204A JUMP JUMPDEST SWAP2 PUSH1 0xC0 DUP8 ADD MSTORE DUP6 DUP3 SUB PUSH1 0xE0 DUP8 ADD MSTORE PUSH2 0x204A JUMP JUMPDEST PUSH1 0x8 DUP4 SWAP1 SHR PUSH1 0xFF AND ISZERO ISZERO PUSH2 0x100 DUP6 ADD MSTORE PUSH1 0x10 SWAP3 SWAP1 SWAP3 SHR PUSH1 0x1 PUSH1 0x1 PUSH1 0xA0 SHL SUB AND PUSH2 0x120 DUP5 ADD MSTORE PUSH2 0x140 DUP4 ADD MSTORE SUB SWAP1 RETURN JUMPDEST CALLVALUE PUSH2 0x2BF JUMPI PUSH1 0x20 CALLDATASIZE PUSH1 0x3 NOT ADD SLT PUSH2 0x2BF JUMPI PUSH1 0x20 SWAP1 PUSH1 0x1 PUSH1 0x1 PUSH1 0xA0 SHL SUB PUSH2 0x1FE9 PUSH2 0x1FFB JUMP JUMPDEST AND PUSH1 0x0 MSTORE PUSH1 0x8 DUP3 MSTORE PUSH1 0x40 PUSH1 0x0 KECCAK256 SLOAD DUP2 MSTORE RETURN JUMPDEST PUSH1 0x4 CALLDATALOAD SWAP1 PUSH1 0x1 PUSH1 0x1 PUSH1 0xA0 SHL SUB DUP3 AND DUP3 SUB PUSH2 0x2BF JUMPI JUMP JUMPDEST PUSH1 0x24 CALLDATALOAD SWAP1 PUSH1 0x1 PUSH1 0x1 PUSH1 0xA0 SHL SUB DUP3 AND DUP3 SUB PUSH2 0x2BF JUMPI JUMP JUMPDEST PUSH1 0x0 JUMPDEST DUP4 DUP2 LT PUSH2 0x203A JUMPI POP POP PUSH1 0x0 SWAP2 ADD MSTORE JUMP JUMPDEST DUP2 DUP2 ADD MLOAD DUP4 DUP3 ADD MSTORE PUSH1 0x20 ADD PUSH2 0x202A JUMP JUMPDEST SWAP1 PUSH1 0x20 SWAP2 PUSH2 0x2063 DUP2 MLOAD DUP1 SWAP3 DUP2 DUP6 MSTORE DUP6 DUP1 DUP7 ADD SWAP2 ADD PUSH2 0x2027 JUMP JUMPDEST PUSH1 0x1F ADD PUSH1 0x1F NOT AND ADD ADD SWAP1 JUMP JUMPDEST SWAP1 PUSH1 0x1 DUP3 DUP2 SHR SWAP3 AND DUP1 ISZERO PUSH2 0x209F JUMPI JUMPDEST PUSH1 0x20 DUP4 LT EQ PUSH2 0x2089 JUMPI JUMP JUMPDEST PUSH4 0x4E487B71 PUSH1 0xE0 SHL PUSH1 0x0 MSTORE PUSH1 0x22 PUSH1 0x4 MSTORE PUSH1 0x24 PUSH1 0x0 REVERT JUMPDEST SWAP2 PUSH1 0x7F AND SWAP2 PUSH2 0x207E JUMP JUMPDEST PUSH1 0xE0 DUP2 ADD SWAP1 DUP2 LT PUSH1 0x1 PUSH1 0x1 PUSH1 0x40 SHL SUB DUP3 GT OR PUSH2 0x9EB JUMPI PUSH1 0x40 MSTORE JUMP JUMPDEST SWAP1 PUSH1 0x1F DUP1 NOT SWAP2 ADD AND DUP2 ADD SWAP1 DUP2 LT PUSH1 0x1 PUSH1 0x1 PUSH1 0x40 SHL SUB DUP3 GT OR PUSH2 0x9EB JUMPI PUSH1 0x40 MSTORE JUMP JUMPDEST SWAP1 PUSH1 0x40 MLOAD SWAP2 DUP3 PUSH1 0x0 DUP3 SLOAD SWAP3 PUSH2 0x20F9 DUP5 PUSH2 0x206F JUMP JUMPDEST SWAP1 DUP2 DUP5 MSTORE PUSH1 0x1 SWAP5 DUP6 DUP2 AND SWAP1 DUP2 PUSH1 0x0 EQ PUSH2 0x2168 JUMPI POP PUSH1 0x1 EQ PUSH2 0x2125 JUMPI JUMPDEST POP POP PUSH2 0x2123 SWAP3 POP SUB DUP4 PUSH2 0x20C4 JUMP JUMPDEST JUMP JUMPDEST SWAP1 SWAP4 SWAP2 POP PUSH1 0x0 MSTORE PUSH1 0x20 SWAP1 DUP2 PUSH1 0x0 KECCAK256 SWAP4 PUSH1 0x0 SWAP2 JUMPDEST DUP2 DUP4 LT PUSH2 0x2150 JUMPI POP POP PUSH2 0x2123 SWAP4 POP DUP3 ADD ADD CODESIZE DUP1 PUSH2 0x2115 JUMP JUMPDEST DUP6 SLOAD DUP9 DUP5 ADD DUP6 ADD MSTORE SWAP5 DUP6 ADD SWAP5 DUP8 SWAP5 POP SWAP2 DUP4 ADD SWAP2 PUSH2 0x2138 JUMP JUMPDEST SWAP2 POP POP PUSH2 0x2123 SWAP5 POP PUSH1 0x20 SWAP3 POP PUSH1 0xFF NOT AND DUP3 DUP5 ADD MSTORE ISZERO ISZERO PUSH1 0x5 SHL DUP3 ADD ADD CODESIZE DUP1 PUSH2 0x2115 JUMP JUMPDEST SWAP4 PUSH2 0x21C8 SWAP4 PUSH2 0x21A9 PUSH1 0xC0 SWAP8 SWAP4 SWAP11 SWAP10 SWAP9 SWAP11 PUSH1 0xE0 DUP9 MSTORE PUSH1 0xE0 DUP9 ADD SWAP1 PUSH2 0x204A JUMP JUMPDEST SWAP4 PUSH1 0x20 DUP8 ADD MSTORE PUSH1 0x40 DUP7 ADD MSTORE ISZERO ISZERO PUSH1 0x60 DUP6 ADD MSTORE DUP4 DUP3 SUB PUSH1 0x80 DUP6 ADD MSTORE PUSH2 0x204A JUMP JUMPDEST SWAP5 PUSH1 0xA0 DUP3 ADD MSTORE ADD MSTORE JUMP JUMPDEST DUP2 PUSH1 0x1F DUP3 ADD SLT ISZERO PUSH2 0x2BF JUMPI DUP1 CALLDATALOAD SWAP1 PUSH1 0x1 PUSH1 0x1 PUSH1 0x40 SHL SUB DUP3 GT PUSH2 0x9EB JUMPI PUSH1 0x40 MLOAD SWAP3 PUSH2 0x2206 PUSH1 0x1F DUP5 ADD PUSH1 0x1F NOT AND PUSH1 0x20 ADD DUP6 PUSH2 0x20C4 JUMP JUMPDEST DUP3 DUP5 MSTORE PUSH1 0x20 DUP4 DUP4 ADD ADD GT PUSH2 0x2BF JUMPI DUP2 PUSH1 0x0 SWAP3 PUSH1 0x20 DUP1 SWAP4 ADD DUP4 DUP7 ADD CALLDATACOPY DUP4 ADD ADD MSTORE SWAP1 JUMP JUMPDEST DUP1 SLOAD DUP3 LT ISZERO PUSH2 0x2240 JUMPI PUSH1 0x0 MSTORE PUSH1 0x20 PUSH1 0x0 KECCAK256 ADD SWAP1 PUSH1 0x0 SWAP1 JUMP JUMPDEST PUSH4 0x4E487B71 PUSH1 0xE0 SHL PUSH1 0x0 MSTORE PUSH1 0x32 PUSH1 0x4 MSTORE PUSH1 0x24 PUSH1 0x0 REVERT JUMPDEST PUSH1 0x0 SLOAD PUSH1 0x1 PUSH1 0x1 PUSH1 0xA0 SHL SUB AND CALLER SUB PUSH2 0x226A JUMPI JUMP JUMPDEST PUSH1 0x40 MLOAD PUSH4 0x118CDAA7 PUSH1 0xE0 SHL DUP2 MSTORE CALLER PUSH1 0x4 DUP3 ADD MSTORE PUSH1 0x24 SWAP1 REVERT JUMPDEST PUSH1 0x0 NOT DUP2 EQ PUSH2 0x1380 JUMPI PUSH1 0x1 ADD SWAP1 JUMP JUMPDEST PUSH1 0x2 PUSH1 0x1 SLOAD EQ PUSH2 0x22A2 JUMPI PUSH1 0x2 PUSH1 0x1 SSTORE JUMP JUMPDEST PUSH1 0x40 MLOAD PUSH4 0x3EE5AEB5 PUSH1 0xE0 SHL DUP2 MSTORE PUSH1 0x4 SWAP1 REVERT JUMPDEST ISZERO PUSH2 0x22BB JUMPI JUMP JUMPDEST PUSH1 0x40 MLOAD PUSH3 0x461BCD PUSH1 0xE5 SHL DUP2 MSTORE PUSH1 0x20 PUSH1 0x4 DUP3 ADD MSTORE PUSH1 0x16 PUSH1 0x24 DUP3 ADD MSTORE PUSH22 0x10DBDB9D195B9D08191BD95CC81B9BDD08195E1A5CDD PUSH1 0x52 SHL PUSH1 0x44 DUP3 ADD MSTORE PUSH1 0x64 SWAP1 REVERT JUMPDEST SWAP2 SWAP1 DUP3 ADD DUP1 SWAP3 GT PUSH2 0x1380 JUMPI JUMP JUMPDEST ISZERO PUSH2 0x230D JUMPI JUMP JUMPDEST PUSH1 0x40 MLOAD PUSH3 0x461BCD PUSH1 0xE5 SHL DUP2 MSTORE PUSH1 0x20 PUSH1 0x4 DUP3 ADD MSTORE PUSH1 0x15 PUSH1 0x24 DUP3 ADD MSTORE PUSH21 0x2737BA103A34329031B7B73A32B73A1037BBB732B9 PUSH1 0x59 SHL PUSH1 0x44 DUP3 ADD MSTORE PUSH1 0x64 SWAP1 REVERT JUMPDEST PUSH1 0x0 SWAP1 DUP2 MSTORE PUSH1 0x3 PUSH1 0x20 MSTORE PUSH1 0x40 SWAP1 KECCAK256 PUSH1 0x8 DUP2 ADD SLOAD SWAP1 SWAP2 PUSH1 0x1 PUSH1 0x1 PUSH1 0xA0 SHL SUB SWAP1 DUP2 AND SWAP2 PUSH1 0x10 SHR AND DUP2 EQ PUSH2 0x23A4 JUMPI PUSH1 0x0 MSTORE PUSH1 0xC DUP2 ADD PUSH1 0x20 MSTORE PUSH1 0xFF PUSH1 0x40 PUSH1 0x0 KECCAK256 SLOAD AND SWAP1 DUP2 PUSH2 0x2392 JUMPI POP SWAP1 JUMP JUMPDEST PUSH1 0xD ADD PUSH1 0x20 MSTORE POP PUSH1 0x40 PUSH1 0x0 KECCAK256 SLOAD TIMESTAMP LT SWAP1 JUMP JUMPDEST POP POP PUSH1 0x1 SWAP1 JUMP INVALID LOG2 PUSH5 0x6970667358 0x22 SLT KECCAK256 0x2A 0x2D PUSH26 0x1542CD2C0D6C4837FAABB6F198711D800BF7B6A0B11B45A99F73 GASPRICE 0xDC BASEFEE PUSH5 0x736F6C6343 STOP ADDMOD EQ STOP CALLER "},"methodIdentifiers":{"addAuthorizedRegistrar(address)":"53793b46","authorizeViewer(uint256,address,uint256)":"e27fa8ee","authorizedRegistrars(address)":"a9c6b3fa","checkViewPermission(uint256,address)":"a11109bc","contentLicenses(uint256)":"357c7ff4","contents(uint256)":"b5ecf912","emergencyWithdraw()":"db2e21bc","getContent(uint256)":"0b7ad54c","getContentCount()":"74449ca4","getContractBalance()":"6f9fb98a","getLicense(uint256)":"b2dd1212","getUserContent(address)":"87898489","hashToContentId(string)":"cbaba696","owner()":"8da5cb5b","platformFee()":"26232a2e","purchaseLicense(uint256)":"c8a028a8","registerContent(string,string,string,uint256,string,string,string,uint256,uint256)":"f1a3ac7d","registrationFee()":"14c44e09","removeAuthorizedRegistrar(address)":"70b3ce3b","removeViewer(uint256,address)":"e267eea0","renounceOwnership()":"715018a6","setPlatformFee(uint256)":"12e8e2c3","setRegistrationFee(uint256)":"c320c727","setVerificationFee(uint256)":"aae9d5f2","transferOwnership(address)":"f2fde38b","updateLicense(uint256,string,uint256,uint256,string)":"5d0d0612","userBalance(address)":"0103c92b","userContent(address,uint256)":"78866bdb","verificationFee()":"a8c278a2","verifyContent(uint256)":"fd2a176e","withdrawFees()":"476343ee"}}}}}